:020000040800F2
:1000000000500020CDD8000879D90008E5A90008E3
:1000100079D9000879D9000879D9000800000000D2
:1000200000000000000000000000000079D9000876
:1000300079D900080000000079D90008C1A900089A
:1000400079D9000879D9000879D9000879D9000848
:1000500079D9000879D9000879D9000845AA00089B
:1000600079D9000879D9000879D9000879D9000828
:1000700051A9000879D9000889A9000879D9000890
:1000800079D9000879D9000879D9000879D9000808
:1000900079D9000879D9000879D9000841AA00085F
:1000A00079D9000879D9000879D9000833AA00085D
:1000B00029AA00081DAA000811AA0008E1A9000841
:1000C000D9A90008DDA90008D5A9000879D9000838
:1000D00079D9000815A90008A9A8000879D900084D
:1000E00049AA000879D9000879D900080000000061
:1000F0000000000000000000000000000000000000
:0C01000000000000000000005FF808F1A3
:100110002DE9F04F854D95B0AB68854C13F0080183
:1001200000F0868095F81721042A00F28380DFE82A
:1001300002F003030550750023787CE060787C4A68
:10014000002877D000209E05507002D5137E180736
:1001500070D4E0780023A27800F00706A383754BE3
:1001600042EA06221A60227902F03F06760146EA48
:10017000D00058606079800040EA9210A27902F0C5
:10018000010640EA86209860E07900F00F06F6014B
:1001900046EA5202DA60227A02F07F06360146EA27
:1001A00010101861607A400040EAD212A07A00F084
:1001B000030642EA46225A61E27A02F01F06B601BD
:1001C00046EA90009861207BC00040EA5212DA6152
:1001D0002CE0A27F564B6AB393F82000002201283E
:1001E0009A7727D19A8393F83420082A84BF08226B
:1001F00083F8342094F834004F4A0023DEB286425C
:1002000002F1020212D212F8016C12F8027C46EAE4
:1002100007274A4E46F823700133EFE794F8583029
:10022000434A00203BB1908382F85800012302E04A
:100230000B4600E00023E26D206E101A002802DA5F
:10024000002B00F09B8302F59C4220322266DFF8EF
:1002500004A13B4E00293CD13A4F89468846DAF842
:1002600000305FFA88F09847A0F2EE2292B240F296
:10027000DC539A42D4F8A420334B88BFB5F81A0156
:100280001340002B03DA013B63F0030301332849D9
:1002900003EB880301EB4303A3F8640039887B88F0
:1002A00008F101080B44B988B8F1080F0B44F9882C
:1002B00007F108070B441BB24FF0040193FBF1F365
:1002C00026F8093009F10209C9D10132C4F8A42085
:1002D00009E00027F8B2DAF80030984726F817004E
:1002E0000137082FF6D1AB68590404D594F8A8302B
:1002F0000BB904F0F6FE95F824210C4B62B30332DF
:1003000036F91200A0F57A70B0F57A7FA8BF4FF4E5
:100310007A7020EAE0700BF07DF80C490BF082F95E
:100320000B490BF0CBF80BF0B5FA2AE0901800203F
:1003300008010020400700202A0100204001002081
:10034000140700206C0100200300008000007A44A4
:1003500000C07F443807002093F8250190B1A84AD7
:10036000D179A84A32F81100B3F8282180B2801A56
:10037000B3F82631C0EB802090FBF3F000B280F39D
:100380000A0080B2AB68A4F8BE009A053FD59E4B28
:100390009E4AB3F81C9092F8B8300FFA89F703EB35
:1003A00083018F4290461EDDDFF868A29AF8012093
:1003B000CAB1974AB2F81A2132807280B280B8F876
:1003C000BA20F28098F8B920134403EB83039F42CC
:1003D00004DD04F086FE00238AF80030B4F8C03053
:1003E0000133A4F8C03098F8B83003EB83039F4280
:1003F00009DD884F97F80180B8F1000F03D104F0B0
:1004000070FE87F8008009F10109A4F81C90002211
:10041000B5F81C11B5F81E711346B05E9B088842F2
:10042000C4BF63F07F03DBB20232B842B8BF43F00F
:100430004003082AF1D194F8C200734A984205D1CA
:1004400092F8C300F92804D8013000E0002082F8B7
:10045000C30084F8C230AB686D4A13F480436B4F1D
:100460000CD0B2F81A11B2F8DC20B6F90630881AAE
:10047000834208DD0A44934207DB04E0B6F9062014
:100480008A4202DB16E0002314E00023C4F8D433D0
:10049000C4F8D833C4F8DC33C4F8D030C4F8D4304E
:1004A000B7F846302BB1584B93F8A830002B42F0E8
:1004B000A4800123B7F846206AB194F8A82052B965
:1004C000544A52783AB195F8212112B104F009FE4C
:1004D00001E0002BFAD194F8C3204B4B142A40F0D2
:1004E000B1804C4A50789046D0B1B7F846202AB92E
:1004F00093F8C2305F2B01D104F0F3FD95F8203161
:10050000002B00F09F80B7F84630002B40F09A8017
:1005100094F8C2307D2B40F0958004F0E2FD91E02C
:1005200093F8C220572A15D13B4B4FF47A721A80A8
:10053000AB68DB0501D505F005F9384B1B6858079A
:1005400002D5374A0A21118013F0080326D1A4F8F6
:10055000C43023E0A968490717D55A2A15D193F862
:10056000C6202AB1012283F8C60083F8C72015E00F
:1005700093F8C82082F0010283F8C820294B0AB101
:10058000022200E003221A7008E05D2A02F03E8099
:100590005B2A02F053805E2A02F05280B7F84630A0
:1005A00033B994F8C2206F2A02D104F025FD15E07A
:1005B00095F8202122B11BB994F8C2307E2BF4D0DB
:1005C00094F8C230972B04D1174B4FF4C8721A809D
:1005D00004E0A72B04BF012388F80E3094F8C23042
:1005E000BB2B02D1BB8D023303E0B72B03D1BB8DF4
:1005F000023BBB851FE0BE2B18D17B8D023319E077
:10060000F4040020FC04002008010020641C0020E9
:1006100090180020A8060020300C00202C05002097
:10062000320C0020351D0020401D0020BD2B09D1BB
:100630007B8D023B7B850120014609F0AFF9002349
:1006400084F8C330D5F808E01EF0040F31D094F8D8
:10065000C820A14B8AB1A14A527872B1A04AB6F91A
:100660000610B2F81C21914207DD93F8A82022B9A8
:100670003221A3F8CA1083F8C82094F8B920964B09
:1006800062B193F8CC202AB993F8C62012B932226D
:10069000A3F8CA20012384F8CC300AE093F8C620DE
:1006A0003AB18E4A527822B983F8C620012283F8E3
:1006B000C7208C480123002130F8022F03F1FF3CB2
:1006C000A2F21556B6F5C77F8CBF002601269E40C4
:1006D00012B2314340F21356B242CCBF002601267B
:1006E00006FA0CF6314340F2A466B242D4BF0022AF
:1006F00001225E1CB240033311430D2B89B2DBD1C2
:10070000002307EB4306B6F84660734A31420CBF3C
:100710000026012602F1A8001E540133152BF0D14A
:1007200092F8A9306D4E704943B9704BB2F91C2054
:1007300093F8B83003EB83039A420CDD0B689A07F9
:1007400009D5F3784BB9C4F8D030C4F8D430634B32
:100750000122DA7001E00023F37094F8AA305E4AB7
:100760005BB10023F370337943B9C2F8D030C2F8DB
:10077000D4305A4B01221A7100E0337194F8A8303A
:100780000BB901233370F278594B12B9534A1279DD
:1007900012B110225A6101E010221A610A6853074F
:1007A00025D594F8AB104C4B99B1B17991B94B4820
:1007B0004FF0010C80F806C0D3F8DC00C3F8EC1051
:1007C000C3F8D800B3F8E800C3F8F010A3F8E000CD
:1007D00000E0B1711EF4005F09D094F8AC302BB189
:1007E000F37B23B93D4B0121D97300E0F37312F081
:1007F0000A0F20D094F8AD3037494BB1737943B923
:10080000364B01205871B1F8C430A1F8F43000E043
:10081000737194F8AE302BB1737A23B92F4B012149
:10082000597200E0737294F8AF102B4B19B1B3F802
:10083000C410A3F8F610900640F19180F27A274B8D
:10084000002A00F0878094F8F820DFF88C80042AD2
:1008500040F2808098F8B2208AB1DA79002A7ED1FD
:100860000121D9711A72234B08F1FC0008F580713F
:100870001A7007F06DF9022388F804316FE0DA711D
:1008800098F8B320002A37D0B8F9E210B7F8CC2096
:100890000029B8BF494291422EDAB8F9E410002984
:1008A000B8BF4942914227DA1A7A002A57D1012764
:1008B0001F72104B08F584701A70D8F8103108F5C3
:1008C0008671C8F80831D8F81431C8F80C3107F02F
:1008D0003FF988F8047142E008010020A8060020D2
:1008E000901800201A0700202C050020641C00200E
:1008F000000C014000000020934A0023337213785B
:100900006BBB012111701A46904F0020391D5052C7
:1009100007F1080107F10C0E5052002143F80E10A8
:100920009E44D053CEF80400CEF80810023207F1EE
:10093000340E5C3743F80E10D9519E441F44042AEC
:10094000CEF80400CEF808107860B96003F1140303
:10095000DAD104E00023F371337284F8043194F89F
:10096000B43003B10123B3726B79082B02D00E2B84
:1009700040F066840023737200F062BC744BD3F8BD
:100980009C31042B00F25C84DFE813F005008B003F
:10099000F8004C033E040123C4F89C316D4B6C4EAF
:1009A0001B6819077DD5D6F8A031D31A002B78DB48
:1009B000694B02F5C332A0325B6806F5D270C6F807
:1009C000A0219847654B06F5D2779A7B184692B1DD
:1009D000D6F8A0210023C6F8AC21E9180022A1F81E
:1009E000002116465E49FA5A5A5206315A520233CB
:1009F000062BF2D186735B4B1B78A3B1B4F8A4210C
:100A0000B5F80031D31AA4F8A431B4F8A621B5F88A
:100A10000231D31AA4F8A631B4F8A821B5F80431EC
:100A2000D31AA4F8A831D4F8AC31494A002B00F00D
:100A30000784D2F8A0114C48CB1A834202F5DB712F
:100A400002F5D87019D8494BDA6882F00802DA60EA
:100A50000023FA5A30F903E016B2B645C4BFDFF8F6
:100A600000E123F80E2031F903E0B645BCBF404E4B
:100A70009A530233062BECD1E2E30023C2F8AC31E7
:100A8000C75ECE5EEA183E4402273B4496FBF7F66B
:100A9000062BA2F80061F3D10120014608F07EFF89
:100AA000CEE3D4F89C312A4E0133C4F89C31294B53
:100AB0001B685B0762D5D6F8BC31D31A002B5DDB0F
:100AC000D6F8C031C6F8BC212A4F9BB13B69984784
:100AD0007B689847D6F8BC313A8806F5E270134433
:100AE000C6F8BC3106F5E4717B6998470023C6F867
:100AF000C031A5E3BB689847FB6898471E4AD6F803
:100B0000CC1192F831204B1C934208BF0023D4F83B
:100B1000C42104EB8101C1F8D021D4F89012C4F8AB
:100B2000CC310A4404EB8301D1F8D0010123121A1D
:100B3000C4F89022C4F8C0317A88D4F8BC31134488
:100B4000C4F8BC317CE300BF00000020200200207C
:100B5000080100202C050020A4050020A806002084
:100B6000B8020020CC0500207FC3C901000C014061
:100B7000BE0200207C050020641C0020D4F89C31BB
:100B8000B14E0133C4F89C31B04B1B685F0740F194
:100B9000498204F025F9D6F8987246F2A713C71BCC
:100BA0009F42B6F896A2B6F894B240F23B82DFF8C4
:100BB000C892C6F89802B9F80030DFF8B8827BB363
:100BC00098F83100D6F89032D6F89C220138B3FB61
:100BD000F0F0082392FBF3F1521A1044C6F89C027D
:100BE00090FBF3F00AF016FC99490AF01BFD9949B5
:100BF0000DF088F901464FF07E500AF055FB9649FA
:100C00000AF05CFC0AF020FE0023C6F8A432C6F805
:100C1000A832B9F80030C6F8A002013BA9F80030AC
:100C200098F831000FFA8BFB0FFA8AFAD4F8903259
:100C3000BBF1000FB8BFCBF1000BBAF1000FB8BF8A
:100C4000CAF1000AD345A8BFDA460138B3FBF0F079
:100C50001FFA8AFACDF818A00AF0D8FB7C490AF0EE
:100C6000E1FC7C490DF04EF901464FF07E500AF050
:100C70001BFB79490AF022FC0DF050F8D8F83460DB
:100C80008146D4F8AC020AF0C5FB31460AF016FCE6
:100C90008046D4F8A002C0EB09000AF0BBFB314645
:100CA00081464FF07E500AF0FFFA014648460AF0AE
:100CB00005FC014640460AF0F9FA0DF02FF8DDF880
:100CC00018A083460FFA8AF8B8F1FA0F634E03DDD5
:100CD0004FF0FF33336014E030680AF09BFB81462D
:100CE00040460AF097FB01465D480AF0DDFA0146EE
:100CF00048460AF0E3FB5A490AF094FC0AF0A4FDC6
:100D00003060366806F1FF39B9F1C60F06D8C6EB78
:100D10000B03C4F8B032C4F8AC622FE0D4F8B032A0
:100D2000002EC3EB0B0BDFF820A1C4F8ACB225DD1D
:100D3000C6F596700AF06EFB4A490AF073FC8046CD
:100D4000CAF8B40230460AF065FB41460AF0B6FB29
:100D5000064658460AF05EFB414683464FF07E50F9
:100D60000AF0A2FA014658460AF0A8FB01463046AE
:100D70000AF09CFA0AF068FDCAF8AC023A4B18680F
:100D800002930AF043FB394906460AF097FB834673
:100D9000D4F8C0020AF03EFB8046D4F8C4020AF040
:100DA00039FB014640460AF03DFC314A0590116886
:100DB0000AF084FB31460AF081FB2E4A4FF07C5149
:100DC000D2F83CA0D4F8A482D4F8AC620790039285
:100DD0000AF074FB59460AF071FB594684464046B6
:100DE000CDF810C00AF06AFBDDF810C0014660467D
:100DF0000AF05CFAD4F8A8120AF058FA51460AF040
:100E00005DFB834630460AF005FB514684464FF0B1
:100E10007E50CDF810C00AF047FADDF810C0014648
:100E200060460AF04BFB014658460AF03FFA039A27
:100E3000029BB9F1C60FC4F8A80291469A461DD884
:100E4000014AC2F8DC601EE0080100202C050020E9
:100E500080E6C547B1DC423ED048874A40000020CA
:100E6000000061440000C842381D0020BD378635AF
:100E7000C0050020641C0020320C00200AF0E4FCB5
:100E8000B04BC3F8DC00079940460AF00FFA03465E
:100E9000D4F8C8024FF00008CAF80080C4F8B8823D
:100EA000C4F8BC82C4F8C082C4F8C482301A029369
:100EB0000AF0B0FAA4490AF001FB824638460AF06B
:100EC000A5FA014650460AF0ADFB0AF0BDFC40F21F
:100ED000DC529E499042A8BF10468842B8BF0846DF
:100EE0000A21C4F8C86204F067FA029BD9F8386096
:100EF0008246314618460AF0E1FA074650460AF0A3
:100F000089FA314682464FF07E500AF0CDF901460B
:100F100050460AF0D3FA014638460AF0C7F9C4F839
:100F2000A4020CF0FBFE0521064604F045FA069FDC
:100F3000DFF810B23BB2B3F5487FC4F8CC026BDAED
:100F40009BF8D0320BBBDBF8D820DBF8DC308048D4
:100F5000D31AB3F5FA7FA8BF4FF4FA738342A8BF40
:100F600018460A2104F028FA7A4B80221B7958434C
:100F700090FBF2F3B3F5967FA8BF4FF49673A2F5FA
:100F8000D6729342B8BF134601E0DBF8D43299F829
:100F90000A209B1B5A43202192FBF1F299F814007E
:100FA000D4F8EC1042F2040603FB00106A4BB2F5D1
:100FB000967FA8BF4FF496729842A8BF1846674B19
:100FC0009842B8BF1846C4F8EC0090FBF6F0644EA7
:100FD000B242ACBF8618861999F81E000AF01AFAB8
:100FE000D4F8D812074605980AF060F90146384649
:100FF0000AF064FA4FF06C510AF060FA0AF024FC2F
:101000006FF095039628A8BF96209842B8BF18465F
:10101000301AC4F8F00001E0CBF8F080059AC4F86B
:10102000D8220DE1D4F89C310133C4F89C31AB686F
:10103000DE0540F1E9804B4EB36863B94A4F3B7817
:10104000013B042B00F2FC80DFE813F011001100DB
:101050001100CD00B600B06803F0BFFD0028EDD050
:10106000404B986803F0B4FD04F0DEFCF3E795F81C
:101070002A91B9F1000F03D0B9F1010F09D098E01E
:101080007A783A4BB06803EB0213596803F09BFD82
:101090008CE0B068DFF8CC8003681B6998470028B3
:1010A00000F087803B78304E022B2CD0032B35D0BC
:1010B000012B7ED12E4BD3F80090736AC3EB09034A
:1010C000632B76D9F369042B1BDCDFF8A0A0D8F8DA
:1010D00008000AEB0313596803F075FD7378D8F81C
:1010E00008800AEB03139E6816F8011B19B14046ED
:1010F00003F078FDF8E7FB69C7F824900133FB6142
:1011000057E0022053E07278184BD8F8080003EB40
:101110000213596803F057FD032048E03369012B9F
:101120002AD0022B42D0002B43D1326A114BC6F891
:10113000109053F8321003EBC2035B687161B36126
:1011400037E000BF080100200024744924FAFFFFA3
:101150000CFEFFFF641C002020031900E0FCE6FFEA
:10116000D4FEFFFFD005002060070020F4FF000838
:101170008C180020E0000108F369B269934209DA93
:101180007269D8F80800D15C03F02CFDF3690133D3
:10119000F3610EE0326A7B490132326251F832204B
:1011A0000023F36102B90223336102E0042007F057
:1011B00027F900237B6043E07B68052201337B60D5
:1011C0007B7801200133DBB2B3FBF2F202EB820247
:1011D0009B1A7B706C4B6D4A1B68BB60002384F8C4
:1011E000F830D3720DE0684B1A68BB68D21A40F62B
:1011F000C4139A4224D9664B05201A6822F02002B3
:101200001A6007F0FDF81BE00023C4F89C31604B26
:101210001B68D80614D55C4B1A685E4B19683C31C4
:101220008A420DD31A605C4F5C4A5D4B5D4EC3F839
:10123000DC223B880B20336103F080FE3B88736126
:1012400003F0CEFDAB89E06533B1554AD2F8E02218
:10125000821A002AC1F20682534E1844C4F8E002F2
:10126000736852489847524B1A889946002A00F0F2
:10127000C0804E494FF0000801F108064746B9F812
:1012800000B04C4BBBF57A7F08D1A3F13C010A209A
:1012900000FB0711002243F808200A61434AD05F8F
:1012A00053F80820024443F808200AF0B3F83369E1
:1012B0000133012B336104D1002370603060B360CF
:1012C0002AE0D6F800C002936146CDF810C0039022
:1012D00009F0EAFF029B824618460AF09BF8014695
:1012E00050460AF09FF9DDF810C00146604609F04B
:1012F000DDFF039A0346194670601046029309F019
:10130000D3FF014650460AF0D9F8B16809F0CEFF84
:10131000029BF0603360B0602448002300F1500A63
:10132000BBF1010FC35327F80A3055D130690128AA
:1013300007DD01380AF06EF80146F0680AF072F92C
:1013400000E000200CF066FF834695F8F60098B3A5
:101350000AF060F8014658460AF06CFA60B34FF4A0
:101360007A73A9F800300023C4F8FC32C4F81033B3
:10137000C4F82433C4F83033C4F82C33C4F8283309
:101380002AE000BFE00001088C180020A806002019
:101390002C050020240C0020180C00204000002008
:1013A00008010020000C014030050020EC03002063
:1013B000300C002030040020B54B4FF47A7258F8FE
:1013C00003300A2003F5FA7393FBF2F32AF807308F
:1013D0000F21012203F0EAFD0237062F08F104086D
:1013E00006F114067FF44BAFB9F80030013BA9F8C1
:1013F00000300023A74E06F5397706F54D72F95AED
:101400009A5A8A1AFA520233062BF3D1A24B1B685E
:1014100013F0020300F09883A04BA14F06F23A307C
:101420005B689847388806F23A36002844D0002393
:101430001A46DFF888C2B0F5C87F04BF00214CF817
:10144000021036F903805CF80210DFF848E24144EC
:101450004CF80210002105EB0308F1520233062B71
:10146000DFF848C2A8F8FA1002F10402E1D101281D
:101470001FD1DEF840334FF4C872C83393FBF2F348
:10148000ACF8FA30DEF84433C83393FBF2F3ACF82F
:10149000FC30DEF84833C83393FBF2F2814B1B88F3
:1014A000D21A814BACF8FE2059859985014608F087
:1014B00075FA3B88013B3B80AB687C4A59077CD579
:1014C000B4F8CA10734B322913D1B2F8FA00A3F85A
:1014D0004C03B2F8FC00B2F8FE20A3F84E03A3F8C8
:1014E0005023714A508D928DA3F85203A3F85423D0
:1014F00001E000293DD000221746DFF8C4E132297F
:1015000004BF00234EF807305EF8070036F902C02A
:1015100005EB020860444EF807004FF0000E26F875
:1015200002E00232062A5B4B6048A8F8FAE007F1B5
:101530000407E2D1012919D15D4A02261670B3F8D9
:101540004C2383F8CCE0A0F8FA20B3F84E2383F8BC
:10155000C610A0F8FC20B3F85023A0F8FE20524A91
:10156000B3F85203B3F85433508593850139A4F886
:10157000CA1094F8C720474BFAB1D3F85803322168
:10158000002290FBF1F083F8C720A5F8FA00D3F809
:101590005C03D3F8603390FBF1F093FBF1F1414B26
:1015A000A5F8FC001B880120C91A3F4BA5F8FE10C6
:1015B00001465A859A8508F0F1F9B4F83A23B5F84E
:1015C000FA30D31AA4F83A33B4F83C23B5F8FC3017
:1015D000D31AA4F83C33B4F83E23B5F8FE30D31A3E
:1015E000A4F83E3303F0FCFBD4F864330646C31A78
:1015F0001846069309F00AFF2E4A0790D16809F0B1
:101600005DFF294BC4F8646393F82E70089005972A
:1016100000273E46BB46984627490DF12C0A885FB5
:1016200009F0F8FE089909F049FF059A4AF8070001
:10163000002A49D0104609F0EDFE01464FF07E50D9
:1016400009F0F0FFDFF87C90034619464FF07E501A
:10165000029309F029FE57F8091009F02FFFA9F1AC
:101660002E010246885F039209F0D4FE029B1946C0
:1016700009F024FF039A0146104609F017FE49F8C5
:1016800007000AF0E1F809F10C0929F8060020E04A
:1016900030040020080100202C0500204405002013
:1016A000401D00202C000020641C00209018002009
:1016B000351D002030050020EC03002048040020E8
:1016C0006004002070040020BF4BA3F13A02B25A1C
:1016D000F252BD4B0437F25E0236062E02FB02BB0D
:1016E000994699D1642303FB0BFBB84B09F1080021
:1016F0001B880BA95B439BFBF3FBABF1490B1FFA68
:101700008BFB03F027FDBBF13B0F6BD9B04BD4F83B
:101710008463B3F9000009F07DFE014630464FF0C6
:1017200001070AF087F800B90746AA4B3146D4F8FA
:1017300080035F730CF0E4FB0746C4F88803D4F819
:101740007C03D4F884B300F10046D4F8800301464A
:1017500009F0B4FE59468146584609F0AFFE0146ED
:10176000484609F0A3FD0CF055FD014630460CF04B
:10177000C7FB0646C4F88C03384609F0DBFA8EA393
:10178000D3E9002309F02AFB09F03AFD0CF0C6FA70
:10179000A4F89402304609F0CDFA87A3D3E90023D8
:1017A00009F01CFB09F02CFD0CF0B8FA8A4BA4F8E8
:1017B00096021B681B076ED50BA9884803F0CAFC6C
:1017C000B5F8F40009F022FE4FF07E51834609F08F
:1017D0006DFD01464FF07E5009F024FF4FF0000AE6
:1017E00005902EE0B5F8F20009F010FE4FF07E51A2
:1017F000074609F05BFD01464FF07E5009F012FFED
:101800004FF0000B0646764B384653F81B100293F8
:1018100009F054FE024639F90B00039209F0FAFD73
:10182000039A0146104609F041FD314609F046FE93
:10183000029B43F81B000BF1020BBBF1060FE2D138
:1018400064E7DFF8AC91584609F5647252F81A1053
:10185000039209F033FE09F5D271844631F90A008A
:10186000CDF810C009F0D6FDDDF810C00146604685
:1018700009F01CFD059909F021FE039A42F81A00AF
:101880000AF1020ABAF1060FDBD1104603F01AFD85
:10189000A9F8C40044E0DFF85CB151460BF1040044
:1018A00003F058FCDBF80400DBF808300146DBF8F5
:1018B0000CA0029309F002FE029B814619461846CD
:1018C00009F0FCFD0146484609F0F0FC514681460E
:1018D000504609F0F3FD0146484609F0E7FC0CF0DC
:1018E00099FC0021814609F07DFFA0B9DBF80400D6
:1018F000494609F097FE4946CBF80400DBF808009A
:1019000009F090FE4946CBF80800DBF80C0009F01E
:1019100089FECBF80C00334803F0D4FCA4F8C400D3
:101920003149079809F0CAFD06F10046814607F1E2
:101930000047B4F9C4000F960E9709F06BFD00F153
:10194000004009F0F7F91EA3D3E9002309F046FA95
:1019500009F056FC1090B4F9740309F05BFD119086
:10196000B4F9760309F056FD1290B4F9780309F042
:1019700051FD0EA9139011A803F0ECFB1B4B1C4E5C
:1019800093F84430012B37D1124B5B7873B9D6F8FA
:101990009C33402093FBF0F0181A09F03BFD13999B
:1019A00009F084FC09F050FFC6F89C03D4F89C337E
:1019B000402093FBF0F021E03B597E90A9E7814065
:1019C000399D52A246DF913F7C0400202C0000206C
:1019D000BC050020A80600202C050020980400204B
:1019E0008404002004000020BD378635641C0020DC
:1019F0000801002000000020B94B188809F00AFDFA
:101A00000146139809F050FCB64B139019684846EC
:101A100009F04CFC0146484609F004FED4F8A073D6
:101A200081463946139809F03FFC0146484609F0C3
:101A300045FD0146384609F039FC0746C4F8A003C5
:101A40001198D4F8B8920CF069F998F8301003F0B6
:101A5000B3FC4844C4F8B8021298D4F8BC920CF015
:101A60005DF998F8301003F0A7FC4844C4F8BC02B4
:101A70003846D4F8C0920CF051F998F82F1003F0C2
:101A80009BFC994B069F1A6848443A441A60D4F864
:101A9000C432964E0133C4F8C43298F87630C4F894
:101AA000C002002B56D0D6F87C03D6F880930146AE
:101AB00009F004FD49468046484609F0FFFC01460E
:101AC000404609F0F3FBD6F8847380463946384621
:101AD00009F0F4FC0146404609F0E8FB0CF09AFBE3
:101AE0000146384609F09EFD8149074609F08EFE01
:101AF00018B10023A6F8A4332CE038460CF0B0F956
:101B00007C4B196809F0DAFC0CF008F9B0F5617F3C
:101B1000A8BF4FF4617009F0FBF86FA3D3E900236D
:101B200009F086FA09F06CFB0CF05CF9724B074681
:101B300093F8760009F06EFC394609F0BFFC0CF012
:101B4000EDF8A6F8A40305E0A6F83A33A6F83C336E
:101B5000A6F83E336B79012B0ED1B4F9A623B4F964
:101B6000E83203EB4203032293FBF2F39BB2A4F8A7
:101B7000AC33A4F8A63303E0B4F8E832A4F8AC33ED
:101B8000B4F8E432594FA4F8A833B4F8E6325A4E08
:101B9000A4F8AA3303F024F9584BE0651A681860DA
:101BA000821AA4F8AE2300F063FD554B196811F0BA
:101BB000080F34D0B7F8E62002F145039BB28A2B18
:101BC00029D8504B58799E4628B3B7F8F430B7F867
:101BD000C400C01A80B283B21FB2B337BCBF00F5D5
:101BE000B4739BB218B2B3289EF80D70C4BFA3F5AE
:101BF000B4739BB295F8EC008FB140B240424343BE
:101C0000707A1BB243436FF01D0093FBF0F31A444C
:101C1000A4F8E62003E0B4F8C430A4F8F4304F0789
:101C200040F19780374B9A79002A00F092801F7C10
:101C3000002F40F0848096F8730096F872202B4BAA
:101C400080B3B4F8E8C0B4F9E0000FFA8CFEC0EB42
:101C50000E08B8F1000FB8BFC8F1000890450FDDBD
:101C60008645C8BF52421FFA8CFCC8BF92B2C3F867
:101C7000EC706244012783F8B073A4F8E82068E0B0
:101C800093F8B0232AB1D3F8DC2083F8B073C3F8FB
:101C9000D820D4F8F030B5F8D2201844B5F8D030B8
:101CA000984244E0B4F9E070B4F9E8E0C7EB0E0EF6
:101CB0008EEAEE7CACEBEE7C944525DD02229EFBA9
:101CC000F2F2C3F8D422012283F8D02283F8B023A1
:101CD00025E000BFAFF30080A2EB0FE5DD169640D4
:101CE0002C000020C8050020381D0020080100201D
:101CF0008FC2753CC4050020641C00202C0C002001
:101D00002C050020A806002093F8B0233AB1D3F8A0
:101D1000DC2083F8D002C3F8D82083F8B003D4F8CD
:101D2000F020B5F8D0303A44B5F8D2009A4203DB3F
:101D30008242B4BF13460346A4F8E83009E0B4F881
:101D4000E42095F92301D4F8F03000FB0323A4F834
:101D5000E43096F876305BB1A94BDA780AB91B7992
:101D600033B1B4F8E830B4F8A4231344A4F8E8304D
:101D7000880640F1B180A24BDA791AB91A7A002AA2
:101D800000F0AA801B7B002B00F0A680B4F9C400F1
:101D900009F040FB9B4909F091FB80460CF022F8CA
:101DA000814640460BF084FF96F8C5A08046964FCA
:101DB000B4F92201BAF1000F5CD0B7F81E31CAF1B4
:101DC00000071FFA83FB1BB2C01A03F0DFFCB84206
:101DD00003DB5045A8BF504600E03846B4F81C313C
:101DE0008344B4F920019AB21BB21FFA8BFBC01ACC
:101DF000A4F81EB1039203F0C9FCB842039A03DBB6
:101E00005045B4BF074657461744BFB2A4F81C71EB
:101E10000FFA8BF009F0FEFA824638B209F0FAFAAE
:101E200041460746504609F049FB49468346384635
:101E300009F044FB0146584609F036FA734909F0A7
:101E4000F1FB09F001FD4946A4F81801504609F0DC
:101E500035FB41468146384609F030FB014648468D
:101E600009F024FA694909F0DDFB09F0EDFCA4F85A
:101E70001A0131E009F0CEFA8346B7F9200109F0E2
:101E8000C9FA41468246584609F018FB49460346BE
:101E90005046029309F012FB029B0146184609F0D6
:101EA00003FA5A4909F0BEFB09F0CEFC4946A7F8EF
:101EB0001801584609F002FB41468146504609F098
:101EC000FDFA0146484609F0F1F9504909F0AAFB2C
:101ED00009F0BAFCA7F81A014D4B1B6998474D4B06
:101EE0001A78032A13D9B4F9E600B4F9B613002816
:101EF000B8BF40426FF063031B1A994204DB00F144
:101F000064038B42A8BF0B46A4F8B6331DE0012A38
:101F10001BD86B79013B142B00F23A82DFE813F0F7
:101F2000C200380238028000D500380238026B0146
:101F300038023802380238023802F100380238021A
:101F4000380238023802CF01060296F9BEB0B4F961
:101F5000B613CBF1000B01FB0BFBB4F8E830B4F87F
:101F6000B493B4F8B2A32C4F4FF00008904507F19A
:101F70001007CED218B20392029309F04BFA57F829
:101F8000101C09F09BFA84460FFA89F0CDF810C0B6
:101F900009F040FA57F8081C09F090FADDF810C073
:101FA0000146604609F082F984460FFA8AF0CDF8BE
:101FB00010C009F02FFA57F80C1C09F07FFADDF871
:101FC00010C00146604609F071F984465846CDF8C4
:101FD00010C009F01FFA57F8041C09F06FFADDF879
:101FE00010C00146604609F061F909F02DFC0B496B
:101FF000029B21F81800039A08F10108B6E700BF18
:10200000A806002035FA8E3C08010020000020417F
:1020100000000020481C0020E80500204A1C002089
:1020200096F89E30042013F0020F0CBF4FF0010B06
:102030004FF0FF3B13F0010F0CBF4FF0010A4FF0C0
:10204000FF3A03F073F8B4F8B693B4F8B4830BFB1B
:1020500009FB0AFB08FA96F8A6301FFA8BFB13F06F
:10206000020F0CBF01224FF0FF32AC4F584413F067
:10207000010F1FFA8AFA82440CBF01234FF0FF338D
:10208000052002FB09F903FB08F8A7F808A003F0F4
:102090004DF81FFA89F91FFA88F848448044A7F8D8
:1020A0000A8075E196F8A630052013F0010FB4F808
:1020B000B6330CBF01274FF0FF375F4303F036F80C
:1020C000BFB2964B3844588162E1002003F02EF8ED
:1020D000B4F9962296F97E304FF0320853438F4F71
:1020E00093FBF8F318443880012003F01FF896F9A9
:1020F0008630B4F99422534393FBF8F84044788037
:1021000046E1874B854F5A78994612B9B5F8D430D5
:102110000BE0B4F9E820B5F8D030B5F8D2109A4207
:1021200003DB9142B4BF0B461346FB81FA897D4B1A
:1021300095F822811A80B8F1000F28D0022002F011
:10214000F5FFB6F98830B6F88A20984203DB13B25F
:102150009842B8BF0346B5F81A217349D01AB4F8AB
:10216000B83300B20FFA83FE864501DA984402E0E4
:1021700003DDC8EB0308A1F8B883B4F9B81396F9E6
:102180008E304B43642193FBF1F31A44BA8099F8E3
:102190000A306BB1B4F8E230FB803B81B4F8E63032
:1021A0007B81B4F8E430BB81DFF87081032709E05C
:1021B000B4F8B233FB803B81B4F8B6337B81B4F81A
:1021C000B433F0E706EBC703B8F9069093F97E3015
:1021D000384609FB03F9642399FBF3F9A8F8069044
:1021E00002F0A4FF01374844072FA8F8060008F1C1
:1021F0000208E7D1CCE04A4B484F5A78194612B949
:10220000B5F8D4300BE0B4F9E820B5F8D030B5F823
:10221000D2009A4203DB9042B4BF03461346FB81CF
:10222000FA89404B1A808B7AA3B196F89630B4F8AD
:10223000E41013F0010F0CBF01224FF0FF3213F036
:10224000020F02FB01F20CBF01204FF0FF30B4F887
:10225000E23012E096F89630B4F8B41313F0010FA0
:102260000CBF01224FF0FF324A4313F0020FB4F8C3
:10227000B2330CBF01204FF0FF3000FB0322FA8085
:1022800096F89E2012F0010F0CBF01204FF0FF3096
:10229000414312F0020F0CBF01224FF0FF3202FB4C
:1022A000031303203B8102F041FFFB881844F880B0
:1022B000042002F03BFF3B891844388168E096F81F
:1022C0009E20B4F8B43312F0010F0CBF4FF0010898
:1022D0004FF0FF3808FB03F8104F1FFA88F804206E
:1022E000A7F8088002F022FF96F8A620B4F8B233CF
:1022F00012F0010F40440CBF4FF001084FF0FF38BF
:1023000008FB03F838811FFA88F80520A7F80A802F
:1023100002F00CFF404478813AE000BF82000020C8
:10232000A80600204A1C002008010020B4F8B6A32B
:10233000032706EBC70393F87E30C7F1060113F0BD
:10234000020F0CBF01224FF0FF3202FB0AF221F014
:102350000101214413F0010FB1F8B2130CBF4FF08B
:1023600001094FF0FF3909FB0129DFF8A8821FFAA4
:1023700089F928F81790384602F0D8FE484428F822
:1023800017000137072FD4D1B4F8E820A04B1A80EA
:10239000AB68990631D5002002F0C8FE9D4F8046FB
:1023A0003880012002F0C2FE94F8B0307880DFF867
:1023B00088E213B396F8C030BEF9941213F0020FFE
:1023C00096F986204FF0320396F97E40BEF996E2E8
:1023D00018D04A4364420EFB04FE92FBF3F26FF006
:1023E000310192B29EFBF1F111449EFBF3FE884451
:1023F0007244A7F8008010447880874B874A03F125
:10240000100411E00EFB04F44A4394FBF3F4A044DF
:1024100092FBF3F3A7F800801844EDE723F8021FBE
:10242000A34202F108020CD0B3F90200B2F978100D
:10243000B2F87A708842F1DB39B28142A8BF014616
:10244000ECE796F8C0305A0706D4754B704A93F8FB
:1024500000C0118801230FE0724B0024DE7D043E92
:10246000714BA01903EB4403C0B21989013403F086
:1024700077FA042CF4D1E8E7634508D232F9130067
:1024800009B28842A8BF014689B20133F4E7B5F822
:10249000D200B5F8D060431A1FFA83F9AB68B5F8DB
:1024A000D44003F4804209925F4A03F0100B5F4B63
:1024B000B2F90620B5F8D6705B78B5F81AA1B5F870
:1024C000D8E0B5F81C510192B2B208930697059571
:1024D00007921FFA84F84FEA4C0C0023634539D069
:1024E0000AB282424A4D02DDEA5A4A44EA52099F40
:1024F000474AA7B1019D5545D55E07DD754503DB0C
:102500008542A8BF05461CE075461AE0A54204DBDB
:10251000069FBD42A8BF3D4613E0254611E0ED5E93
:10252000B54203DB8542A8BF054600E03546D552DB
:10253000059F019DBD4205DA079DBBF1000F18BF45
:102540004546D552089A1AB9394A9D5A304A9D5281
:102550000233C3E7334B9B7D002B4BD0354A537975
:10256000013B142B3AD8DFE803F00B3939213C3911
:10257000391939393939392939393939392129005C
:10258000264B93F8BF301BB1224B002059892FE016
:10259000264B58780028F7D1014629E01D4C002031
:1025A000E18803F0DDF90120218921E0194C0020A8
:1025B000218903F0D5F90120618919E0154C00202B
:1025C000E18803F0CDF90120218903F0C9F9022047
:1025D000618903F0C5F90320A18909E093689B068E
:1025E00008D50C4C0020218803F0BAF9618801203D
:1025F00003F0B6F902F07EFD34E00C4B1B78002BA3
:102600003DF457AF02F0F8FCFDF753BF012218E08C
:102610004A1C00208200002080000020641C002052
:10262000481C0020D005002014070020A806002028
:10263000C20400209018002008010020022200E0BF
:1026400003225FFA82F9002009F1FF33014685F881
:10265000B43307F0A3F9022028214A4602F0A6FC71
:10266000FDF79CBF15B0BDE8F08F00BFAFF3008051
:10267000634B2DE9F04FB3F90600624B8DB0DA8C55
:1026800090420FDBB0F5FA6F93F8254007DA811A14
:102690004C43A2F5FA6294FBF2F4643403E0C4F113
:1026A000640400E06424584A93F82370B2F81A11C5
:1026B00092F9EC2093F8705093F87160524293F8BD
:1026C000243092B2049100210692059707930A469E
:1026D0004B4BDDF810C031F9038040F2E637CCEB0C
:1026E000080303F2F31EBE4503D8002BB8BF5B42BC
:1026F00001E04FF4FA73022ADFF814C12CD025B19F
:10270000AB42CCBFC5EB030300236427DFF804A171
:1027100093FBF7FE6FF0630B3AF81E900BFB0E3B3A
:102720000EF1010E3AF91EA00FFA89FECEEB0A0E49
:102730000EFB0BFE9EFBF7FECE442CF801E0DDF80D
:1027400014C003FB0CFE314B9EFBF3F33B449BB2E6
:10275000634393FBF7F314E026B1B342CCBFC6EB5F
:1027600003030023DDF818E003FB0EF7ACF8047058
:10277000079F002BB8BF5B427B43244F93FBF7F3CB
:102780006433DFF88090DFF890C002EB090797F818
:1027900001A097F80BB07F7D03FB0AFA03FB0BFB4C
:1027A0007B434FF0640E9AFBFEFA02F80CA093FBF9
:1027B000FEF30CF1030A0CF1060C02F80C30DDF804
:1027C00010C09BFBFEFBE04502F80AB0104B05DA97
:1027D00033F801E0CEF1000E23F801E00132032AC4
:1027E00001F102017FF474AF074EB6F81C2190424C
:1027F00014DBB0F5FA6FA8BF4FF4FA600FE000BF2A
:1028000014070020641C0020901800200CFEFFFF1D
:10281000EA010020380C0020460C00201046801AE7
:102820004FF47A714843C2F5FA62B0FBF2F24FF00E
:10283000640CB54C92FBFCF104EB4100B0F818E0DD
:102840006FF0630000FB012204EB4101B1F91A00B3
:102850000FFA8EF1411A4A4392FBFCFCE644A3F8BE
:1028600006E0AA4BAA4D5B7A002B44D0A94BB3F9E2
:102870000000A94BB3F90030C01A08F049FAA0A330
:10288000D3E9002308F0AAFA0022A44B08F0D0FBF9
:1028900008F0B6FC80460BF00BFA814640460BF080
:1028A000A1FA8046B5F9020008F0B4FD8246B5F9F8
:1028B000000008F0AFFD4946834608F0FFFD4146A1
:1028C0000746504608F0FAFD0146384608F0ECFC91
:1028D00008F0BAFF49462880504608F0EFFD41460F
:1028E0008146584608F0EAFD0146484608F0DEFCFD
:1028F00008F0AAFF6880D6F80880DFF850A218F028
:10290000020F00F08380864B06211A88236B7E4DD0
:102910001A4494F8343022630133DBB2B3FBF1F98B
:1029200001FB193919F0FF0784F8343004975CD1A2
:102930007C4F7D4B7878A96B33F810E04FF0080B93
:1029400091FBFBF01FFA8EFE081A7044A86390FBFF
:10295000FBF080B20392019308F05CFD734908F02C
:10296000ADFD734908F05EFE81469AF80B0108F050
:1029700051FD0146484608F0A1FD08F08BFF9AF88A
:102980000E11A887039A019B79B37879296C33F8E3
:10299000100091FBFBF380B2CB1A03442B6493FB32
:1029A000FBF39BB240F6E441594340F6FF70B1FBA4
:1029B000F0F1BAF808014FF47A73091A5943BAF8DA
:1029C000060191FBF0F14A4392FBF3F36964D5E908
:1029D0001201C01841EBE371C5E91201554A002309
:1029E00008F078FF049F28652F63534AA38F12884D
:1029F0009A4203D396F80D219A4203D9002384F812
:102A0000543003E0404B042283F854204B483E4BA3
:102A1000417B94F85420864601B1012118F4007FCF
:102A200083F8551022D0464D464B95F8B8101B88B8
:102A300001EB810518B2A84215DD344D6D787DB1EA
:102A4000012584F856503E4D95F8B950294401EBC4
:102A50008101884207DD2C49022081F8560002E0FE
:102A6000022184F856100BB984F85630364D2B6885
:102A700099060DD59EF80A3013B9304BDB7A23B195
:102A8000224BDB7A0BB9012300E0002384F8573096
:102A900094F856101C4B022902D14C204E211DE007
:102AA000012904D14D2153204C220B4607E093F815
:102AB0005710012906D1532001464E224D2305F01F
:102AC00015FC50E093F85510012903D1532001461D
:102AD0000246F3E7042A03D153204D210A460AE0B7
:102AE000022A03D1532001464D2204E0012A2FD1AE
:102AF00053204D214E224423E1E700BFAFF3008075
:102B0000182D4454FB210940380C0020A806002051
:102B1000EA010020CC010020FE0100200080664078
:102B2000B6040020F4040020FC040020333353409A
:102B300000F07F45407E050004050020B001002024
:102B4000641C0020240100202C0500209018002087
:102B5000B14A107818B1322005F09AFB03E083F8EF
:102B6000580002F036F9AD4B1A8812B12B689A075B
:102B700002D4AB4B1B882BB1AA4BDA6882F0080257
:102B8000DA600FE0A84B9A7812B1A64A08211161C9
:102B90005B7813B1A34B08225A61A44B1B780BB18D
:102BA00006F084F8B3681B0662D5A14FE26D3B685E
:102BB000A04F9A1A002A5BDB03F543435033FB65B1
:102BC00097F860309BB97A238DF824309A4B022213
:102BD000B3F900306D20C3F1B40393FBF2F38DF829
:102BE0002530FF2109AB06F0C5FB012325E0012BB1
:102BF00026D192497923B1F900208DF824300A2397
:102C000092FBF3F25A32B42AA8BFB42222EAE2724B
:102C10008DF82520B1F902206D2092FBF3F35A3391
:102C2000B42BA8BFB42323EAE3738DF82630FF2129
:102C300009AB032206F09EFB022387F8603017E001
:102C4000022B15D164238DF8243001238DF8253013
:102C5000754B6D205B78FF21002B18BF01238DF889
:102C60002630032209AB06F085FB002384F8603090
:102C70006F49636E0A68D31A002B11DB6A4B597BCC
:102C800061B99970674BD96881F00801D96002F584
:102C9000F423684A03F59073536601E001229A70A9
:102CA0000027D4F87021634B9742DFF8A8A180F287
:102CB0003F8703F168014C2000FB0711604A116057
:102CC0009AF80010914619B103F0A8FC00F030BF4B
:102CD00093F8003113B15B4A5B4BDA60D9F80030EE
:102CE000DFF85CA1186801F078FF002800F0198770
:102CF000DAF80030186801F06BFFDAF8003093F86A
:102D00004920D2B9B0F1240CDCF1000252EB0C02E4
:102D100083F84920002AE1D1434B5B78002BDDD1B9
:102D2000232802D103F07AFCD8E796F8B533834222
:102D3000D4D1464A464B1A60CDE7012A05D14D2829
:102D400014BF0022022200F0E8BE022A05D13C286E
:102D500014BF0022032200F0E0BE032A0DD1402858
:102D60004FF0000200F2D98683F847205A7183F8A9
:102D700048001871042200F0D0BE042A07D11A7945
:102D800083F8460050401871052200F0C6BE052A9F
:102D9000A4D193F8481093F847209142197907D9A4
:102DA00041401971511C83F847101344987195E7FD
:102DB000814240F0AF8693F84630752B00F02D84A9
:102DC00000F21181692B00F0728300F2C280452B62
:102DD00000F0818640D8422B00F03A860CD8402B78
:102DE00000F05C86412B40F08C86002001F02CFF27
:102DF0004FF0000A00F063BE432B00F0FD85442B2A
:102E000040F07F86002001F01FFF0A4B012283F86B
:102E1000002100F07ABE00BF351D0020401D0020BB
:102E2000300C0020000C0140A8060020290C0020D6
:102E300064010020380C0020CC0100209C030020FD
:102E4000440000200400FA0500ED00E0EFBEADDE16
:102E5000F04F0020481D0020662B00F095826CD8B2
:102E6000642B00F06282652B40F04B860B2001F052
:102E7000EBFED84BDFF878A3B3F9000001F0E7FED2
:102E8000BAF81E0100B201F0E2FE2B68C3F3C000E5
:102E9000C3F38002800040EA4200C3F340021043C3
:102EA000C3F3401240EAC20003F01003184301F0DC
:102EB000CEFEC94A002092F804E0D3784FEA8E0E85
:102EC0004EEA430E53784EEA030E93794EEAC30E50
:102ED00053794EEA431E537A4EEA831EBF4BD9798B
:102EE0004EEAC11E197A4EEA012E597A4EEA412E57
:102EF000D1794EEA812E117A927A4EEAC12E4EEAAB
:102F0000023E5A7B9AF81C114EEA423E9A7B4EEAE8
:102F1000823E1A7C4EEA024E1A794EEA021E5A7C12
:102F20004EEA424E9A7C4EEA824EDA7C1B7D4EEA95
:102F3000C24E4EEA035E03460FE2672B00F0648246
:102F4000682B40F0DE85102001F07EFE4FF0000A75
:102F5000A2E26F2B00F0298324D86C2B00F0D982D9
:102F600018D86A2B00F0B3826B2B40F0CA85DFF8CB
:102F700080A2052001F068FEBAF9220101F067FE87
:102F8000BAF9240101F063FE9AF8060100F001008D
:102F900000F062BC6D2B00F0CB826E2B00F0D38270
:102FA00000F0AFBD722B00F0D88311D8702B00F069
:102FB0001C83712B40F0A585DFF834B24FF0000A76
:102FC0009BF81C01400000F0FE0001F03DFE61E3B3
:102FD000732B00F00884742B40F093854FF0000AA7
:102FE0004FF0010B7AE3CE2B00F0888444D8C82B35
:102FF00000F094802BD8782B00F016820FD8762B17
:1030000000F00084772B40F07C85DFF8E4A14FF0DE
:10301000000B9AF81C0101F017FE534695E3A02B14
:1030200000F09884A42B40F06C85DFF8C4A14FF029
:10303000000B9AF82E0180000130C0B201F004FEAE
:103040009AF82E0101F0D3FD534600F091BCCB2B32
:1030500061D009D8C92B75D0CA2B40F05285DFF852
:10306000A4A10AF10A0B90E0CC2B00F0CF80CD2B6D
:1030700000F03A8400F045BDD42B00F0F18116D861
:10308000D12B00F0EC8307D8CF2B00F0E280D02BBF
:1030900000F0218400F035BDD22B00F03181D32B1C
:1030A00040F02F8502F00AF84D4B1880CCE0F02B51
:1030B00000F0448410D8D62B00F01581EF2B40F09F
:1030C000208501F0FBFFDFF838A1AAF82C0001F001
:1030D000F5FFAAF82A00B7E0FA2B00F01784FE2BC0
:1030E00040F00F85082001F0AFFD3E4B3E4A1B68C3
:1030F0004FF0000AB3FBF2F3C3EB431103EB810380
:103100003A490968B1FBF2F2394902EBC303A1F86D
:103110002C3100F008BC4FF0000A47E04FF0000AE5
:1031200001F0CCFF334B23F80A000AF1020ABAF18E
:10313000100FF5D1002001F087FD2F4B01221A70EE
:1031400000F0E3BC01F0AFFF234BDFF8BCA0D87266
:1031500001F0A9FF294B187001F0BAFFCAF800006E
:1031600001F0B6FFCAF8040001F0A8FFDFF880A064
:10317000AAF8020101F0A2FF9AF80631AAF80401A8
:1031800043F002038AF806315EE001F08CFF0AF199
:10319000010A8AF8010001F086FF8AF80B0001F0AD
:1031A00082FFDA458AF81500EFD14DE0104B93F815
:1031B0001C21924548D203F207131AF803B001F01C
:1031C0007DFF0F4B0AF1010A03EB4B03A3F8460006
:1031D000ECE700BFB6040020A8060020B0010020E4
:1031E000FC0100201400002040420F009400002049
:1031F000380C00201407002060010020000200208D
:10320000641C0020631C00201802002001F04BFF0A
:10321000DFF85CA48AF81F0001F045FF8AF820005F
:1032200001F041FF8AF8230001F03DFF8AF82400F5
:1032300001F039FF8AF8250001F035FF8AF82100F6
:1032400001F031FF8AF82200002001F0FDFC00F0BF
:103250005CBC01F033FF6FF4AF6E00EB0E03DFF8E0
:10326000DCA3C62B98BFAAF81A0101F027FFAAF821
:10327000D00001F023FFAAF8D20001F01FFFAAF846
:10328000D40001F01BFFDFF8E8B3ABF8BA0001F09F
:103290000AFF8AF82A0101F006FF8AF82C0101F0E2
:1032A00002FF8AF82D0101F0FEFE8AF80A0101F002
:1032B000FAFE8AF8240101F0F6FE01F0FFFE00EBB1
:1032C00080004000ABF8280001F0EDFE8AF80B0109
:1032D00001F0E9FE8AF80D0101F0E5FE8AF80C0123
:1032E00001F0E1FEB0E74FF0000A01F0E7FED14B3C
:1032F00023F80A000AF1020ABAF1100FF5D1A3E788
:10330000CD4B5B78002B9FD101F0CDFECB4B02283B
:1033100083F8B4034FF0000088BF0022014688BF45
:1033200083F8B42306F03AFB8EE70720DFF80CA3FE
:1033300001F08AFCE72001F05AFC9AF8050001F040
:1033400056FC002001F053FC9AF82201BC4BBD4A08
:1033500000280CBF10461846D0E38B420ED2BA4A62
:1033600013F802C0012202FA0CFC1CEA0E0F18BF6F
:103370009A4003F1010318BF1043EEE701F071FC1E
:10338000AE4B93F8B40367E2122001F05DFCAF4B43
:10339000DFF8E0A21B88B3F5806F28D94FF0000B4F
:1033A0003AF90B00082390FBF3F00BF1020B01F04C
:1033B0004EFCBBF1060FF3D1DFF8BCA2BAF9000056
:1033C00001F045FCBAF9020001F041FCBAF9040031
:1033D000DFF8A8A201F03BFCBAF9000001F037FCCD
:1033E000BAF9020001F033FCBAF9040053E3BAF968
:1033F000000001F02CFCBAF9020001F028FCBAF937
:10340000040001F024FCD7E7102001F01DFC4FF070
:10341000000A8F4B13F80A000AF1010A01F0E7FBDA
:10342000BAF1100FF5D170E3382001F00DFCDFF890
:1034300040A20AF1400BBAF9780001F008FCBAF991
:103440007A0001F004FCBAF97C0001F000FC0AF1FA
:10345000080A9AF8760001F0CAFBDA45EBD154E38A
:10346000002001F0F1FBDFF808A20AF1400B01F0A7
:1034700025FEAAF8780001F021FEAAF87A0001F0F2
:103480001DFEAAF87C0001F00EFE0AF1080A8AF877
:103490007600DA45EBD138E36E4B13F80A000AF1F7
:1034A000010A01F0A4FBBAF1100FF5D12DE31020B1
:1034B00001F0CAFB4FF0000A674B33F90A000AF12A
:1034C000020A01F0C4FBBAF1100FF5D11DE3102080
:1034D00001F0BAFB584BDFF8A8A1D87A01F087FBBE
:1034E0005E4B187801F083FBDAF8000001F0B9FBBD
:1034F000DAF80400DFF88CA101F0B3FBBAF902019D
:1035000001F0A5FBBAF9040101F0A1FBBAF9200111
:10351000C1E2DFF874A1062001F096FBBAF90000C1
:1035200001F095FBBAF9020001F091FB4C4B07E06A
:10353000062001F089FB4B4B186801F092FB4A4BC7
:10354000B3F90000A7E2DFF83CA1072001F07CFB03
:10355000BAF83C004FF6FF7BFF28A8BFFF20C0B29F
:1035600001F045FBDAF850005845A8BF584620EA5C
:10357000E07000B201F06BFB3C4BB3F9000001F0CE
:1035800066FB2E4BDAF8440093F80A310028B8BFE6
:1035900040422BB10A2358435845A8BF584602E081
:1035A0005845A8BF584600B275E2DFF8C4A007200E
:1035B00001F04AFB9AF81F0001F019FB9AF820006D
:1035C00001F015FB9AF8230001F011FB9AF8240092
:1035D00001F00DFB9AF8250001F009FB9AF8210093
:1035E00001F005FB9AF8220036E11E2001F02CFBC9
:1035F000DFF898A00AF10A0B0AF1010A9AF8010013
:1036000001F0F5FA9AF80B0001F0F1FA9AF81500BA
:1036100001F0EDFADA45EFD177E22F2001F014FB4B
:10362000DFF86CA01AF8010F002800F06E8201F09C
:10363000DEFAF7E7C2040020A80600209018002058
:103640000C0000C0040000C03F0D00202C00002032
:10365000820000204A1C00201407002000020020E5
:10366000CC010020E4010020D4030020C60100208A
:10367000641C00207C040020B0040020AC02002068
:1036800018020020380C00209C030020631C00203E
:103690009F0501089BF81C319A4580F03682C54B86
:1036A0001AF80320C44B0AF1010A03EB4203B3F9F1
:1036B000460001F0CCFAEDE7824408F10108BF4969
:1036C00091F81C0180450CDBBBF1000F00F01D825E
:1036D0005FFA8AF001F0B8FA4FF0000B4FF00008E3
:1036E000EDE701F20711B64818F801104FF00C0E83
:1036F0000EFB0101496B084604910AF090F88446DC
:10370000BBF1000FD8D159466145D6DA049A505C16
:103710000291CDF80CC001F06AFA0299DDF80CC0F4
:103720000131F1E7A74AA3495244127A1BF801007C
:10373000904203D1019301F05AFA019B0AF10C0A5D
:10374000BAF1FC0FEED10BF1010B93F81C2193455C
:1037500080F0DB814FF0000AE4E7DFF894A2162046
:1037600001F072FABAF91A0101F071FABAF9D0004F
:1037700001F06DFADFF840B2BAF9D20001F067FA51
:10378000BAF9D40001F063FABBF9BA0001F05FFAAC
:103790009AF82A0101F02BFA9AF82C0101F027FA85
:1037A0009AF82D0101F023FA9AF80A0101F01FFAA4
:1037B0009AF8240101F01BFA002001F018FABBF975
:1037C00028000A2390FBF3F001F041FA9AF80B016C
:1037D00001F00DFA9AF80D0101F009FA9AF80C01BE
:1037E00001F005FA37E0082001F02EFA4FF0010A47
:1037F0005FFA8AF00AF1010A01F0F9F9BAF1090F4A
:10380000F6D182E101F04FFC03461220019301F052
:103810001BFA019B0BB96C4A02E0102B05D16B4AD5
:10382000D2F800B0D2F804A002E04FF0000AD3466C
:10383000184601F0DCF9584601F013FA504601F041
:1038400010FA634B186801F00CFA002001F0FFF940
:10385000002001F0FCF9002001F0C9F955E101F068
:1038600022FC834601F034FC039001F031FC01900E
:1038700001F02EFC824601F021FC01F01FFC01F05A
:1038800012FC039A019BBBF1000F0FD14E4981E856
:103890000C00504B012283F807B01A73BAF1000FE5
:1038A0003FF4D2AC4A4BC3F800A0CDE4BBF1100FFB
:1038B0007FF4CAAC454981E80C00BAF1000F02D090
:1038C000434BC3F800A04148434B0222011D1A702C
:1038D00004F03EF9B8E43F4B5B78002B7FF4B4ACC6
:1038E000012006F04BFEAFE43A4B5B78002B7FF4EF
:1038F000ABAC3A494FF4C8730B80A5E4354B5A780A
:10390000002A7FF4A1AC01229A739DE4314B93F815
:1039100001A0BAF1000F40F0F4805046012106F0FA
:103920003DF8504691E42E4B33F90A000AF1020AA1
:1039300001F08DF9BAF1080FF5D1E6E0DFF878A0D3
:10394000042001F081F9BAF92C0001F080F9BAF9EC
:103950002A00A0E00C2001F077F9224B186801F052
:1039600080F9214B186801F07CF9204B1868C5E0FC
:1039700093F82E21934580F0C880DFF878A01AF8DC
:103980000B00019301F033F90AF1100212F80B0059
:1039900001F02DF90AF1200212F80B000AF1300AA9
:1039A00001F025F91AF80B0001F021F90BF1010BD8
:1039B000019BDDE73F0D0020641C0020380C002037
:1039C000A0050108D0050108040200201002002013
:1039D000E0010020A80600200C020020401D00206D
:1039E0005E0D0020E8F7FF1FECF7FF1FF0F7FF1F49
:1039F00090180020670D0020002001F025F901F04B
:103A000052FBDFF824A10023CAF808308AF8050029
:103A100001F05EFBDAF808301843CAF8080001F03C
:103A200042FB8AF8170101F049FBAAF8E60001F011
:103A300045FBAAF8E80001F041FBAAF8EA0001F012
:103A40003DFBAAF8060101F039FBAAF808015CE089
:103A5000DFF8D4A0102001F0F7F89AF8050001F083
:103A6000C6F8DAF8080001F0FCF89AF8170101F03E
:103A7000BEF8BAF9E60001F0EAF8BAF9E80001F098
:103A8000E6F8BAF9EA0001F0E2F8BAF9060101F045
:103A9000DEF8BAF9080101F0DAF836E0082001F0A2
:103AA000D3F84FF0000A204B534493F80F010AF16A
:103AB000010A01F09CF8BAF1080FF4D125E001F0F9
:103AC000F2FA194B53440AF1010ABAF1080F83F8CC
:103AD0000F01F4D119E0132001F0B6F84FF0000AFD
:103AE000124B13F80A000AF1010A01F080F8BAF14A
:103AF0000B0FF5D1002001F0B4F8002001F0B1F86F
:103B000003E00120002101F081F8D9F80030187994
:103B100001F06DF8D9F80030002283F84920FFF752
:103B2000DDB80137FFF7BDB890180020CE140108AA
:103B30009AF80030002B40F00284B368180540F179
:103B4000FE83CE4B1B78002B00F0F98301F04EFD75
:103B5000002800F0F483CA4B93F84131002B40F069
:103B60008281C84BD86801F038F8002840F07B818A
:103B7000C54FD4F874113A68C44B511A7C29B84621
:103B800040F27181C3F8742193F87821074601321D
:103B900083F8782107F12400C0B201F0E3F8BC4BB0
:103BA00033F9170007F036FCBA4B8246188807F045
:103BB00031FC0146504607F035FDB74907F07EFC61
:103BC00007F042FE013700B201F0F8F8032FE1D10F
:103BD000302001F0C7F8B14BB3F9000001F0EEF866
:103BE00001F0CEF894F8780110F0030B2CD1DFF837
:103BF000BCA2102001F0B6F8DAF80030642793FB7D
:103C0000F7F000B201F0DAF8212001F0ABF8DAF8B1
:103C1000003093FBF7F007FB103787EAE770A0EB63
:103C2000E77000B201F0CAF8142001F09BF89C4B39
:103C3000B3F9000001F0C2F81C2001F093F85846D7
:103C400001F0BCF801F09CF894F878318F4F5907D7
:103C500040F0E380022001F085F8B7F97A014FF0D7
:103C60000A0A90FBFAF001F0A9F8B3689A0760D548
:103C7000BB8F4FF06E0B0BFB03FB15239BFBF3FB82
:103C80003A2001F06FF81FFA8BFB6422BBFBF2F9BC
:103C90000FFA89F0039201F091F83B2001F062F8ED
:103CA000039A02FB19B080B20530DFF804B290FB32
:103CB000FAF000B201F082F89BF80030BA8F40F6BB
:103CC000340192FBF3F24A432A21B2FBF1F2B7F836
:103CD0007C1191FBF3F003FB10131B019BB243EA31
:103CE00002239BB2C2F3032243EA0209062001F039
:103CF00039F80FFA89F001F061F8B7F87C219BF8E8
:103D00000030013292B292FBF3F103FB1123282021
:103D1000A7F87C3101F026F8786C90FBFAF000B23D
:103D200001F04CF8042001F01DF8B7F9500001F043
:103D300045F82B689B066ED5DFF878A1594FDAF865
:103D400000303C2183EAE37CACEBE37C564B132050
:103D50009CFBF3F207FB02CC01FB0CF9029199FBEF
:103D6000F3FB0193039200F0FDFF039A02EB820242
:103D700002EB82020BEB820007FB0B9B00B201F00F
:103D80001DF84FF47A791B2000F0ECFF9BFBF9F053
:103D900000B201F013F8232000F0E4FFDAF800206D
:103DA000002AACBF4E20532001F008F8DAF80420B6
:103DB000019B82EAE27BABEBE27B9BFBF3F207FB2E
:103DC00002BB0299122001FB0BF1039291FBF3FB62
:103DD000029100F0C7FF039A02EB820202EB82021B
:103DE0000BEB820000B200F0E9FF1A2000F0BAFFEE
:103DF000029907FB0B1191FBF9F000B200F0DEFF16
:103E0000222000F0AFFFDAF80430002BACBF4520D1
:103E1000572000F0D3FF00F0B3FF94F87831282B3F
:103E200021D11A4B0022D8F8007083F878214FF482
:103E30007A73B7FBF3FA17203C2700F093FFBAFB25
:103E4000F7F9B9FBF7F007FB1090000200B200F0A1
:103E5000B5FF182000F086FF07FB19A000B200F0A4
:103E6000ADFF00F08DFF96F84131012B31D096F86F
:103E70004131022B40F06382F4E000BF290C0020A6
:103E800090180020D00500208C180020380C00204D
:103E90007C0400202C00002000007A44D403002081
:103EA000CC010020806967FF80969800B403002051
:103EB0002800002018020020F86800F089FE8146E2
:103EC000052001F046F8B9F18A0F09D12B689F0649
:103ED00036D4C74FF86800F080FE0028ECD1C6E762
:103EE000B9F18E0FF5D100212E22C24809F075FCE0
:103EF0007C2384F8AA31E02384F8AD317D2384F853
:103F0000D631A38F84F8AB91DAB21B0A84F8C93199
:103F100084F8BF31142384F8C23184F8C3314FF4DC
:103F2000FA73A4F8C4314823A4F8CC31782384F878
:103F3000C82184F8BE2184F8CE31AE482E218EE00F
:103F4000AD4F002107F5BF702C2209F046FC7C2301
:103F500084F87E31A02384F881317D2384F8A9314F
:103F6000A64B84F87F911B7884F89831A44BDB7AB8
:103F7000002B6FD0A349662387F8A7310B68DFF8C1
:103F8000A8C2DA0F87F887219F4A4FF0060E93FBED
:103F9000F2F0C0B20CFB00390EFB09F942F21073CB
:103FA000B9FBF3FA00EB800003FB1A9949685FFA4A
:103FB0008AFA00EB80000AEB800080B291FBF2F2FB
:103FC000D2B287F88801000A87F88901C80F0CFB74
:103FD00002110EFB01F187F88C0102EB8202B1FBAA
:103FE000F3F003FB101302EB8202C0B200EB82027B
:103FF00092B287F88D21120A87F88E2187F88F31C7
:10400000B7F804211B0A87F890316423B2FBF3F35D
:1040100003EBC3039B009BB287F885311B0A87F82B
:104020008631B7F8223187F88A9187F891311B0AD7
:1040300087F89231B7F802314FEA192987F893319E
:104040001B0A87F89431B7F8243187F88B9187F8E9
:104050009A3102E0202387F8A7316C482C2103F025
:1040600005FF36E794F8D831002B00F06881684BE3
:1040700093F8423113F0FB0F0DD0664BD4F8DC11EE
:104080001A6841F28830511A81425B4B0FD90122E4
:1040900083F8E02153E1564EF06800F09EFD0028C1
:1040A000EBD0F06800F094FD03F00EFFF3E7D3F8D7
:1040B000E411521A042A40F2428193F8E821002ABE
:1040C00000F03D8193F8E911534A32F811601EB9AE
:1040D00083F8E9614FF4036694F8E931B6F5C06FEF
:1040E00003F10103DBB2444F84F8E93160D01DD8FD
:1040F000B6F5007F56D009D8B6F5807F55D0B6F515
:10410000887F40F01C813046444B9DE0B6F5806FBF
:1041100000F0AE80B6F5826F00F0E680B6F5047F61
:1041200040F00D81BB8F3046532102E1B6F5006FA0
:1041300041D00FD8B6F5E26F00F08E80B6F5E46F8F
:1041400000F08E80B6F5E06F40F0F980344BB3F9A3
:10415000001088E0B6F5036F07D0B6F5046F75D090
:10416000B6F5026F40F0EB80D8E02B68980640F17E
:10417000E680234BDB7A002B00F0E180B7F80401E6
:1041800007F044F906F0D6FD17A3D3E9002306F0A3
:1041900025FE07F035F809F0FFFD07F07BFB01462F
:1041A0003046C7E03046796CC4E030461D4B4BE0EA
:1041B0003046396DBEE02A68910640F1C080104A51
:1041C000D27A002A00F0BB8013F0010F0D4B2DD0E6
:1041D00059680029BCBF494241F0804141F000418B
:1041E0002AE000BFAFF300800AD7A3703D0AD73F93
:1041F000D0050020E20D0020380C00200002002035
:10420000A806002018020020A0860100B60D00209C
:10421000901800208C180020AE140108D403002050
:104220007C040020B40300206079FEFF1968002997
:10423000BCBF494241F080414FF4006004F0A4F853
:10424000002384F8E8317AE0196873E04D4B30467A
:10425000B3F900100A2308E04B4BB3F9021002E057
:10426000494BB3F9041030462C2391FBF3F161E084
:1042700097F8EA3142F210710133DBB2032B87F871
:10428000EA3184BF012387F8EA3194F8EA315943CF
:104290003E4B1A7802B101315A7802B10231DA7814
:1042A00002B10A311A7902B114315A7902B164317A
:1042B0009A7902B1C831DA7B0AB101F5C8711A7A6C
:1042C0000AB101F57A71DA790AB101F5FA615B7A1E
:1042D0000BB101F57A614FF4806004F055F82C4B76
:1042E000002283F8E8212AE0296811F020090ED085
:1042F000264B4FF4FA61DA7A1B7B30464B434FF47E
:104300007A7101FB0231234B1B78194412E03046CD
:10431000494604F039F887F8E89110E02B689A06CE
:104320000DD51A4BDB7A53B1B7F8023130464FF452
:104330007A71594304F028F8002387F8E8312B6894
:104340009B0616D5144A1368D4F8EC219A1A002A51
:104350000FDB104A1278042A0BD90D4A03F51233E9
:1043600003F5F873C2F8EC310C4BDA6882F01002F6
:10437000DA600B4B9B680BB10A4898470DB0BDE85B
:10438000F08F00BFCC0100207C040020A806002094
:10439000380C00200002002064010020000C0140C5
:1043A00030050020B20D0020084BDA68D10709D48F
:1043B000DA68520708D4DB6813F0100F0CBF042032
:1043C0000320704701207047022070470020024000
:1043D000B0F8400080B27047808F80B27047008F85
:1043E00080B27047808E80B270471C4BF0B51A784F
:1043F0001C46DAB11A4B1D781A4B1E7802231A4A52
:104400005F1CD15C294101F00F01062909D812F87F
:1044100003C0D75D02EB81020CEA060107EB012124
:1044200011610233102BEAD10023237006280F4AB2
:1044300003D80D4B93F82C1011B9B2F81A01F0BD46
:1044400010440B4990F80F21097803EB8203186997
:1044500001B1400800F5777080B2F0BD080100207E
:104460003C0700203D070020280E00209018002067
:104470003E070020044B184490F80F21034B53F8DB
:104480002200C0F3CF0070479018002040010020A8
:10449000064B074A184490F80F11B3F8183152F838
:1044A000210003EB500080B2704700BF901800203D
:1044B00040070020016B0346C26810B5406941B156
:1044C000196C541A005D013918BF0A46C0B21A644B
:1044D00010BD196A405C0131B1FBF2F402FB141209
:1044E000C0B21A6210BD436B13B190F8440070471C
:1044F000826A436AD31A584258417047036B13B11A
:104500005A68036C01E0026AC369D01A18BF01201F
:1045100070477047034B4FF4805208B11A617047DF
:104520005A61704700080140034B4FF4805208B1B4
:104530005A6170471A61704700080140014B33F817
:104540001000704714070020034B184490F80F2107
:10455000024B33F812007047901800208812002098
:1045600003799B070AD5436A8269D154426A036979
:104570000132B2FBF3F103FB11234362704703796D
:1045800013F001030BD0026AC3699A4205D09CBFA5
:10459000C0681218D31AD8B2704700207047184666
:1045A0007047037910B513F0010304460ED0FFF7EE
:1045B000E6FF60B1E3696269D05CE268C0B2013ACB
:1045C000934234BF01330023E36110BD184610BD90
:1045D000426A806A131A5842584170470171704705
:1045E0007047034B53F820301B681980704700BF99
:1045F000BC060020074BA1F57A7153F820304FF428
:104600007A701A689B884B4393FBF0F39BB213803C
:10461000704700BFBC060020034B4FF480521A8045
:1046200008B1024B187070472C0000206C0000206D
:10463000064B1A78064B12B14FF4FF6201E04FF4BB
:1046400080521A8008B1034B187070478410002004
:104650002C000020580000202DE9F04F504A514E08
:104660001768738984463089A7EB032785B00391C7
:1046700087FB0001B288CB111404C209F08842EA1A
:10468000416287FB000114EB020872884FF00005BD
:104690004FEAC2344FEA1022B08945EB030942EADF
:1046A00001620B1287FB000114EB020A4FEAD052A1
:1046B00042EA41224FF0000545EB030B12F5FA6088
:1046C0004FEAE15343F10001CDE90001B0F5FA6F83
:1046D00071F1000147DAA2FB024502FB03F1052656
:1046E00005EB4105A4FB060106FB05114D104FEA41
:1046F0003004B8EB040869EB050984082A4844EA49
:1047000081748D104FF0FF31BAEB040A6BEB050B8F
:10471000DDE9004584428D4125DA40F6AC5012189F
:104720004FF0000143EB010302FB03F1A2FB022364
:104730006FF0060003EB4103544200FB0344A2FB6D
:10474000000118EB000821444FF00B0449EB01096C
:10475000A2FB040104FB031149104FEA3000BAEB3D
:10476000000A6BEB010B114B1A68A2FB0A0102FB5A
:104770000B11420D42EAC1224B15B2EB080263EB6A
:104780000903D00B40EA4340BCF1000F01D0CCF844
:104790000000039808B10099016005B0BDE8F08FF2
:1047A000881000209405002024FAFFFF8C100020C0
:1047B000324B2DE9F0411C88314B0A265A89B3F956
:1047C0001250A41A1A89ED025443B3F91420E413C9
:1047D000224495FBF2F22244DA615643A2F57A6252
:1047E00002FB02F4B3F90480B3F902C0B3F90E700E
:1047F00002FB0CFC02FB08F2B3F90C8024136743A4
:1048000004FB08F4241404EB62320232DC889210B8
:1048100002F50042B3F920506243B3F900304FEA89
:10482000EC2404EBE72404EB8304AC40154B023486
:104830001B68D20BA3EBA4044CF250332B4163430F
:1048400055BF5B00B3FBF2F3B3FBF2F35B001A124C
:10485000524340F6DE3462430B4C08365C4324146A
:1048600004EB224202F6CF62361103EB221300B1B1
:10487000036001B10E60BDE8F08100BF9810002018
:10488000580500209410002043E3FFFF38B50C6862
:104890000546204608F0C3FF214602462868BDE8C9
:1048A000384008F0C5BF10B50446FFF77DFD01286C
:1048B00006D11CB1FFF778FD013CF8E7052010BDDB
:1048C000002C08BF052010BD38B505464FF4302038
:1048D000FFF7E9FF042812D1094C4FF43020236977
:1048E00043F0020323616561236943F040032361C0
:1048F000FFF7D9FF226941F6FD731340236138BDEC
:104900000020024070B5104C064604EB81140025CF
:104910000E4A308A2A445388B189034289B20CD0A6
:104920000B420AD0DB439BB2338230465368984730
:10493000A36801460BB1207B98470835202D04F170
:104940001004E5D170BD00BF8811002008070108E0
:1049500010B5104B4178DB688478DB43C3F3022346
:10496000C3F1040201FA02F20F21D94021401143A0
:10497000094B02780901C9B21A4482F8001302787F
:104980000120510902F01F0200FA02F243F821202F
:1049900010BD00BF00ED00E000E100E0013A2DE9AC
:1049A000F8430C46072A30D8DFE802F004080C125E
:1049B000191E222603880B8043880DE043880B8054
:1049C000038803E003885B420B8043885B4203E07B
:1049D00043885B420B8003886380838814E00388EC
:1049E0005B420B8043880CE043880B80038808E01F
:1049F00003880B80438803E043885B420B80038875
:104A00005B42638083885B42A380304B1B78002B22
:104A10005AD1B4F9000006F0FDFC8046B4F902005A
:104A200006F0F8FC0746B4F9040006F0F3FC284D44
:104A300006462968404606F041FDE9688146384649
:104A400006F03CFD0146484606F030FCA969814667
:104A5000304606F033FD0146484606F027FC09F0D3
:104A60005DF969682080404606F028FD2969814685
:104A7000384606F023FD0146484606F017FCE96972
:104A80008146304606F01AFD0146484606F00EFC07
:104A900009F044F9A9686080404606F00FFD696995
:104AA0008046384606F00AFD0146404606F0FEFB09
:104AB000296A0746304606F001FD0146384606F0F1
:104AC000F5FB09F02BF9A080BDE8F8832900002050
:104AD000080500202DE9F041069C002B06460F46F4
:104AE0000CBF4FF020084FF03008234613F8011B8D
:104AF00009B9154603E0002AFBDD013AF6E7002D6F
:104B000004DD30464146B847013DF8E714F8011B83
:104B100011B13046B847F9E7BDE8F081F0B501249E
:104B2000B0FBF4F58D4201D34C43F9E70026DCB12C
:104B3000B0FBF4F504FB1500B4FBF1F41EB9002D35
:104B400001DC002CF3D1092D03F101075FFA85FC8C
:104B500004DD002A0CBF5725372500E030256544C9
:104B60001D7001363B46E2E71C70F0BDF0B5012434
:104B7000B0FBF4F58D4201D34C43F9E70026DCB1DC
:104B8000B0FBF4F504FB1500B4FBF1F41EB9002DE5
:104B900001DC002CF3D1092D03F101075FFA85FC3C
:104BA00004DD002A0CBF5725372500E03025654479
:104BB0001D7001363B46E2E71C70F0BD08B5036886
:104BC0005B69984708BD08B50368DB68984708BD6E
:104BD00008B503689B68984708BD08B503685B681B
:104BE000984708BD08B503681B68984708BD38B5E5
:104BF000054D04462B6821461868FFF7F3FF2B6824
:104C00001A7954401C7138BD4400002038B5044660
:104C100024200D46FFF7EBFF4D20FFF7E8FF002CA7
:104C2000084C0CBF3E202120FFF7E1FF2368002243
:104C300028461A71FFF7DBFF236893F84600BDE8AA
:104C40003840D4E74400002001460020DEE710B5DC
:104C50000446C0B2FFF7CBFFC4F30720BDE8104005
:104C6000C5E710B50446C0B2FFF7C1FFC4F3072083
:104C7000FFF7BDFFC4F30740FFF7B9FF200EBDE803
:104C80001040B4E7014B1868ACE700BFD005002026
:104C900010B5441E14F8011F21B1034B1868FFF72B
:104CA000A1FFF7E710BD00BFD0050020F8B5184BF5
:104CB0001B78042B28D1174B08221A6110221A6185
:104CC000154CA068FFF789FF58B1124D08266E6198
:104CD000A0682768FFF77CFF01463846FFF782FF90
:104CE0002E6120680C4EFFF778FF0028E8D0094CB1
:104CF000102565613068B768FFF76AFF01463846DE
:104D0000FFF770FF2561DBE70448BDE8F840BFE727
:104D100060070020000C0140D00500208915010823
:104D20000048B5E7AF150108A0F17D03012B70B570
:104D300004460D460A4E05D8F0687D21FFF752FF64
:104D400084F02004F0682146FFF74CFF35B12B8832
:104D50001C4404EB142404F0FF042C8070BD00BF3D
:104D6000D005002038B5054C05465E21E068FFF708
:104D700039FFE0682946BDE8384033E7D005002018
:104D8000014B5E21D8682DE7D005002010B50A4CF4
:104D90005E280146E06805D15D21FFF723FFE0684A
:104DA0003E2105E05D2903D1FFF71CFFE0683D21AE
:104DB000BDE8104016E700BFD005002010B504463E
:104DC000C0B2FFF7E3FFC4F30720BDE81040FFF7D0
:104DD000DDBF08B5014B1B68984708BD441D002086
:104DE00010B5094A094913688C6812689342F8D1D2
:104DF000074A106811684FF47A725043001BB0FBE9
:104E0000F1F002FB030010BD8C18002010E000E060
:104E1000E804002038B5124C0123054684F82C30F4
:104E2000FFF7DEFF236B41F28832C31A93426363BC
:104E300084BF002384F8383094F83830EDB20F2B5B
:104E40002063E55406D1074B01221A70064B00225D
:104E50001A8038BD024A013382F8383038BD00BFAD
:104E6000280E0020080100202401002010B504466F
:104E7000FFF7B6FF164AD36BD063C31AB3F57A6F48
:104E800084BF002382F8403092F8403023B9A82C28
:104E90001CD110490B7006E0022B02D10E490C7098
:104EA00001E0142B01D80D49CC540133DBB282F858
:104EB0004030094A127852000532934206D1044B21
:104EC000002283F84020034B01221A7010BD00BF5E
:104ED000280E0020260100203C0100202701002090
:104EE00038B50446FFF77CFF114B40F6C4115A6CED
:104EF0005864821A8A4284BF002283F8482093F8BB
:104F000048200AB90F2C11D10A480021017052B172
:104F1000094D182A154405F8014C04D1012283F8E3
:104F20004810027038BD013283F8482038BD00BFF8
:104F3000280E0020090100200A01002038B504468F
:104F4000FFF74EFF0546FFF74BFF401BA042FAD389
:104F500038BD10B504462CB14FF47A70FFF7EEFF60
:104F6000013CF8E710BD40F2DB14604308B50E4B7E
:104F700010221A6108225A61841E0B4B2046DA68FF
:104F800082F01002DA60DA6882F00802DA60FFF775
:104F9000E0FF0120FFF71DFF1920FFF7DAFF0020D7
:104FA000FFF717FFE9E700BF000C01402DE9F041D2
:104FB00006460F4690460025EBB2434518D2002422
:104FC000E3B2B3420FD20B4B0120DA68013482F016
:104FD0000802DA60FFF7FDFE3846FFF7BAFF00204F
:104FE000FFF7F7FEECE73C20FFF7B3FF0135E3E7FF
:104FF000BDE8F081000C01400A4B1A880A4B52B9F7
:105000009A7842B15A7862B901225A70074B1A88CD
:10501000074B1A8070475B781BB90220FF210122E1
:10502000C4E77047300C0020A8060020CC01002007
:10503000FE0100202DE9F0410F88002347FA03F21A
:10504000D2072BD58A7803F0070512F0100F18BF8E
:1050500091F803C002F00F0618BF46EA0C06AD0037
:105060004FF00F0C0CFA05FC06FA05F5DC0850F8B9
:105070002480282A28EA0C0C45EA0C0540F8245024
:1050800005D101229A40C46824EA020205E0482AB8
:1050900004D101229A40C4682243C2600133102B1C
:1050A000CCD1BDE8F081044B1B685A79511C597171
:1050B00013449879704700BF4400002010B5FFF7F3
:1050C000F2FF0446FFF7EFFF04EB002080B210BDB3
:1050D00010B5FFF7F3FF0446FFF7F0FF04EB0040C5
:1050E00010BD034B5A780AB100225A70704700BFB6
:1050F000A806002010B50024084BE0B21B788342BC
:105100000BD9074B33F81010064B1B78834202D99A
:10511000054B1B6898470134EEE710BD481C002082
:105120004A1C0020BB06002010070020074B03EBA1
:10513000C003B3F87C301AB2112A04DC0728DCBFA4
:10514000034B33F8123018B2704700BF641C0020C4
:10515000140700202DE9F04F0C68836889B0D0F85F
:1051600000A0D0F804800646204603938B4608F042
:105170009FFD0746204608F035FEDBF804408146D7
:10518000204608F095FD0546204608F02BFEDBF88A
:10519000082004461046019208F08AFD019A8346D1
:1051A000104608F01FFE39460290584606F086F970
:1051B00039460490029806F081F959460590484610
:1051C00006F07CF902990690484606F077F92946E0
:1051D0000790584606F072F90146504606F06EF9FF
:1051E00021468346069806F069F90146059806F0BF
:1051F0005DF80146404606F061F90146584606F062
:1052000055F821468346049806F058F90146079858
:1052100006F04AF80146039806F050F90146584650
:1052200006F044F83060029905F1004006F046F9B6
:105230000146504606F042F921468346079806F09B
:105240003DF90146049806F02FF80146404606F065
:1052500035F90146584606F029F821468346059857
:1052600006F02CF90146069806F020F8014603984E
:1052700006F024F90146584606F018F821467060F9
:10528000504606F01BF92946044609F1004006F095
:1052900015F90146404606F011F90146204606F090
:1052A00005F839460446284606F008F901460398F1
:1052B00006F004F90146204605F0F8FFB06009B099
:1052C000BDE8F08F2DE9F84F374E04463768384671
:1052D00008F0EEFC0546384608F084FD7668804606
:1052E000304608F0E5FC8346304608F07BFDD4F8F4
:1052F000049006462946484606F0E0F8A76882462C
:105300004146384606F0DAF80146504605F0CCFF33
:1053100021688246584606F0D1F841460446484680
:1053200006F0CCF8314606F0C9F80146204605F0F3
:10533000BDFF31460446384606F0C0F8294606F05F
:10534000BDF80146204605F0B1FF0146504608F081
:10535000D7FD164906F0B2F805F0ECFC10A3D3E92E
:10536000002305F065FE124B044618680D4605F053
:10537000E1FC02460B462046294605F07DFB002253
:105380000C4B05F055FE05F03BFF08F0C7FC83B25F
:105390001A0444BF00F5B4739BB218B2BDE8F88F8D
:1053A000182D4454FB210940900400200000E144E2
:1053B000B80500200000244080EAE073A3EBE0730E
:1053C0008B4206DB002801DD401A704702D00844FA
:1053D00070470020704770B50546441E14F8011F41
:1053E00061B1074E304608F00DFA0028F6D0861B52
:1053F0000448631B304480F80F31EFE770BD00BFF5
:10540000701E0108901800200E4B1A78452A16D1FC
:105410005A88B2F56E7F12D11A79BE2A0FD193F84D
:10542000B6230020EF2A0CD113F8012B5040064A76
:105430009342F9D1D0F1010038BF0020704700201D
:105440007047704700F80108B8FB010808B5FFF77E
:10545000DBFF10B90A20FFF786FD0C4B0C491846FC
:105460004FF46E7208F0B0F990F8B423022A84BFAA
:10547000002280F8B42390F8B413D02202FB01017B
:10548000044801F5A27108F09FF908BD90180020AA
:1054900000F80108641C00202DE9F0410278034661
:1054A000202A00F10100F9D0092AF7D02D2A02D1D3
:1054B0000346414D04E02B2A08BF03464FF07E55BA
:1054C0001E460024334616F8012BA2F13007F9B22C
:1054D00009290DD83949204605F0F0FF0446384621
:1054E00005F098FF0146204605F0E0FE0446E9E796
:1054F0002E2A17D1314F334616F8010B3038C2B27D
:10550000092A0FD805F086FF394606F08BF80146C8
:10551000204605F0CBFE29490446384605F0CEFF6B
:105520000746E8E71A7802F0DF02452A38D15A78B0
:105530002D2A02D10233012604E02B2A14BF0133A5
:1055400002330026013B002713F8012F303AD1B275
:10555000092903D80A2101FB0727F5E7B7F59A7F48
:1055600028BF4FF49A77B8464FF07E51B8F1070F35
:1055700007D90846124905F0A1FFA8F1080801461D
:10558000F4E707F0070737B108460C4905F096FF26
:10559000013F0146F7E72EB1204606F043F804E04C
:1055A0004FF07E51204605F089FF0146284605F060
:1055B00085FFBDE8F08100BF000080BF00002041F2
:1055C00020BCBE4C70B50646B6FBF2F40846154644
:1055D00014B12046FFF7F6FF05FB1464024B1B5D78
:1055E00000F8013B70BD00BFF61501080E4B93F8A3
:1055F0004221B2B993F84121022A06D10B4B187807
:10560000D0F1010038BF0020704793F8433113B93F
:10561000074B587801E0074B187D003018BF012078
:1056200070470120704700BF90180020180E00201E
:10563000A8060020B001002090F83B3210B57BB9DD
:1056400090F83A3290F83922934209D201219940D8
:10565000B0F8404201332143A0F84012DBB2F3E737
:1056600010BD90F842321BB1D1F1010138BF0021C9
:10567000D0F834315A689B6809B11361704753619F
:105680007047F8B5101A0C461F4605F0C3FE0546D4
:10569000381B05F0BFFE184B079E196805F00EFF7A
:1056A00029460446284605F009FF214607462046BC
:1056B00005F004FF0146384605F0F8FD08F0AAFDA4
:1056C0000E4905F0FBFE06F0BFF8069B2146186068
:1056D00005F1004008F014FC094905F0EFFE094906
:1056E00005F0E4FD06F0B0F80028BCBF00F50C4062
:1056F000A0303060F8BD00BF480000202C7D8E3FF8
:10570000A00CB34500A00C4610B505F083FE0021A7
:10571000044606F08FF808B1204601E004F100408D
:10572000054905F07FFF054905F0C8FE08F0C0FAFD
:10573000034B186010BD00BF8096184B35FA8E3CA5
:105740004800002010B50B4CE37A8BB10A4B1B7854
:10575000042B0DD9094A0A4B1068526818605A6028
:10576000FFF7D2FF074B1A88074B1A8001232373D8
:1057700010BD00BFA8060020000200201802002073
:1057800004020020CC0100203810002044F25063B5
:10579000984203DDA0F50C40A0387047034B9842B7
:1057A000BCBF00F50C40A030704700BFB0B9FFFF90
:1057B00070B5204C204D607905F028FE1F4905F09A
:1057C00031FF2860E07B05F021FE1C4905F02AFF2F
:1057D0001B4E6860EE60A07905F018FE194905F0CF
:1057E00021FF194D2860207C05F010FE134905F0BB
:1057F00019FF6860A07E05F009FE144905F012FF4C
:10580000EE60A860E07905F001FE0E4905F00AFFA0
:105810000F4D2860607C05F0F9FD084905F002FF96
:105820006860E07E05F0F2FD084905F0FBFEEE60E1
:10583000A86070BD641C0020F40F00200000C84266
:105840000000FA44000020410410002000007A44C7
:10585000281000202DE9F047304A002392F820500C
:10586000D47F03FB03F01938684300F6C410584393
:10587000604340F6C41190FBF1F0294921F8130070
:105880000133072BEDD192F8213092F82260254A9E
:10589000C3F1640CB2F8D050B2F8D29003EB830796
:1058A00058425FFA8CFC7F00C6F16408C5EB090919
:1058B00080B2002284B221B2002904DC002C14BF83
:1058C0001C46012400E0644601FB01FA64430AFB24
:1058D00006FA9AFBF4F444444C434FF00A0A94FB52
:1058E000FAF43C4424B204FB09F44FF47A7194FBBB
:1058F000F1F40D492C44545202325044182A80B21B
:10590000D8D1064BBDE8F0471B78012B18BF074ADA
:10591000074B08BF074A1A604AE700BF641C002013
:10592000380C002090180020500C0020898D0008B1
:1059300010000020ED8F0008084B9A8998811A8981
:10594000D007FCD5054B9889C0B2044B1A89910742
:10595000FBD51A891206FCD4704700BF00380040FE
:10596000044B1B78834204D9034B53F820301B6847
:1059700019807047EC060020F00600200328104B29
:105980000BD8104A12888A4207D2012202FA00F08C
:1059900093F84920104383F8490093F849300F2BBE
:1059A0000CD1074B002283F84920074B198808B215
:1059B000142802DD1439198070471A80704700BF1F
:1059C000280E00202E00002024010020144B10B5CA
:1059D000B3F84A20A3F84A10891AA3F84C2089B2D8
:1059E00040F68C2291421C4603D9002283F84E20B7
:1059F00010BDA1F2EF2292B240F2DA539A4208D8D7
:105A000094F84E00072804D8064B23F81010FFF72F
:105A1000B5FF94F84E30013384F84E3010BD00BF0E
:105A2000280E0020881200202DE9F04F9B4B95B0E6
:105A300093F82A31C4B2012B00F0E78002D3022B85
:105A400040F0C885242C964D0CD006D80A2C00F0C6
:105A50008C800D2C00F08980C3E02A2C07D02C2CE0
:105A600005D0BEE000232B706B70AB70CAE06A7883
:105A70002E782A4400218A4BD170EEB9DA789E74D0
:105A8000472A19D11A79502A16D15A79472A07D1AB
:105A90009A79472A04D1DA79412A01D101229A74EC
:105AA0006A797F4B522A07D19A794D2A04D1DA7943
:105AB000432A04BF02229A74AB7C794F012B02D097
:105AC000022B33D046E0B31E072B43D8DFE803F0A8
:105AD000040810141C24422903F00AFF686139E00D
