:020000040800F2
:10000000005000209DDA000849DB000875AB0008AD
:1000100049DB000849DB000849DB0008000000005C
:1000200000000000000000000000000049DB0008A4
:1000300049DB00080000000049DB000851AB000864
:1000400049DB000849DB000849DB000849DB000800
:1000500049DB000849DB000849DB0008D5AB000894
:1000600049DB000849DB000849DB000849DB0008E0
:10007000E5AA000849DB000815AB000849DB0008C9
:1000800049DB000849DB000849DB000849DB0008C0
:1000900049DB000849DB000849DB0008D1AB000858
:1000A00049DB000849DB000849DB0008C3AB000856
:1000B000B9AB0008ADAB0008A1AB000871AB0008FC
:1000C00069AB00086DAB000865AB000849DB0008B0
:1000D00049DB0008A1AA00082DAA0008F5A900081C
:1000E000D9AB000849DB000849DB0008000000002C
:1000F0000000000000000000000000000000000000
:0C01000000000000000000005FF808F1A3
:100110002DE9F04F854D95B0AB68854C13F0080183
:1001200000F0868095F81721042A00F28380DFE82A
:1001300002F003030550750023787CE060787C4A68
:10014000002877D000209E05507002D5137E180736
:1001500070D4E0780023A27800F00706A383754BE3
:1001600042EA06221A60227902F03F06760146EA48
:10017000D00058606079800040EA9210A27902F0C5
:10018000010640EA86209860E07900F00F06F6014B
:1001900046EA5202DA60227A02F07F06360146EA27
:1001A00010101861607A400040EAD212A07A00F084
:1001B000030642EA46225A61E27A02F01F06B601BD
:1001C00046EA90009861207BC00040EA5212DA6152
:1001D0002CE0A27F564B6AB393F82000002201283E
:1001E0009A7727D19A8393F83420082A84BF08226B
:1001F00083F8342094F834004F4A0023DEB286425C
:1002000002F1020212D212F8016C12F8027C46EAE4
:1002100007274A4E46F823700133EFE794F8583029
:10022000434A00203BB1908382F85800012302E04A
:100230000B4600E00023E26D206E101A002802DA5F
:10024000002B00F09B8302F59C4220322266DFF8EF
:1002500004A13B4E00293CD13A4F89468846DAF842
:1002600000305FFA88F09847A0F2EE2292B240F296
:10027000DC539A42D4F8A420334B88BFB5F81C0154
:100280001340002B03DA013B63F0030301332849D9
:1002900003EB880301EB4303A3F8640039887B88F0
:1002A00008F101080B44B988B8F1080F0B44F9882C
:1002B00007F108070B441BB24FF0040193FBF1F365
:1002C00026F8093009F10209C9D10132C4F8A42085
:1002D00009E00027F8B2DAF80030984726F817004E
:1002E0000137082FF6D1AB68590404D594F8A8302B
:1002F0000BB904F0E0FE95F826210C4B62B30332F3
:1003000036F91200A0F57A70B0F57A7FA8BF4FF4E5
:100310007A7020EAE0700BF045F90C490BF04AFACC
:100320000B490BF093F90BF07DFB2AE0A418002099
:10033000080100204C0700202A0100204001002075
:10034000200700206C0100200300008000007A4498
:1003500000C07F444407002093F8270190B1A84AC9
:10036000D179A84A32F81100B3F82A2180B2801A54
:10037000B3F82831C0EB802090FBF3F000B280F39B
:100380000A0080B2AB68A4F8BE009A053FD59E4B28
:100390009E4AB3F81C9092F8B8300FFA89F703EB35
:1003A00083018F4290461EDDDFF868A29AF8012093
:1003B000CAB1974AB2F81C2132807280B280B8F874
:1003C000BA20F28098F8B920134403EB83039F42CC
:1003D00004DD04F070FE00238AF80030B4F8C03069
:1003E0000133A4F8C03098F8B83003EB83039F4280
:1003F00009DD884F97F80180B8F1000F03D104F0B0
:100400005AFE87F8008009F10109A4F81C90002227
:10041000B5F81E11B5F820711346B05E9B088842EE
:10042000C4BF63F07F03DBB20232B842B8BF43F00F
:100430004003082AF1D194F8C200734A984205D1CA
:1004400092F8C300F92804D8013000E0002082F8B7
:10045000C30084F8C230AB686D4A13F480436B4F1D
:100460000CD0B2F81C11B2F8DC20B6F90630881AAC
:10047000834208DD0A44934207DB04E0B6F9062014
:100480008A4202DB16E0002314E00023C4F8D433D0
:10049000C4F8D833C4F8DC33C4F8D030C4F8D4304E
:1004A000B7F846302BB1584B93F8A830002B42F0E8
:1004B000A4800123B7F846206AB194F8A82052B965
:1004C000544A52783AB195F8232112B104F0F3FD61
:1004D00001E0002BFAD194F8C3204B4B142A40F0D2
:1004E000B1804C4A50789046D0B1B7F846202AB92E
:1004F00093F8C2305F2B01D104F0DDFD95F8223175
:10050000002B00F09F80B7F84630002B40F09A8017
:1005100094F8C2307D2B40F0958004F0CCFD91E042
:1005200093F8C220572A15D13B4B4FF47A721A80A8
:10053000AB68DB0501D505F0F9F8384B1B685807A7
:1005400002D5374A0A21118013F0080326D1A4F8F6
:10055000C43023E0A968490717D55A2A15D193F862
:10056000C6202AB1012283F8C60083F8C72015E00F
:1005700093F8C82082F0010283F8C820294B0AB101
:10058000022200E003221A7008E05D2A02F03E8099
:100590005B2A02F053805E2A02F05280B7F84630A0
:1005A00033B994F8C2206F2A02D104F00FFD15E090
:1005B00095F8222122B11BB994F8C2307E2BF4D0D9
:1005C00094F8C230972B04D1174B4FF4C8721A809D
:1005D00004E0A72B04BF012388F80E3094F8C23042
:1005E000BB2B02D1BB8D023303E0B72B03D1BB8DF4
:1005F000023BBB851FE0BE2B18D17B8D023319E077
:10060000000500200805002008010020741C0020BF
:10061000A4180020B4060020440C00203805002057
:10062000460C0020451D0020501D0020BD2B09D187
:100630007B8D023B7B850120014609F065FD00238F
:1006400084F8C330D5F808E01EF0040F31D094F8D8
:10065000C820A14B8AB1A14A527872B1A04AB6F91A
:100660000610B2F81E21914207DD93F8A82022B9A6
:100670003221A3F8CA1083F8C82094F8B920964B09
:1006800062B193F8CC202AB993F8C62012B932226D
:10069000A3F8CA20012384F8CC300AE093F8C620DE
:1006A0003AB18E4A527822B983F8C620012283F8E3
:1006B000C7208C480123002130F8022F03F1FF3CB2
:1006C000A2F21556B6F5C77F8CBF002601269E40C4
:1006D00012B2314340F21356B242CCBF002601267B
:1006E00006FA0CF6314340F2A466B242D4BF0022AF
:1006F00001225E1CB240033311430D2B89B2DBD1C2
:10070000002307EB4306B6F84660734A31420CBF3C
:100710000026012602F1A8001E540133152BF0D14A
:1007200092F8A9306D4E704943B9704BB2F91C2054
:1007300093F8B83003EB83039A420CDD0B689A07F9
:1007400009D5F3784BB9C4F8D030C4F8D430634B32
:100750000122DA7001E00023F37094F8AA305E4AB7
:100760005BB10023F370337943B9C2F8D030C2F8DB
:10077000D4305A4B01221A7100E0337194F8A8303A
:100780000BB901233370F278594B12B9534A1279DD
:1007900012B110225A6101E010221A610A6853074F
:1007A00025D594F8AB104C4B99B1B17991B94B4820
:1007B0004FF0010C80F806C0D3F8DC00C3F8EC1051
:1007C000C3F8D800B3F8E800C3F8F010A3F8E000CD
:1007D00000E0B1711EF4005F09D094F8AC302BB189
:1007E000F37B23B93D4B0121D97300E0F37312F081
:1007F0000A0F20D094F8AD3037494BB1737943B923
:10080000364B01205871B1F8C430A1F8F43000E043
:10081000737194F8AE302BB1737A23B92F4B012149
:10082000597200E0737294F8AF102B4B19B1B3F802
:10083000C410A3F8F610900640F19180F27A274B8D
:10084000002A00F0878094F8F820DFF88C80042AD2
:1008500040F2808098F8B2208AB1DA79002A7ED1FD
:100860000121D9711A72234B08F1FC0008F580713F
:100870001A7005F0BDFA022388F804316FE0DA71CE
:1008800098F8B320002A37D0B8F9E210B7F8CC2096
:100890000029B8BF494291422EDAB8F9E410002984
:1008A000B8BF4942914227DA1A7A002A57D1012764
:1008B0001F72104B08F584701A70D8F8103108F5C3
:1008C0008671C8F80831D8F81431C8F80C3105F031
:1008D0008FFA88F8047142E008010020B406002075
:1008E000A41800202607002038050020741C0020D2
:1008F000000C014000000020934A0023337213785B
:100900006BBB012111701A46904F0020391D5052C7
:1009100007F1080107F10C0E5052002143F80E10A8
:100920009E44D053CEF80400CEF80810023207F1EE
:10093000340E5C3743F80E10D9519E441F44042AEC
:10094000CEF80400CEF808107860B96003F1140303
:10095000DAD104E00023F371337284F8043194F89F
:10096000B43003B10123B3726B79082B02D00E2B84
:1009700040F066840023737200F062BC744BD3F8BD
:100980009C31042B00F25C84DFE813F005008B003F
:10099000F8004C033E040123C4F89C316D4B6C4EAF
:1009A0001B6819077DD5D6F8A031D31A002B78DB48
:1009B000694B02F5C332A0325B6806F5D270C6F807
:1009C000A0219847654B06F5D2779A7B184692B1DD
:1009D000D6F8A0210023C6F8AC21E9180022A1F81E
:1009E000002116465E49FA5A5A5206315A520233CB
:1009F000062BF2D186735B4B1B78A3B1B4F8A4210C
:100A0000B5F80031D31AA4F8A431B4F8A621B5F88A
:100A10000231D31AA4F8A631B4F8A821B5F80431EC
:100A2000D31AA4F8A831D4F8AC31494A002B00F00D
:100A30000784D2F8A0114C48CB1A834202F5DB712F
:100A400002F5D87019D8494BDA6882F00802DA60EA
:100A50000023FA5A30F903E016B2B645C4BFDFF8F6
:100A600000E123F80E2031F903E0B645BCBF404E4B
:100A70009A530233062BECD1E2E30023C2F8AC31E7
:100A8000C75ECE5EEA183E4402273B4496FBF7F66B
:100A9000062BA2F80061F3D10120014609F034FBD6
:100AA000CEE3D4F89C312A4E0133C4F89C31294B53
:100AB0001B685B0762D5D6F8BC31D31A002B5DDB0F
:100AC000D6F8C031C6F8BC212A4F9BB13B69984784
:100AD0007B689847D6F8BC313A8806F5E270134433
:100AE000C6F8BC3106F5E4717B6998470023C6F867
:100AF000C031A5E3BB689847FB6898471E4AD6F803
:100B0000CC1192F831204B1C934208BF0023D4F83B
:100B1000C42104EB8101C1F8D021D4F89012C4F8AB
:100B2000CC310A4404EB8301D1F8D0010123121A1D
:100B3000C4F89022C4F8C0317A88D4F8BC31134488
:100B4000C4F8BC317CE300BF00000020200200207C
:100B50000801002038050020B0050020B406002060
:100B6000B8020020D80500207FC3C901000C014055
:100B7000BE02002088050020741C0020D4F89C319F
:100B8000B14E0133C4F89C31B04B1B685F0740F194
:100B9000498204F00FF9D6F8987246F2A713C71BE2
:100BA0009F42B6F896A2B6F894B240F23B82DFF8C4
:100BB000C892C6F89802B9F80030DFF8B8827BB363
:100BC00098F83100D6F89032D6F89C220138B3FB61
:100BD000F0F0082392FBF3F1521A1044C6F89C027D
:100BE00090FBF3F00AF0DEFC99490AF0E3FD994925
:100BF0000DF070FA01464FF07E500AF01DFC964948
:100C00000AF024FD0AF0E8FE0023C6F8A432C6F874
:100C1000A832B9F80030C6F8A002013BA9F80030AC
:100C200098F831000FFA8BFB0FFA8AFAD4F8903259
:100C3000BBF1000FB8BFCBF1000BBAF1000FB8BF8A
:100C4000CAF1000AD345A8BFDA460138B3FBF0F079
:100C50001FFA8AFACDF818A00AF0A0FC7C490AF025
:100C6000A9FD7C490DF036FA01464FF07E500AF09E
:100C7000E3FB79490AF0EAFC0DF038F9D8F8346062
:100C80008146D4F8AC020AF08DFC31460AF0DEFC55
:100C90008046D4F8A002C0EB09000AF083FC31467C
:100CA00081464FF07E500AF0C7FB014648460AF0E5
:100CB000CDFC014640460AF0C1FB0DF017F9DDF806
:100CC00018A083460FFA8AF8B8F1FA0F634E03DDD5
:100CD0004FF0FF33336014E030680AF063FC814664
:100CE00040460AF05FFC01465D480AF0A5FB01465C
:100CF00048460AF0ABFC5A490AF05CFD0AF06CFE6B
:100D00003060366806F1FF39B9F1C60F06D8C6EB78
:100D10000B03C4F8B032C4F8AC622FE0D4F8B032A0
:100D2000002EC3EB0B0BDFF820A1C4F8ACB225DD1D
:100D3000C6F596700AF036FC4A490AF03BFD80463B
:100D4000CAF8B40230460AF02DFC41460AF07EFC97
:100D5000064658460AF026FC414683464FF07E5030
:100D60000AF06AFB014658460AF070FC014630461C
:100D70000AF064FB0AF030FECAF8AC023A4B18687D
:100D800002930AF00BFC394906460AF05FFC8346E1
:100D9000D4F8C0020AF006FC8046D4F8C4020AF077
:100DA00001FC014640460AF005FD314A05901168F4
:100DB0000AF04CFC31460AF049FC2E4A4FF07C51B7
:100DC000D2F83CA0D4F8A482D4F8AC620790039285
:100DD0000AF03CFC59460AF039FC59468446404624
:100DE000CDF810C00AF032FCDDF810C001466046B4
:100DF0000AF024FBD4F8A8120AF020FB51460AF0AE
:100E000025FC834630460AF0CDFB514684464FF020
:100E10007E50CDF810C00AF00FFBDDF810C001467F
:100E200060460AF013FC014658460AF007FB039A95
:100E3000029BB9F1C60FC4F8A80291469A461DD884
:100E4000014AC2F8DC601EE00801002038050020DD
:100E500080E6C547B1DC423ED048874A40000020CA
:100E6000000061440000C842481D0020BD3786359F
:100E7000CC050020741C0020460C00200AF0ACFDBC
:100E8000B04BC3F8DC00079940460AF0D7FA034696
:100E9000D4F8C8024FF00008CAF80080C4F8B8823D
:100EA000C4F8BC82C4F8C082C4F8C482301A029369
:100EB0000AF078FBA4490AF0C9FB824638460AF0DA
:100EC0006DFB014650460AF075FC0AF085FD40F2C4
:100ED000DC529E499042A8BF10468842B8BF0846DF
:100EE0000A21C4F8C86204F053FA029BD9F83860AA
:100EF0008246314618460AF0A9FB074650460AF0DA
:100F000051FB314682464FF07E500AF095FA014679
:100F100050460AF09BFB014638460AF08FFAC4F8A7
:100F2000A4020CF0E3FF0521064604F031FA069F07
:100F3000DFF810B23BB2B3F5487FC4F8CC026BDAED
:100F40009BF8D0320BBBDBF8D820DBF8DC308048D4
:100F5000D31AB3F5FA7FA8BF4FF4FA738342A8BF40
:100F600018460A2104F014FA7A4B80221B79584360
:100F700090FBF2F3B3F5967FA8BF4FF49673A2F5FA
:100F8000D6729342B8BF134601E0DBF8D43299F829
:100F90000A209B1B5A43202192FBF1F299F814007E
:100FA000D4F8EC1042F2040603FB00106A4BB2F5D1
:100FB000967FA8BF4FF496729842A8BF1846674B19
:100FC0009842B8BF1846C4F8EC0090FBF6F0644EA7
:100FD000B242ACBF8618861999F81E000AF0E2FAF0
:100FE000D4F8D812074605980AF028FA0146384680
:100FF0000AF02CFB4FF06C510AF028FB0AF0ECFCD5
:101000006FF095039628A8BF96209842B8BF18465F
:10101000301AC4F8F00001E0CBF8F080059AC4F86B
:10102000D8220DE1D4F89C310133C4F89C31AB686F
:10103000DE0540F1E9804B4EB36863B94A4F3B7817
:10104000013B042B00F2FC80DFE813F011001100DB
:101050001100CD00B600B06803F0A9FD0028EDD066
:10106000404B986803F09EFD05F042F9F3E795F8D0
:101070002C91B9F1000F03D0B9F1010F09D098E01C
:101080007A783A4BB06803EB0213596803F085FD98
:101090008CE0B068DFF8CC8003681B6998470028B3
:1010A00000F087803B78304E022B2CD0032B35D0BC
:1010B000012B7ED12E4BD3F80090736AC3EB09034A
:1010C000632B76D9F369042B1BDCDFF8A0A0D8F8DA
:1010D00008000AEB0313596803F05FFD7378D8F832
:1010E00008800AEB03139E6816F8011B19B14046ED
:1010F00003F062FDF8E7FB69C7F824900133FB6158
:1011000057E0022053E07278184BD8F8080003EB40
:101110000213596803F041FD032048E03369012BB5
:101120002AD0022B42D0002B43D1326A114BC6F891
:10113000109053F8321003EBC2035B687161B36126
:1011400037E000BF080100200024744924FAFFFFA3
:101150000CFEFFFF741C002020031900E0FCE6FFDA
:10116000D4FEFFFFDC0500206C070020C40101084D
:10117000A0180020B0020108F369B269934209DAAD
:101180007269D8F80800D15C03F016FDF3690133E9
:10119000F3610EE0326A7B490132326251F832204B
:1011A0000023F36102B90223336102E0042006F058
:1011B00033FB00237B6043E07B68052201337B60C7
:1011C0007B7801200133DBB2B3FBF2F202EB820247
:1011D0009B1A7B706C4B6D4A1B68BB60002384F8C4
:1011E000F830D3720DE0684B1A68BB68D21A40F62B
:1011F000C4139A4224D9664B05201A6822F02002B3
:101200001A6006F009FB1BE00023C4F89C31604B18
:101210001B68D80614D55C4B1A685E4B19683C31C4
:101220008A420DD31A605C4F5C4A5D4B5D4EC3F839
:10123000DC223B880B20336103F06AFE3B8873613C
:1012400003F0B8FDAB89E06533B1554AD2F8E0222E
:10125000821A002AC1F20682534E1844C4F8E002F2
:10126000736852489847524B1A889946002A00F0F2
:10127000C0804E494FF0000801F108064746B9F812
:1012800000B04C4BBBF57A7F08D1A3F13C010A209A
:1012900000FB0711002243F808200A61434AD05F8F
:1012A00053F80820024443F808200AF07BF9336918
:1012B0000133012B336104D1002370603060B360CF
:1012C0002AE0D6F800C002936146CDF810C0039022
:1012D0000AF0B2F8029B824618460AF063F901460A
:1012E00050460AF067FADDF810C0014660460AF081
:1012F000A5F8039A034619467060104602930AF057
:101300009BF8014650460AF0A1F9B1680AF096F838
:10131000029BF0603360B0602448002300F1500A63
:10132000BBF1010FC35327F80A3055D130690128AA
:1013300007DD01380AF036F90146F0680AF03AFA9A
:1013400000E000200DF04EF8834695F8F60098B3C3
:101350000AF028F9014658460AF034FB60B34FF40E
:101360007A73A9F800300023C4F8FC32C4F81033B3
:10137000C4F82433C4F83033C4F82C33C4F8283309
:101380002AE000BFB0020108A0180020B406002027
:1013900038050020300C0020240C002040000020E4
:1013A00008010020000C01403C050020EC03002057
:1013B000440C002030040020B54B4FF47A7258F8EA
:1013C00003300A2003F5FA7393FBF2F32AF807308F
:1013D0000F21012203F0D4FD0237062F08F1040883
:1013E00006F114067FF44BAFB9F80030013BA9F8C1
:1013F00000300023A74E06F5397706F54D72F95AED
:101400009A5A8A1AFA520233062BF3D1A24B1B685E
:1014100013F0020300F09883A04BA14F06F23A307C
:101420005B689847388806F23A36002844D0002393
:101430001A46DFF888C2B0F5C87F04BF00214CF817
:10144000021036F903805CF80210DFF848E24144EC
:101450004CF80210002105EB0308F1520233062B71
:10146000DFF848C2A8F8FA1002F10402E1D101281D
:101470001FD1DEF840334FF4C872C83393FBF2F348
:10148000ACF8FA30DEF84433C83393FBF2F3ACF82F
:10149000FC30DEF84833C83393FBF2F2814B1B88F3
:1014A000D21A814BACF8FE2059859985014608F087
:1014B0002BFE3B88013B3B80AB687C4A59077CD5BF
:1014C000B4F8CA10734B322913D1B2F8FA00A3F85A
:1014D0004C03B2F8FC00B2F8FE20A3F84E03A3F8C8
:1014E0005023714A508D928DA3F85203A3F85423D0
:1014F00001E000293DD000221746DFF8C4E132297F
:1015000004BF00234EF807305EF8070036F902C02A
:1015100005EB020860444EF807004FF0000E26F875
:1015200002E00232062A5B4B6048A8F8FAE007F1B5
:101530000407E2D1012919D15D4A02261670B3F8D9
:101540004C2383F8CCE0A0F8FA20B3F84E2383F8BC
:10155000C610A0F8FC20B3F85023A0F8FE20524A91
:10156000B3F85203B3F85433508593850139A4F886
:10157000CA1094F8C720474BFAB1D3F85803322168
:10158000002290FBF1F083F8C720A5F8FA00D3F809
:101590005C03D3F8603390FBF1F093FBF1F1414B26
:1015A000A5F8FC001B880120C91A3F4BA5F8FE10C6
:1015B00001465A859A8508F0A7FDB4F83A23B5F894
:1015C000FA30D31AA4F83A33B4F83C23B5F8FC3017
:1015D000D31AA4F83C33B4F83E23B5F8FE30D31A3E
:1015E000A4F83E3303F0E6FBD4F864330646C31A8E
:1015F0001846069309F0D2FF2E4A0790D1680AF0E8
:1016000025F8294BC4F8646393F82E700890059769
:1016100000273E46BB46984627490DF12C0A885FB5
:1016200009F0C0FF08990AF011F8059A4AF8070076
:10163000002A49D0104609F0B5FF01464FF07E5010
:101640000AF0B8F8DFF87C90034619464FF07E5058
:10165000029309F0F1FE57F8091009F0F7FFA9F11C
:101660002E010246885F039209F09CFF029B1946F7
:1016700009F0ECFF039A0146104609F0DFFE49F835
:1016800007000AF0A9F909F10C0929F8060020E081
:1016900030040020080100203805002050050020FB
:1016A000501D00202C000020741C0020A4180020D5
:1016B000451D00203C050020EC03002048040020CC
:1016C0006004002070040020BF4BA3F13A02B25A1C
:1016D000F252BD4B0437F25E0236062E02FB02BB0D
:1016E000994699D1642303FB0BFBB84B09F1080021
:1016F0001B880BA95B439BFBF3FBABF1490B1FFA68
:101700008BFB03F011FDBBF13B0F6BD9B04BD4F851
:101710008463B3F9000009F045FF014630464FF0FD
:1017200001070AF04FF900B90746AA4B3146D4F831
:1017300080035F730CF0CCFC0746C4F88803D4F830
:101740007C03D4F884B300F10046D4F8800301464A
:1017500009F07CFF59468146584609F077FF01465B
:10176000484609F06BFE0CF03DFE014630460CF099
:10177000AFFC0646C4F88C03384609F0A3FB8EA3E1
:10178000D3E9002309F0F2FB09F002FE0CF0AEFBF6
:10179000A4F89402304609F095FB87A3D3E900230F
:1017A00009F0E4FB09F0F4FD0CF0A0FB8A4BA4F86F
:1017B00096021B681B076ED50BA9884803F0B4FC82
:1017C000B5F8F40009F0EAFE4FF07E51834609F0C7
:1017D00035FE01464FF07E5009F0ECFF4FF0000A55
:1017E00005902EE0B5F8F20009F0D8FE4FF07E51DA
:1017F000074609F023FE01464FF07E5009F0DAFF5C
:101800004FF0000B0646764B384653F81B100293F8
:1018100009F01CFF024639F90B00039209F0C2FEE1
:10182000039A0146104609F009FE314609F00EFF01
:10183000029B43F81B000BF1020BBBF1060FE2D138
:1018400064E7DFF8AC91584609F5647252F81A1053
:10185000039209F0FBFE09F5D271844631F90A00C2
:10186000CDF810C009F09EFEDDF810C001466046BC
:1018700009F0E4FD059909F0E9FE039A42F81A001F
:101880000AF1020ABAF1060FDBD1104603F004FD9B
:10189000A9F8C40044E0DFF85CB151460BF1040044
:1018A00003F042FCDBF80400DBF808300146DBF80B
:1018B0000CA0029309F0CAFE029B81461946184605
:1018C00009F0C4FE0146484609F0B8FD514681467C
:1018D000504609F0BBFE0146484609F0AFFD0CF04A
:1018E00081FD002181460AF045F8A0B9DBF804002B
:1018F000494609F05FFF4946CBF80400DBF80800D1
:1019000009F058FF4946CBF80800DBF80C0009F055
:1019100051FFCBF80C00334803F0BEFCA4F8C40020
:101920003149079809F092FE06F10046814607F119
:101930000047B4F9C4000F960E9709F033FE00F18A
:10194000004009F0BFFA1EA3D3E9002309F00EFB03
:1019500009F01EFD1090B4F9740309F023FE1190F4
:10196000B4F9760309F01EFE1290B4F9780309F079
:1019700019FE0EA9139011A803F0D6FB1B4B1C4EA9
:1019800093F84430012B37D1124B5B7873B9D6F8FA
:101990009C33402093FBF0F0181A09F003FE1399D2
:1019A00009F04CFD0AF018F8C6F89C03D4F89C33F3
:1019B000402093FBF0F021E03B597E90A9E7814065
:1019C000399D52A246DF913F7C0400202C0000206C
:1019D000C8050020B4060020380500209804002027
:1019E0008404002004000020BD378635741C0020CC
:1019F0000801002000000020B94B188809F0D2FD32
:101A00000146139809F018FDB64B13901968484623
:101A100009F014FD0146484609F0CCFED4F8A07345
:101A200081463946139809F007FD0146484609F0FA
:101A30000DFE0146384609F001FD0746C4F8A00333
:101A40001198D4F8B8920CF051FA98F8301003F0CD
:101A50009FFC4844C4F8B8021298D4F8BC920CF029
:101A600045FA98F8301003F093FC4844C4F8BC02DF
:101A70003846D4F8C0920CF039FA98F82F1003F0D9
:101A800087FC994B069F1A6848443A441A60D4F878
:101A9000C432964E0133C4F8C43298F87630C4F894
:101AA000C002002B56D0D6F87C03D6F880930146AE
:101AB00009F0CCFD49468046484609F0C7FD01467D
:101AC000404609F0BBFCD6F8847380463946384658
:101AD00009F0BCFD0146404609F0B0FC0CF082FC68
:101AE0000146384609F066FE8149074609F056FF6F
:101AF00018B10023A6F8A4332CE038460CF098FA6D
:101B00007C4B196809F0A2FD0CF0F0F9B0F5617F8B
:101B1000A8BF4FF4617009F0C3F96FA3D3E90023A4
:101B200009F04EFB09F034FC0CF044FA724B074606
:101B300093F8760009F036FD394609F087FD0CF080
:101B4000D5F9A6F8A40305E0A6F83A33A6F83C3385
:101B5000A6F83E336B79012B0ED1B4F9A623B4F964
:101B6000E83203EB4203032293FBF2F39BB2A4F8A7
:101B7000AC33A4F8A63303E0B4F8E832A4F8AC33ED
:101B8000B4F8E432594FA4F8A833B4F8E6325A4E08
:101B9000A4F8AA3303F00EF9584BE0651A681860F0
:101BA000821AA4F8AE2300F063FD554B196811F0BA
:101BB000080F34D0B7F8E62002F145039BB28A2B18
:101BC00029D8504B58799E4628B3B7F8F430B7F867
:101BD000C400C01A80B283B21FB2B337BCBF00F5D5
:101BE000B4739BB218B2B3289EF80D70C4BFA3F5AE
:101BF000B4739BB295F8EC008FB140B240424343BE
:101C0000707A1BB243436FF01D0093FBF0F31A444C
:101C1000A4F8E62003E0B4F8C430A4F8F4304F0789
:101C200040F19780374B9A79002A00F092801F7C10
:101C3000002F40F0848096F8730096F872202B4BAA
:101C400080B3B4F8E8C0B4F9E0000FFA8CFEC0EB42
:101C50000E08B8F1000FB8BFC8F1000890450FDDBD
:101C60008645C8BF52421FFA8CFCC8BF92B2C3F867
:101C7000EC706244012783F8B073A4F8E82068E0B0
:101C800093F8B0232AB1D3F8DC2083F8B073C3F8FB
:101C9000D820D4F8F030B5F8D2201844B5F8D030B8
:101CA000984244E0B4F9E070B4F9E8E0C7EB0E0EF6
:101CB0008EEAEE7CACEBEE7C944525DD02229EFBA9
:101CC000F2F2C3F8D422012283F8D02283F8B023A1
:101CD00025E000BFAFF30080A2EB0FE5DD169640D4
:101CE0002C000020D4050020481D00200801002001
:101CF0008FC2753CD0050020741C0020400C0020D1
:101D000038050020B406002093F8B0233AB1D3F888
:101D1000DC2083F8D002C3F8D82083F8B003D4F8CD
:101D2000F020B5F8D0303A44B5F8D2009A4203DB3F
:101D30008242B4BF13460346A4F8E83009E0B4F881
:101D4000E42095F92501D4F8F03000FB0323A4F832
:101D5000E43096F876305BB1A94BDA780AB91B7992
:101D600033B1B4F8E830B4F8A4231344A4F8E8304D
:101D7000880640F1B180A24BDA791AB91A7A002AA2
:101D800000F0AA801B7B002B00F0A680B4F9C400F1
:101D900009F008FC9B4909F059FC80460CF00AF94F
:101DA000814640460CF06CF896F8C5A08046964FE8
:101DB000B4F92201BAF1000F5CD0B7F81E31CAF1B4
:101DC00000071FFA83FB1BB2C01A03F0D3FCB84212
:101DD00003DB5045A8BF504600E03846B4F81C313C
:101DE0008344B4F920019AB21BB21FFA8BFBC01ACC
:101DF000A4F81EB1039203F0BDFCB842039A03DBC2
:101E00005045B4BF074657461744BFB2A4F81C71EB
:101E10000FFA8BF009F0C6FB824638B209F0C2FB1C
:101E200041460746504609F011FC4946834638466C
:101E300009F00CFC0146584609F0FEFA734909F016
:101E4000B9FC09F0C9FD4946A4F81801504609F04B
:101E5000FDFB41468146384609F0F8FB01464846FD
:101E600009F0ECFA694909F0A5FC09F0B5FDA4F800
:101E70001A0131E009F096FB8346B7F9200109F019
:101E800091FB41468246584609F0E0FB494603462D
:101E90005046029309F0DAFB029B0146184609F00E
:101EA000CBFA5A4909F086FC09F096FD4946A7F895
:101EB0001801584609F0CAFB41468146504609F0D0
:101EC000C5FB0146484609F0B9FA504909F072FCD1
:101ED00009F082FDA7F81A014D4B1B6998474D4B3D
:101EE0001A78032A13D9B4F9E600B4F9B613002816
:101EF000B8BF40426FF063031B1A994204DB00F144
:101F000064038B42A8BF0B46A4F8B6331DE0012A38
:101F10001BD86B79013B142B00F23A82DFE813F0F7
:101F2000C200380238028000D500380238026B0146
:101F300038023802380238023802F100380238021A
:101F4000380238023802CF01060296F9BEB0B4F961
:101F5000B613CBF1000B01FB0BFBB4F8E830B4F87F
:101F6000B493B4F8B2A32C4F4FF00008904507F19A
:101F70001007CED218B20392029309F013FB57F860
:101F8000101C09F063FB84460FFA89F0CDF810C0ED
:101F900009F008FB57F8081C09F058FBDDF810C0E1
:101FA0000146604609F04AFA84460FFA8AF0CDF8F5
:101FB00010C009F0F7FA57F80C1C09F047FBDDF8E0
:101FC00010C00146604609F039FA84465846CDF8FB
:101FD00010C009F0E7FA57F8041C09F037FBDDF8E8
:101FE00010C00146604609F029FA09F0F5FC0B49DA
:101FF000029B21F81800039A08F10108B6E700BF18
:10200000B406002035FA8E3C080100200000204173
:1020100000000020581C0020F40500205A1C00205D
:1020200096F89E30042013F0020F0CBF4FF0010B06
:102030004FF0FF3B13F0010F0CBF4FF0010A4FF0C0
:10204000FF3A03F05DF8B4F8B693B4F8B4830BFB31
:1020500009FB0AFB08FA96F8A6301FFA8BFB13F06F
:10206000020F0CBF01224FF0FF32AC4F584413F067
:10207000010F1FFA8AFA82440CBF01234FF0FF338D
:10208000052002FB09F903FB08F8A7F808A003F0F4
:1020900037F81FFA89F91FFA88F848448044A7F8EE
:1020A0000A8075E196F8A630052013F0010FB4F808
:1020B000B6330CBF01274FF0FF375F4303F020F822
:1020C000BFB2964B3844588162E1002003F018F803
:1020D000B4F9962296F97E304FF0320853438F4F71
:1020E00093FBF8F318443880012003F009F896F9BF
:1020F0008630B4F99422534393FBF8F84044788037
:1021000046E1874B854F5A78994612B9B5F8D430D5
:102110000BE0B4F9E820B5F8D030B5F8D2109A4207
:1021200003DB9142B4BF0B461346FB81FA897D4B1A
:1021300095F824811A80B8F1000F28D0022002F00F
:10214000DFFFB6F98830B6F88A20984203DB13B275
:102150009842B8BF0346B5F81C217349D01AB4F8A9
:10216000B83300B20FFA83FE864501DA984402E0E4
:1021700003DDC8EB0308A1F8B883B4F9B81396F9E6
:102180008E304B43642193FBF1F31A44BA8099F8E3
:102190000A306BB1B4F8E230FB803B81B4F8E63032
:1021A0007B81B4F8E430BB81DFF87081032709E05C
:1021B000B4F8B233FB803B81B4F8B6337B81B4F81A
:1021C000B433F0E706EBC703B8F9069093F97E3015
:1021D000384609FB03F9642399FBF3F9A8F8069044
:1021E00002F08EFF01374844072FA8F8060008F1D7
:1021F0000208E7D1CCE04A4B484F5A78194612B949
:10220000B5F8D4300BE0B4F9E820B5F8D030B5F823
:10221000D2009A4203DB9042B4BF03461346FB81CF
:10222000FA89404B1A808B7AA3B196F89630B4F8AD
:10223000E41013F0010F0CBF01224FF0FF3213F036
:10224000020F02FB01F20CBF01204FF0FF30B4F887
:10225000E23012E096F89630B4F8B41313F0010FA0
:102260000CBF01224FF0FF324A4313F0020FB4F8C3
:10227000B2330CBF01204FF0FF3000FB0322FA8085
:1022800096F89E2012F0010F0CBF01204FF0FF3096
:10229000414312F0020F0CBF01224FF0FF3202FB4C
:1022A000031303203B8102F02BFFFB881844F880C6
:1022B000042002F025FF3B891844388168E096F835
:1022C0009E20B4F8B43312F0010F0CBF4FF0010898
:1022D0004FF0FF3808FB03F8104F1FFA88F804206E
:1022E000A7F8088002F00CFF96F8A620B4F8B233E5
:1022F00012F0010F40440CBF4FF001084FF0FF38BF
:1023000008FB03F838811FFA88F80520A7F80A802F
:1023100002F0F6FE404478813AE000BF86000020DB
:10232000B40600205A1C002008010020B4F8B6A30F
:10233000032706EBC70393F87E30C7F1060113F0BD
:10234000020F0CBF01224FF0FF3202FB0AF221F014
:102350000101214413F0010FB1F8B2130CBF4FF08B
:1023600001094FF0FF3909FB0129DFF8A8821FFAA4
:1023700089F928F81790384602F0C2FE484428F838
:1023800017000137072FD4D1B4F8E820A04B1A80EA
:10239000AB68990631D5002002F0B2FE9D4F804611
:1023A0003880012002F0ACFE94F8B0307880DFF87D
:1023B00088E213B396F8C030BEF9941213F0020FFE
:1023C00096F986204FF0320396F97E40BEF996E2E8
:1023D00018D04A4364420EFB04FE92FBF3F26FF006
:1023E000310192B29EFBF1F111449EFBF3FE884451
:1023F0007244A7F8008010447880874B874A03F125
:10240000100411E00EFB04F44A4394FBF3F4A044DF
:1024100092FBF3F3A7F800801844EDE723F8021FBE
:10242000A34202F108020CD0B3F90200B2F978100D
:10243000B2F87A708842F1DB39B28142A8BF014616
:10244000ECE796F8C0305A0706D4754B704A93F8FB
:1024500000C0118801230FE0724B0024DE7D043E92
:10246000714BA01903EB4403C0B21989013403F086
:102470006BFA042CF4D1E8E7634508D232F9130073
:1024800009B28842A8BF014689B20133F4E7B5F822
:10249000D200B5F8D060431A1FFA83F9AB68B5F8DB
:1024A000D44003F4804209925F4A03F0100B5F4B63
:1024B000B2F90620B5F8D6705B78B5F81CA1B5F86E
:1024C000D8E0B5F81E510192B2B20893069705956F
:1024D00007921FFA84F84FEA4C0C0023634539D069
:1024E0000AB282424A4D02DDEA5A4A44EA52099F40
:1024F000474AA7B1019D5545D55E07DD754503DB0C
:102500008542A8BF05461CE075461AE0A54204DBDB
:10251000069FBD42A8BF3D4613E0254611E0ED5E93
:10252000B54203DB8542A8BF054600E03546D552DB
:10253000059F019DBD4205DA079DBBF1000F18BF45
:102540004546D552089A1AB9394A9D5A304A9D5281
:102550000233C3E7334B9B7D002B4BD0354A537975
:10256000013B142B3AD8DFE803F00B3939213C3911
:10257000391939393939392939393939392129005C
:10258000264B93F8BF301BB1224B002059892FE016
:10259000264B58780028F7D1014629E01D4C002031
:1025A000E18803F0D1F90120218921E0194C0020B4
:1025B000218903F0C9F90120618919E0154C002037
:1025C000E18803F0C1F90120218903F0BDF902205F
:1025D000618903F0B9F90320A18909E093689B069A
:1025E00008D50C4C0020218803F0AEF96188012049
:1025F00003F0AAF902F068FD34E00C4B1B78002BC5
:102600003DF457AF02F0E2FCFDF753BF012218E0A2
:102610005A1C00208600002084000020741C00202A
:10262000581C0020DC05002020070020B4060020F4
:10263000C2040020A418002008010020022200E0AB
:1026400003225FFA82F9002009F1FF33014685F881
:10265000B03307F059FD022028214A4602F090FCD1
:10266000FDF79CBF15B0BDE8F08F00BFAFF3008051
:10267000634B2DE9F04FB3F90600624B8DB0DA8C55
:1026800090420FDBB0F5FA6F93F8254007DA811A14
:102690004C43A2F5FA6294FBF2F4643403E0C4F113
:1026A000640400E06424584A93F82370B2F81C11C3
:1026B00092F9EC2093F8705093F87160524293F8BD
:1026C000243092B2049100210692059707930A469E
:1026D0004B4BDDF810C031F9038040F2E637CCEB0C
:1026E000080303F2F31EBE4503D8002BB8BF5B42BC
:1026F00001E04FF4FA73022ADFF814C12CD025B19F
:10270000AB42CCBFC5EB030300236427DFF804A171
:1027100093FBF7FE6FF0630B3AF81E900BFB0E3B3A
:102720000EF1010E3AF91EA00FFA89FECEEB0A0E49
:102730000EFB0BFE9EFBF7FECE442CF801E0DDF80D
:1027400014C003FB0CFE314B9EFBF3F33B449BB2E6
:10275000634393FBF7F314E026B1B342CCBFC6EB5F
:1027600003030023DDF818E003FB0EF7ACF8047058
:10277000079F002BB8BF5B427B43244F93FBF7F3CB
:102780006433DFF88090DFF890C002EB090797F818
:1027900001A097F80BB07F7D03FB0AFA03FB0BFB4C
:1027A0007B434FF0640E9AFBFEFA02F80CA093FBF9
:1027B000FEF30CF1030A0CF1060C02F80C30DDF804
:1027C00010C09BFBFEFBE04502F80AB0104B05DA97
:1027D00033F801E0CEF1000E23F801E00132032AC4
:1027E00001F102017FF474AF074EB6F81E2190424A
:1027F00014DBB0F5FA6FA8BF4FF4FA600FE000BF2A
:1028000020070020741C0020A41800200CFEFFFFED
:10281000EA010020480C0020560C00201046801AC7
:102820004FF47A714843C2F5FA62B0FBF2F24FF00E
:10283000640CB54C92FBFCF104EB4100B0F818E0DD
:102840006FF0630000FB012204EB4101B1F91A00B3
:102850000FFA8EF1411A4A4392FBFCFCE644A3F8BE
:1028600006E0AA4BAA4D5B7A002B44D0A94BB3F9E2
:102870000000A94BB3F90030C01A08F011FBA0A367
:10288000D3E9002308F072FB0022A44B08F098FC67
:1028900008F07EFD80460BF0F3FA814640460BF0CF
:1028A00089FB8046B5F9020008F07CFE8246B5F946
:1028B000000008F077FE4946834608F0C7FE41460F
:1028C0000746504608F0C2FE0146384608F0B4FDFF
:1028D00009F082F849462880504608F0B7FE414684
:1028E0008146584608F0B2FE0146484608F0A6FD6B
:1028F00009F072F86880D6F80880DFF850A218F066
:10290000020F00F08380864B06211A88236B7E4DD0
:102910001A4494F8343022630133DBB2B3FBF1F98B
:1029200001FB193919F0FF0784F8343004975CD1A2
:102930007C4F7D4B7878A96B33F810E04FF0080B93
:1029400091FBFBF01FFA8EFE081A7044A86390FBFF
:10295000FBF080B20392019308F024FE734908F063
:1029600075FE734908F026FF81469AF80B0108F0BE
:1029700019FE0146484608F069FE09F053F89AF836
:102980000E11A887039A019B79B37879296C33F8E3
:10299000100091FBFBF380B2CB1A03442B6493FB32
:1029A000FBF39BB240F6E441594340F6FF70B1FBA4
:1029B000F0F1BAF808014FF47A73091A5943BAF8DA
:1029C000060191FBF0F14A4392FBF3F36964D5E908
:1029D0001201C01841EBE371C5E91201554A002309
:1029E00009F040F8049F28652F63534AA38F12888B
:1029F0009A4203D396F80D219A4203D9002384F812
:102A0000543003E0404B042283F854204B483E4BA3
:102A1000417B94F85420864601B1012118F4007FCF
:102A200083F8551022D0464D464B95F8B8101B88B8
:102A300001EB810518B2A84215DD344D6D787DB1EA
:102A4000012584F856503E4D95F8B950294401EBC4
:102A50008101884207DD2C49022081F8560002E0FE
:102A6000022184F856100BB984F85630364D2B6885
:102A700099060DD59EF80A3013B9304BDB7A23B195
:102A8000224BDB7A0BB9012300E0002384F8573096
:102A900094F856101C4B022902D14C204E211DE007
:102AA000012904D14D2153204C220B4607E093F815
:102AB0005710012906D1532001464E224D2304F020
:102AC00019FE50E093F85510012903D15320014617
:102AD0000246F3E7042A03D153204D210A460AE0B7
:102AE000022A03D1532001464D2204E0012A2FD1AE
:102AF00053204D214E224423E1E700BFAFF3008075
:102B0000182D4454FB210940480C0020B406002035
:102B1000EA010020CC010020FE0100200080664078
:102B2000B604002000050020080500203333534080
:102B300000F07F45407E050010050020B001002018
:102B4000741C00202401002038050020A418002057
:102B5000B14A107818B1322004F09EFD03E083F8EA
:102B6000580002F020F9AD4B1A8812B12B689A0771
:102B700002D4AB4B1B882BB1AA4BDA6882F0080257
:102B8000DA600FE0A84B9A7812B1A64A08211161C9
:102B90005B7813B1A34B08225A61A44B1B780BB18D
:102BA00007F026FAB3681B0662D5A14FE26D3B68B9
:102BB000A04F9A1A002A5BDB03F543435033FB65B1
:102BC00097F860309BB97A238DF824309A4B022213
:102BD000B3F900306D20C3F1B40393FBF2F38DF829
:102BE0002530FF2109AB05F017FA012325E0012B61
:102BF00026D192497923B1F900208DF824300A2397
:102C000092FBF3F25A32B42AA8BFB42222EAE2724B
:102C10008DF82520B1F902206D2092FBF3F35A3391
:102C2000B42BA8BFB42323EAE3738DF82630FF2129
:102C300009AB032205F0F0F9022387F8603017E0B2
:102C4000022B15D164238DF8243001238DF8253013
:102C5000754B6D205B78FF21002B18BF01238DF889
:102C60002630032209AB05F0D7F9002384F8603041
:102C70006F49636E0A68D31A002B11DB6A4B597BCC
:102C800061B99970674BD96881F00801D96002F584
:102C9000F423684A03F59073536601E001229A70A9
:102CA0000027D4F87021634B9742DFF8A8A180F287
:102CB0003D8703F168014C2000FB0711604A116059
:102CC0009AF80010914619B104F00CF900F02EBFEB
:102CD00093F8003113B15B4A5B4BDA60D9F80030EE
:102CE000DFF85CA1186801F062FF002800F0168789
:102CF000DAF80030186801F055FFDAF8003093F880
:102D00004920D2B9B0F1240CDCF1000252EB0C02E4
:102D100083F84920002AE1D1434B5B78002BDDD1B9
:102D2000232802D104F0DEF8D8E796F8B1338342C5
:102D3000D4D1464A464B1A60CDE7012A05D14D2829
:102D400014BF0022022200F0E5BE022A05D13C2871
:102D500014BF0022032200F0DDBE032A0DD140285B
:102D60004FF0000200F2D68683F847205A7183F8AC
:102D700048001871042200F0CDBE042A07D11A7948
:102D800083F8460050401871052200F0C3BE052AA2
:102D9000A4D193F8481093F847209142197907D9A4
:102DA00041401971511C83F847101344987195E7FD
:102DB000814240F0AC8693F84630752B00F02D84AC
:102DC00000F21181692B00F0728300F2C280452B62
:102DD00000F07E8640D8422B00F037860CD8402B7E
:102DE00000F05986412B40F08986002001F016FF43
:102DF0004FF0000A00F060BE432B00F0FD85442B2D
:102E000040F07C86002001F009FF0A4B012283F884
:102E1000002100F077BE00BF451D0020501D00209E
:102E2000440C0020000C0140B40600203C0C0020A3
:102E300064010020480C0020CC0100209C030020ED
:102E4000440000200400FA0500ED00E0EFBEADDE16
:102E5000F04F0020581D0020662B00F095826CD8A2
:102E6000642B00F06282652B40F048860B2001F055
:102E7000D5FED84BDFF878A3B3F9000001F0D1FEFE
:102E8000BAF81E0100B201F0CCFE2B68C3F3C000FB
:102E9000C3F38002800040EA4200C3F340021043C3
:102EA000C3F3401240EAC20003F01003184301F0DC
:102EB000B8FEC94A002092F804E0D3784FEA8E0E9B
:102EC0004EEA430E53784EEA030E93794EEAC30E50
:102ED00053794EEA431E537A4EEA831EBF4BD9798B
:102EE0004EEAC11E197A4EEA012E597A4EEA412E57
:102EF000D1794EEA812E117A927A4EEAC12E4EEAAB
:102F0000023E5A7B9AF81C114EEA423E9A7B4EEAE8
:102F1000823E1A7C4EEA024E1A794EEA021E5A7C12
:102F20004EEA424E9A7C4EEA824EDA7C1B7D4EEA95
:102F3000C24E4EEA035E03460FE2672B00F0648246
:102F4000682B40F0DB85102001F068FE4FF0000A8E
:102F5000A2E26F2B00F0298324D86C2B00F0D982D9
:102F600018D86A2B00F0B3826B2B40F0C785DFF8CE
:102F700080A2052001F052FEBAF9220101F051FEB3
:102F8000BAF9240101F04DFE9AF8060100F00100A3
:102F900000F062BC6D2B00F0CB826E2B00F0D38270
:102FA00000F0ACBD722B00F0D88311D8702B00F06C
:102FB0001C83712B40F0A285DFF834B24FF0000A79
:102FC0009BF81C01400000F0FE0001F027FE61E3C9
:102FD000732B00F00884742B40F090854FF0000AAA
:102FE0004FF0010B7AE3CE2B00F0888444D8C82B35
:102FF00000F094802BD8782B00F016820FD8762B17
:1030000000F00084772B40F07985DFF8E4A14FF0E1
:10301000000B9AF81C0101F001FE534695E3A02B2A
:1030200000F09884A42B40F06985DFF8C4A14FF02C
:10303000000B9AF82E0180000130C0B201F0EEFDC5
:103040009AF82E0101F0BDFD534600F091BCCB2B48
:1030500061D009D8C92B75D0CA2B40F04F85DFF855
:10306000A4A10AF10A0B90E0CC2B00F0CF80CD2B6D
:1030700000F03A8400F042BDD42B00F0F18116D864
:10308000D12B00F0EC8307D8CF2B00F0E280D02BBF
:1030900000F0218400F032BDD22B00F03181D32B1F
:1030A00040F02C8501F0F4FF4D4B1880CCE0F02B64
:1030B00000F0448410D8D62B00F01581EF2B40F09F
:1030C0001D8501F0E5FFDFF838A1AAF82C0001F01A
:1030D000DFFFAAF82A00B7E0FA2B00F01784FE2BD6
:1030E00040F00C85082001F099FD3E4B3E4A1B68DC
:1030F0004FF0000AB3FBF2F3C3EB431103EB810380
:103100003A490968B1FBF2F2394902EBC303A1F86D
:103110002C3100F008BC4FF0000A47E04FF0000AE5
:1031200001F0B6FF334B23F80A000AF1020ABAF1A4
:10313000100FF5D1002001F071FD2F4B01221A7004
:1031400000F0E0BC01F099FF234BDFF8BCA0D8727F
:1031500001F093FF294B187001F0A4FFCAF800009A
:1031600001F0A0FFCAF8040001F092FFDFF880A090
:10317000AAF8020101F08CFF9AF80631AAF80401BE
:1031800043F002038AF806315EE001F076FF0AF1AF
:10319000010A8AF8010001F070FF8AF80B0001F0C3
:1031A0006CFFDA458AF81500EFD14DE0104B93F82B
:1031B0001C21924548D203F207131AF803B001F01C
:1031C00067FF0F4B0AF1010A03EB4B03A3F846001C
:1031D000ECE700BFB6040020B4060020B0010020D8
:1031E000FC0100201400002040420F009800002045
:1031F000480C002020070020600100200002002071
:10320000741C0020731C00201802002001F035FF00
:10321000DFF85CA48AF81F0001F02FFF8AF8200075
:1032200001F02BFF8AF8230001F027FF8AF8240021
:1032300001F023FF8AF8250001F01FFF8AF8210022
:1032400001F01BFF8AF82200002001F0E7FC00F0EB
:1032500059BC01F01DFF6FF4AF6E00EB0E03DFF8F9
:10326000DCA3C62B98BFAAF81C0101F011FFAAF835
:10327000D00001F00DFFAAF8D20001F009FFAAF872
:10328000D40001F005FFDFF8E8B3ABF8BA0001F0B5
:10329000F4FE8AF82C0101F0F0FE8AF82E0101F00C
:1032A000ECFE8AF82F0101F0E8FE8AF80A0101F02D
:1032B000E4FE8AF8260101F0E0FE01F0E9FE00EBF1
:1032C00080004000ABF8280001F0D7FE8AF80B011F
:1032D00001F0D3FE8AF80D0101F0CFFE8AF80C014F
:1032E00001F0CBFEB0E74FF0000A01F0D1FED14B68
:1032F00023F80A000AF1020ABAF1100FF5D1A3E788
:10330000CD4B5B78002B9FD101F0B7FECB4B022851
:1033100083F8B0034FF0000088BF0022014688BF49
:1033200083F8B02306F0F0FE8EE70720DFF80CA349
:1033300001F074FCE72001F044FC9AF8050001F06C
:1033400040FC002001F03DFC9AF82401BC4BBD4A32
:1033500000280CBF10461846CDE38B420ED2BA4A65
:1033600013F802C0012202FA0CFC1CEA0E0F18BF6F
:103370009A4003F1010318BF1043EEE701F05BFC34
:10338000AE4B93F8B00367E2122001F047FCAF4B5D
:10339000DFF8E0A21B88B3F5806F28D94FF0000B4F
:1033A0003AF90B00082390FBF3F00BF1020B01F04C
:1033B00038FCBBF1060FF3D1DFF8BCA2BAF900006C
:1033C00001F02FFCBAF9020001F02BFCBAF904005D
:1033D000DFF8A8A201F025FCBAF9000001F021FCF9
:1033E000BAF9020001F01DFCBAF9040050E3BAF981
:1033F000000001F016FCBAF9020001F012FCBAF963
:10340000040001F00EFCD7E7102001F007FC4FF09C
:10341000000A8F4B13F80A000AF1010A01F0D1FBF0
:10342000BAF1100FF5D16DE3382001F0F7FBDFF8AA
:1034300040A20AF1400BBAF9780001F0F2FBBAF9A8
:103440007A0001F0EEFBBAF97C0001F0EAFB0AF128
:10345000080A9AF8760001F0B4FBDA45EBD151E3A3
:10346000002001F0DBFBDFF808A20AF1400B01F0BD
:103470000FFEAAF8780001F00BFEAAF87A0001F01E
:1034800007FEAAF87C0001F0F8FD0AF1080A8AF8A4
:103490007600DA45EBD135E36E4B13F80A000AF1FA
:1034A000010A01F08EFBBAF1100FF5D12AE31020CA
:1034B00001F0B4FB4FF0000A674B33F90A000AF140
:1034C000020A01F0AEFBBAF1100FF5D11AE3102099
:1034D00001F0A4FB584BDFF8A8A1D87A01F071FBEA
:1034E0005E4B187801F06DFBDAF8000001F0A3FBE9
:1034F000DAF80400DFF88CA101F09DFBBAF90201B3
:1035000001F08FFBBAF9040101F08BFBBAF920013D
:10351000BEE2DFF874A1062001F080FBBAF90000DA
:1035200001F07FFBBAF9020001F07BFB4C4B07E096
:10353000062001F073FB4B4B186801F07CFB4A4BF3
:10354000B3F90000A4E2DFF83CA1072001F066FB1C
:10355000BAF83C004FF6FF7BFF28A8BFFF20C0B29F
:1035600001F02FFBDAF850005845A8BF584620EA72
:10357000E07000B201F055FB3C4BB3F9000001F0E4
:1035800050FB2E4BDAF8440093F80A310028B8BFFC
:1035900040422BB10A2358435845A8BF584602E081
:1035A0005845A8BF584600B272E2DFF8C4A0072011
:1035B00001F034FB9AF81F0001F003FB9AF8200099
:1035C00001F0FFFA9AF8230001F0FBFA9AF82400C0
:1035D00001F0F7FA9AF8250001F0F3FA9AF82100C1
:1035E00001F0EFFA9AF8220036E11E2001F016FBF6
:1035F000DFF898A00AF10A0B0AF1010A9AF8010013
:1036000001F0DFFA9AF80B0001F0DBFA9AF81500E6
:1036100001F0D7FADA45EFD174E22F2001F0FEFA7B
:10362000DFF86CA01AF8010F002800F06B8201F09F
:10363000C8FAF7E7C2040020B4060020A41800204E
:103640000C0000C0040000C04F0D00202C00002022
:10365000860000205A1C00202007002000020020C5
:10366000CC010020E4010020D4030020C60100208A
:10367000741C00207C040020B0040020AC02002058
:1036800018020020480C00209C030020731C00201E
:103690006F0701089BF81C319A4580F03382C54BB7
:1036A0001AF80320C44B0AF1010A03EB4203B3F9F1
:1036B000460001F0B6FAEDE7824408F10108BF497F
:1036C00091F81C0180450CDBBBF1000F00F01A8261
:1036D0005FFA8AF001F0A2FA4FF0000B4FF00008F9
:1036E000EDE701F20711B64818F801104FF00C0E83
:1036F0000EFB0101496B084604910AF078F98446F3
:10370000BBF1000FD8D159466145D6DA049A505C16
:103710000291CDF80CC001F054FA0299DDF80CC00A
:103720000131F1E7A74AA3495244127A1BF801007C
:10373000904203D1019301F044FA019B0AF10C0A73
:10374000BAF1FC0FEED10BF1010B93F81C2193455C
:1037500080F0D8814FF0000AE4E7DFF894A2162049
:1037600001F05CFABAF91C0101F05BFABAF9D00079
:1037700001F057FADFF840B2BAF9D20001F051FA7D
:10378000BAF9D40001F04DFABBF9BA0001F049FAD8
:103790009AF82C0101F015FA9AF82E0101F011FAAD
:1037A0009AF82F0101F00DFA9AF80A0101F009FACE
:1037B0009AF8260101F005FA002001F002FABBF99F
:1037C00028000A2390FBF3F001F02BFA9AF80B0182
:1037D00001F0F7F99AF80D0101F0F3F99AF80C01EC
:1037E00001F0EFF937E0082001F018FA4FF0010A74
:1037F0005FFA8AF00AF1010A01F0E3F9BAF1090F60
:10380000F6D17FE101F039FC03461220019301F06B
:1038100005FA019B0BB96C4A02E0102B05D16B4AEB
:10382000D2F800B0D2F804A002E04FF0000AD3466C
:10383000184601F0C6F9584601F0FDF9504601F06E
:10384000FAF9634B186801F0F6F9002001F0E9F984
:10385000002001F0E6F9002001F0B3F952E101F097
:103860000CFC834601F01EFC039001F01BFC019050
:1038700001F018FC824601F00BFC01F009FC01F09C
:10388000FCFB039A019BBBF1000F0FD14E4981E86D
:103890000C00504B012283F807B01A73BAF1000FE5
:1038A0003FF4D2AC4A4BC3F800A0CDE4BBF1100FFB
:1038B0007FF4CAAC454981E80C00BAF1000F02D090
:1038C000434BC3F800A04148434B0222011D1A702C
:1038D00002F08EFAB8E43F4B5B78002B7FF4B4AC77
:1038E000012006F0ADFCAFE43A4B5B78002B7FF48F
:1038F000ABAC3A494FF4C8730B80A5E4354B5A780A
:10390000002A7FF4A1AC01229A739DE4314B93F815
:1039100001A0BAF1000F40F0F1805046012106F0FD
:10392000F3FB504691E42E4B33F90A000AF1020AE8
:1039300001F077F9BAF1080FF5D1E3E0DFF878A0EC
:10394000042001F06BF9BAF92C0001F06AF9BAF918
:103950002A009DE00C2001F061F9224B186801F06B
:103960006AF9214B186801F066F9204B1868C2E02B
:1039700093F82E21934580F0C580DFF878A01AF8DF
:103980000B00019301F01DF90AF1100212F80B006F
:1039900001F017F90AF1200212F80B000AF1300ABF
:1039A00001F00FF91AF80B0001F00BF90BF1010B04
:1039B000019BDDE74F0D0020741C0020480C002007
:1039C00070070108A007010804020020100200206F
:1039D000E0010020B40600200C020020501D002051
:1039E0006E0D0020E8F7FF1FECF7FF1FF0F7FF1F39
:1039F000A4180020770D0020002001F00FF901F03D
:103A00003CFBDFF820A10023CAF808308AF8050043
:103A100001F048FB01F0E4FC01F02FFB8AF81701EC
:103A200001F036FBAAF8E60001F032FBAAF8E80044
:103A300001F02EFBAAF8EA0001F02AFBAAF8060121
:103A400001F026FBAAF808015CE0DFF8D8A01020FE
:103A500001F0E4F89AF8050001F0B3F8DAF808008C
:103A600001F0E9F89AF8170101F0ABF8BAF9E600AD
:103A700001F0D7F8BAF9E80001F0D3F8BAF9EA0092
:103A800001F0CFF8BAF9060101F0CBF8BAF9080154
:103A900001F0C7F836E0082001F0C0F84FF0000A46
:103AA000204B534493F80F010AF1010A01F089F801
:103AB000BAF1080FF4D125E001F0DFFA194B5344B5
:103AC0000AF1010ABAF1080F83F80F01F4D119E0E5
:103AD000132001F0A3F84FF0000A134B13F80A006B
:103AE0000AF1010A01F06DF8BAF10B0FF5D10020CF
:103AF00001F0A1F8002001F09EF803E00120002170
:103B000001F06EF8D9F80030187901F05AF8D9F8B8
:103B10000030002283F84920FFF7E0B80137FFF7B3
:103B2000C0B800BFA41800209E1601089AF8003003
:103B3000002B40F00084B368180540F1FC83CE4BA5
:103B40001B78002B00F0F78301F044FD002800F003
:103B5000F283CA4B93F83A31002B40F08281C84B74
:103B6000D86801F024F8002840F07B81C54FD4F8D4
:103B700074113A68C44B511A7C29B84640F27181DD
:103B8000C3F8742193F878210746013283F878212D
:103B900007F12400C0B201F0CFF8BC4B33F9170095
:103BA00007F000FDBA4B8246188807F0FBFC01467F
:103BB000504607F0FFFDB74907F048FD07F00CFF3E
:103BC000013700B201F0E4F8032FE1D1302001F019
:103BD000B3F8B14BB3F9000001F0DAF801F0BAF82C
:103BE00094F8780110F0030B2CD1DFF8BCA2102060
:103BF00001F0A2F8DAF80030642793FBF7F000B286
:103C000001F0C6F8212001F097F8DAF8003093FBB4
:103C1000F7F007FB103787EAE770A0EBE77000B218
:103C200001F0B6F8142001F087F89C4BB3F90000BE
:103C300001F0AEF81C2001F07FF8584601F0A8F81A
:103C400001F088F894F878318F4F590740F0E380FD
:103C5000022001F071F8B7F97A014FF00A0A90FBDF
:103C6000FAF001F095F8B3689A0760D5BB8F4FF072
:103C70006E0B0BFB03FB15239BFBF3FB3A2001F0C0
:103C80005BF81FFA8BFB6422BBFBF2F90FFA89F099
:103C9000039201F07DF83B2001F04EF8039A02FBFD
:103CA00019B080B20530DFF804B290FBFAF000B230
:103CB00001F06EF89BF80030BA8F40F6340192FBA9
:103CC000F3F24A432A21B2FBF1F2B7F87C1191FBDF
:103CD000F3F003FB10131B019BB243EA02239BB2D8
:103CE000C2F3032243EA0209062001F025F80FFA85
:103CF00089F001F04DF8B7F87C219BF800300132D3
:103D000092B292FBF3F103FB11232820A7F87C3138
:103D100001F012F8786C90FBFAF000B201F038F87C
:103D2000042001F009F8B7F9500001F031F82B68D0
:103D30009B066ED5DFF878A1594FDAF800303C21A8
:103D400083EAE37CACEBE37C564B13209CFBF3F261
:103D500007FB02CC01FB0CF9029199FBF3FB0193E9
:103D6000039200F0E9FF039A02EB820202EB820267
:103D70000BEB820007FB0B9B00B201F009F84FF43C
:103D80007A791B2000F0D8FF9BFBF9F000B200F01D
:103D9000FFFF232000F0D0FFDAF80020002AACBF9C
:103DA0004E20532000F0F4FFDAF80420019B82EA51
:103DB000E27BABEBE27B9BFBF3F207FB02BB0299DE
:103DC000122001FB0BF1039291FBF3FB029100F037
:103DD000B3FF039A02EB820202EB82020BEB82003A
:103DE00000B200F0D5FF1A2000F0A6FF029907FBF1
:103DF0000B1191FBF9F000B200F0CAFF222000F095
:103E00009BFFDAF80430002BACBF4520572000F0B0
:103E1000BFFF00F09FFF94F87831282B21D11A4B77
:103E20000022D8F8007083F878214FF47A73B7FB3A
:103E3000F3FA17203C2700F07FFFBAFBF7F9B9FB34
:103E4000F7F007FB1090000200B200F0A1FF18206D
:103E500000F072FF07FB19A000B200F099FF00F01C
:103E600079FF96F83A31012B31D096F83A31022B8E
:103E700040F06182F4E000BF3C0C0020A418002058
:103E8000DC050020A0180020480C00207C04002045
:103E90002C00002000007A44D4030020CC01002034
:103EA000806967FF80969800B403002028000020F6
:103EB00018020020F86800F075FE8146052001F028
:103EC00032F8B9F18A0F09D12B689F0636D4C64F54
:103ED000F86800F06CFE0028ECD1C6E7B9F18E0F4F
:103EE000F5D100212E22C14809F05FFD7C2384F822
:103EF000AA31E02384F8AD317D2384F8D631A38F35
:103F000084F8AB91DAB21B0A84F8C93184F8BF3166
:103F1000142384F8C23184F8C3314FF4FA73A4F83F
:103F2000C4314823A4F8CC31782384F8C82184F81C
:103F3000BE2184F8CE31AD482E218EE0AC4F002159
:103F400007F5BF702C2209F030FD7C2384F87E3108
:103F5000A02384F881317D2384F8A931A54B84F80E
:103F60007F911B7884F89831A34BDB7A002B6FD0BC
:103F7000A249662387F8A7310B68DFF8A4C2DA0FDD
:103F800087F887219E4A4FF0060E93FBF2F0C0B2ED
:103F90000CFB00390EFB09F942F21073B9FBF3FA7E
:103FA00000EB800003FB1A9949685FFA8AFA00EB7C
:103FB00080000AEB800080B291FBF2F2D2B287F867
:103FC0008801000A87F88901C80F0CFB02110EFB5B
:103FD00001F187F88C0102EB8202B1FBF3F003FBE5
:103FE000101302EB8202C0B200EB820292B287F899
:103FF0008D21120A87F88E2187F88F31B7F80421B6
:104000001B0A87F890316423B2FBF3F303EBC3037D
:104010009B009BB287F885311B0A87F88631B7F879
:10402000223187F88A9187F891311B0A87F89231FB
:10403000B7F802314FEA192987F893311B0A87F83C
:104040009431B7F8243187F88B9187F89A3102E0E0
:10405000202387F8A7316B482C2102F057F836E768
:1040600094F8D831002B00F06681674B93F83B3110
:1040700013F0FB0F0DD0654BD4F8DC111A6841F238
:104080008830511A81425A4B0FD9012283F8E0211E
:1040900051E1554EF06800F08AFD0028EBD0F06841
:1040A00000F080FD03F066FAF3E7D3F8E411521A4A
:1040B000042A40F2408193F8E821002A00F03B8175
:1040C00093F8E911524A32F811601EB983F8E96198
:1040D0004FF4036694F8E931B6F5C06F03F10103BC
:1040E000DBB2434F84F8E93160D01DD8B6F5007FCC
:1040F00056D009D8B6F5807F55D0B6F5887F40F008
:104100001A813046434B9BE0B6F5806F00F0AC80DF
:10411000B6F5826F00F0E480B6F5047F40F00B81C5
:10412000BB8F3046532100E1B6F5006F41D00FD868
:10413000B6F5E26F00F08C80B6F5E46F00F08C808D
:10414000B6F5E06F40F0F780334BB3F9001086E02E
:10415000B6F5036F07D0B6F5046F73D0B6F5026FEE
:1041600040F0E980D6E02B68980640F1E480224BCD
:10417000DB7A002B00F0DF80B7F8040107F00EFABD
:1041800006F0A0FE16A3D3E9002306F0EFFE07F029
:10419000FFF809F0E9FE07F045FC01463046C5E0AE
:1041A0003046796CC2E030461C4B49E03046396DF0
:1041B000BCE02A68910640F1BE800F4AD27A002AFC
:1041C00000F0B98013F0010F0C4B2BD05968002977
:1041D000BCBF494241F0804141F0004128E000BFAE
:1041E0000AD7A3703D0AD73FDC050020F20D00205E
:1041F000480C002000020020B40600201802002015
:10420000A0860100C60D0020A4180020A0180020E0
:104210007E160108D40300207C040020B403002093
:104220006079FEFF19680029BCBF494241F0804116
:104230004FF4006003F0B4FA002384F8E8317AE028
:10424000196873E04D4B3046B3F900100A2308E0BB
:104250004B4BB3F9021002E0494BB3F9041030465E
:104260002C2391FBF3F161E097F8EA3142F21071EF
:104270000133DBB2032B87F8EA3184BF012387F8CF
:10428000EA3194F8EA3159433E4B1A7802B10131D0
:104290005A7802B10231DA7802B10A311A7902B1E0
:1042A00014315A7902B164319A7902B1C831DA7B9A
:1042B0000AB101F5C8711A7A0AB101F57A71DA7991
:1042C0000AB101F5FA615B7A0BB101F57A614FF43D
:1042D000806003F065FA2C4B002283F8E8212AE085
:1042E000296811F020090ED0264B4FF4FA61DA7AD2
:1042F0001B7B30464B434FF47A7101FB0231234B59
:104300001B78194412E03046494603F049FA87F811
:10431000E89110E02B689A060DD51A4BDB7A53B161
:10432000B7F8023130464FF47A71594303F038FA46
:10433000002387F8E8312B689B0616D5144A1368CA
:10434000D4F8EC219A1A002A0FDB104A1278042ABA
:104350000BD90D4A03F5123303F5F873C2F8EC31AB
:104360000C4BDA6882F01002DA600B4B9B680BB1E1
:104370000A4898470DB0BDE8F08F00BFCC0100207F
:104380007C040020B4060020480C0020000200201D
:1043900064010020000C01403C050020C20D0020FB
:1043A000084BDA68D10709D4DA68520708D4DB6809
:1043B00013F0100F0CBF042003207047012070473A
:1043C0000220704700200240B0F8400080B27047E1
:1043D000808F80B27047008F80B27047808E80B22D
:1043E0007047214B2DE9F0431A781D461F49FAB159
:1043F0001F4B4F7D1E781F4B93F800C002231E4AAF
:1044000003F10108D45C344104F00F04BC420AD229
:1044100012F8039012F8088002EB840209EA0C04F7
:1044200008EB042414610233102BE8D100232B7015
:104430004B7D124A834203D90F4B93F8301019B9C0
:10444000B2F81C01BDE8F08310440D4990F80F212B
:10445000097803EB8203186901B1400800F5777011
:1044600080B2BDE8F08300BF08010020DC05002019
:104470004807002049070020380E0020A41800201B
:104480004A070020044B184490F80F21034B53F8BF
:104490002200C0F3CF007047A41800204001002084
:1044A000064B074A184490F80F11B3F8183152F828
:1044B000210003EB500080B2704700BFA418002019
:1044C0004C070020016B0346C26810B5406941B13A
:1044D000196C541A005D013918BF0A46C0B21A643B
:1044E00010BD196A405C0131B1FBF2F402FB1412F9
:1044F000C0B21A6210BD436B13B190F8440070470C
:10450000826A436AD31A584258417047036B13B109
:104510005A68036C01E0026AC369D01A18BF01200F
:1045200070477047034B4FF4805208B11A617047CF
:104530005A61704700080140034B4FF4805208B1A4
:104540005A6170471A61704700080140014B33F807
:104550001000704720070020034B184490F80F21EB
:10456000024B33F812007047A4180020B812002044
:1045700003799B070AD5436A8269D154426A036969
:104580000132B2FBF3F103FB11234362704703795D
:1045900013F001030BD0026AC3699A4205D09CBF95
:1045A000C0681218D31AD8B2704700207047184656
:1045B0007047037910B513F0010304460ED0FFF7DE
:1045C000E6FF60B1E3696269D05CE268C0B2013ABB
:1045D000934234BF01330023E36110BD184610BD80
:1045E000426A806A131A58425841704701717047F5
:1045F0007047034B53F820301B681980704700BF89
:10460000C8060020074BA1F57A7153F820304FF40B
:104610007A701A689B884B4393FBF0F39BB213802C
:10462000704700BFC8060020034B4FF480521A8029
:1046300008B1024B187070472C0000207000002059
:10464000064B1A78064B12B14FF4FF6201E04FF4AB
:1046500080521A8008B1034B18707047E012002096
:104660002C0000205C0000202DE9F04F504A514EF4
:104670001768738984463089A7EB032785B00391B7
:1046800087FB0001B288CB111404C209F08842EA0A
:10469000416287FB000114EB020872884FF00005AD
:1046A0004FEAC2344FEA1022B08945EB030942EACF
:1046B00001620B1287FB000114EB020A4FEAD05291
:1046C00042EA41224FF0000545EB030B12F5FA6078
:1046D0004FEAE15343F10001CDE90001B0F5FA6F73
:1046E00071F1000147DAA2FB024502FB03F1052646
:1046F00005EB4105A4FB060106FB05114D104FEA31
:104700003004B8EB040869EB050984082A4844EA38
:1047100081748D104FF0FF31BAEB040A6BEB050B7F
:10472000DDE9004584428D4125DA40F6AC5012188F
:104730004FF0000143EB010302FB03F1A2FB022354
:104740006FF0060003EB4103544200FB0344A2FB5D
:10475000000118EB000821444FF00B0449EB01095C
:10476000A2FB040104FB031149104FEA3000BAEB2D
:10477000000A6BEB010B114B1A68A2FB0A0102FB4A
:104780000B11420D42EAC1224B15B2EB080263EB5A
:104790000903D00B40EA4340BCF1000F01D0CCF834
:1047A0000000039808B10099016005B0BDE8F08FE2
:1047B000E4120020A005002024FAFFFFE8120020E8
:1047C000324B2DE9F0411C88314B0A265A89B3F946
:1047D0001250A41A1A89ED025443B3F91420E413B9
:1047E000224495FBF2F22244DA615643A2F57A6242
:1047F00002FB02F4B3F90480B3F902C0B3F90E70FE
:1048000002FB0CFC02FB08F2B3F90C802413674393
:1048100004FB08F4241404EB62320232DC889210A8
:1048200002F50042B3F920506243B3F900304FEA79
:10483000EC2404EBE72404EB8304AC40154B023476
:104840001B68D20BA3EBA4044CF250332B416343FF
:1048500055BF5B00B3FBF2F3B3FBF2F35B001A123C
:10486000524340F6DE3462430B4C08365C4324145A
:1048700004EB224202F6CF62361103EB221300B1A1
:10488000036001B10E60BDE8F08100BFF4120020AA
:1048900064050020F012002043E3FFFF38B50C68E8
:1048A0000546204609F0A3F8214602462868BDE8DF
:1048B000384009F0A5B810B50446FFF771FD01288E
:1048C00006D11CB1FFF76CFD013CF8E7052010BDD7
:1048D000002C08BF052010BD70B5104C064604EB37
:1048E000811400250E4A308A2A445388B189034234
:1048F00089B20CD00B420AD0DB439BB233823046E4
:1049000053689847A36801460BB1207B9847083548
:10491000202D04F11004E5D170BD00BFB8110020B6
:104920009809010810B5104B4178DB688478DB43A7
:10493000C3F30223C3F1040201FA02F20F21D940AA
:1049400021401143094B02780901C9B21A4482F887
:10495000001302780120510902F01F0200FA02F24E
:1049600043F8212010BD00BF00ED00E000E100E0B1
:10497000013A2DE9F8430C46072A30D8DFE802F067
:1049800004080C12191E222603880B8043880DE0B0
:1049900043880B80038803E003885B420B804388D5
:1049A0005B4203E043885B420B800388638083881B
:1049B00014E003885B420B8043880CE043880B8043
:1049C000038808E003880B80438803E043885B4248
:1049D0000B8003885B42638083885B42A380304BFB
:1049E0001B78002B5AD1B4F9000006F0DBFD80469D
:1049F000B4F9020006F0D6FD0746B4F9040006F04B
:104A0000D1FD284D06462968404606F01FFEE9689C
:104A10008146384606F01AFE0146484606F00EFD6D
:104A2000A9698146304606F011FE0146484606F067
:104A300005FD09F05BFA69682080404606F006FE35
:104A400029698146384606F001FE0146484606F0CF
:104A5000F5FCE9698146304606F0F8FD0146484616
:104A600006F0ECFC09F042FAA9686080404606F0C6
:104A7000EDFD69698046384606F0E8FD014640468E
:104A800006F0DCFC296A0746304606F0DFFD0146E9
:104A9000384606F0D3FC09F029FAA080BDE8F88377
:104AA00029000020140500202DE9F041069C002B70
:104AB00006460F460CBF4FF020084FF03008234643
:104AC00013F8011B09B9154603E0002AFBDD013A82
:104AD000F6E7002D04DD30464146B847013DF8E7D2
:104AE00014F8011B11B13046B847F9E7BDE8F08171
:104AF000F0B50124B0FBF4F58D4201D34C43F9E746
:104B00000026DCB1B0FBF4F504FB1500B4FBF1F4B6
:104B10001EB9002D01DC002CF3D1092D03F1010792
:104B20005FFA85FC04DD002A0CBF5725372500E01D
:104B3000302565441D7001363B46E2E71C70F0BD30
:104B4000F0B50124B0FBF4F58D4201D34C43F9E7F5
:104B50000026DCB1B0FBF4F504FB1500B4FBF1F466
:104B60001EB9002D01DC002CF3D1092D03F1010742
:104B70005FFA85FC04DD002A0CBF5725372500E0CD
:104B8000302565441D7001363B46E2E71C70F0BDE0
:104B900008B503685B69984708BD08B50368DB681A
:104BA000984708BD08B503689B68984708BD08B5D5
:104BB00003685B68984708BD08B503681B68984799
:104BC00008BD38B5054D04462B6821461868FFF727
:104BD000F3FF2B681A7954401C7138BD4400002043
:104BE00038B5044624200D46FFF7EBFF4D20FFF7B4
:104BF000E8FF002C084C0CBF3E202120FFF7E1FF0E
:104C00002368002228461A71FFF7DBFF236893F818
:104C10004600BDE83840D4E74400002001460020AB
:104C2000DEE710B50446C0B2FFF7CBFFC4F30720A0
:104C3000BDE81040C5E710B50446C0B2FFF7C1FF9C
:104C4000C4F30720FFF7BDFFC4F30740FFF7B9FF28
:104C5000200EBDE81040B4E7014B1868ACE700BF78
:104C6000DC05002010B5441E14F8011F21B1034BD0
:104C70001868FFF7A1FFF7E710BD00BFDC050020B3
:104C8000F8B5184B1B78042B28D1174B08221A6152
:104C900010221A61154CA068FFF789FF58B1124D18
:104CA00008266E61A0682768FFF77CFF014638463A
:104CB000FFF782FF2E6120680C4EFFF778FF002877
:104CC000E8D0094C102565613068B768FFF76AFFC6
:104CD00001463846FFF770FF2561DBE70448BDE871
:104CE000F840BFE76C070020000C0140DC05002005
:104CF000591701080048B5E77F170108A0F17D03A7
:104D0000012B70B504460D460A4E05D8F0687D218A
:104D1000FFF752FF84F02004F0682146FFF74CFFB4
:104D200035B12B881C4404EB142404F0FF042C80C0
:104D300070BD00BFDC05002038B5054C05465E217E
:104D4000E068FFF739FFE0682946BDE8384033E7FF
:104D5000DC050020014B5E21D8682DE7DC05002032
:104D600010B50A4C5E280146E06805D15D21FFF7C9
:104D700023FFE0683E2105E05D2903D1FFF71CFF1A
:104D8000E0683D21BDE8104016E700BFDC050020CB
:104D900010B50446C0B2FFF7E3FFC4F30720BDE837
:104DA0001040FFF7DDBF08B5014B1B68984708BDF1
:104DB000541D002010B5094A094913688C6812680F
:104DC0009342F8D1074A106811684FF47A72504341
:104DD000001BB0FBF1F002FB030010BDA018002087
:104DE00010E000E0E804002038B5124C012305462D
:104DF00084F83030FFF7DEFF636B41F28832C31A6C
:104E00009342A36384BF002384F83C3094F83C3081
:104E1000EDB20F2B6063E55406D1074B01221A70E7
:104E2000064B00221A8038BD024A013382F83C301A
:104E300038BD00BF380E00200801002024010020EA
:104E400010B50446FFF7B6FF164A136C1064C31A78
:104E5000B3F57A6F84BF002382F8443092F844306F
:104E600023B9A82C1CD110490B7006E0022B02D1EB
:104E70000E490C7001E0142B01D80D49CC540133BC
:104E8000DBB282F84430094A12785200053293426C
:104E900006D1044B002283F84420034B01221A70F0
:104EA00010BD00BF380E0020260100203C0100206C
:104EB0002701002038B50446FFF77CFF114B40F670
:104EC000C4119A6C9864821A8A4284BF002283F8C3
:104ED0004C2093F84C200AB90F2C11D10A4800211C
:104EE000017052B1094D182A154405F8014C04D13E
:104EF000012283F84C10027038BD013283F84C2037
:104F000038BD00BF380E0020090100200A01002032
:104F100038B50446FFF74EFF0546FFF74BFF401B31
:104F2000A042FAD338BD10B504462CB14FF47A70C4
:104F3000FFF7EEFF013CF8E710BD40F2DB146043E1
:104F400008B50E4B10221A6108225A61841E0B4BC1
:104F50002046DA6882F01002DA60DA6882F008022D
:104F6000DA60FFF7E0FF0120FFF71DFF1920FFF7D0
:104F7000DAFF0020FFF717FFE9E700BF000C014050
:104F80002DE9F04106460F4690460025EBB2434519
:104F900018D20024E3B2B3420FD20B4B0120DA68DF
:104FA000013482F00802DA60FFF7FDFE3846FFF7B1
:104FB000BAFF0020FFF7F7FEECE73C20FFF7B3FF56
:104FC0000135E3E7BDE8F081000C01400A4B1A8887
:104FD0000A4B52B99A7842B15A7862B901225A7092
:104FE000074B1A88074B1A8070475B781BB9022061
:104FF000FF210122C4E77047440C0020B4060020C2
:10500000CC010020FE0100202DE9F0410F88002393
:1050100047FA03F2D2072BD58A7803F0070512F07E
:10502000100F18BF91F803C002F00F0618BF46EA30
:105030000C06AD004FF00F0C0CFA05FC06FA05F556
:10504000DC0850F82480282A28EA0C0C45EA0C05D4
:1050500040F8245005D101229A40C46824EA020293
:1050600005E0482A04D101229A40C4682243C26064
:105070000133102BCCD1BDE8F081044B1B685A7969
:10508000511C597113449879704700BF44000020A7
:1050900010B5FFF7F2FF0446FFF7EFFF04EB002027
:1050A00080B210BD10B5FFF7F3FF0446FFF7F0FF25
:1050B00004EB004010BD034B5A780AB100225A702D
:1050C000704700BFB406002010B50024084BE0B2C2
:1050D0001B7883420BD9074B33F81010064B1B7813
:1050E000834202D9054B1B6898470134EEE710BD97
:1050F000581C00205A1C0020C70600201C07002056
:10510000074B03EBC003B3F87C301AB2112A04DC5E
:105110000728DCBF034B33F8123018B2704700BFCA
:10512000741C0020200700202DE9F04F0C688368D4
:1051300089B0D0F800A0D0F804800646204603933A
:105140008B4608F09DFE0746204608F033FFDBF84B
:1051500004408146204608F093FE0546204608F0AC
:1051600029FFDBF8082004461046019208F088FE6B
:10517000019A8346104608F01DFF394602905846B2
:1051800006F064FA39460490029806F05FFA594630
:105190000590484606F05AFA02990690484606F0ED
:1051A00055FA29460790584606F050FA01465046EF
:1051B00006F04CFA21468346069806F047FA014667
:1051C000059806F03BF90146404606F03FFA0146D5
:1051D000584606F033F921468346049806F036FA1D
:1051E0000146079806F028F90146039806F02EFAC2
:1051F0000146584606F022F93060029905F1004058
:1052000006F024FA0146504606F020FA214683466D
:10521000079806F01BFA0146049806F00DF90146BE
:10522000404606F013FA0146584606F007F92146B3
:105230008346059806F00AFA0146069806F0FEF83D
:105240000146039806F002FA0146584606F0F6F8C1
:1052500021467060504606F0F9F92946044609F1E6
:10526000004006F0F3F90146404606F0EFF901462A
:10527000204606F0E3F839460446284606F0E6F9EB
:105280000146039806F0E2F90146204606F0D6F8FA
:10529000B06009B0BDE8F08F2DE9F84F384E0446F4
:1052A0003768384608F0ECFD0546384608F082FEBF
:1052B00076688046304608F0E3FD8346304608F0C5
:1052C00079FED4F8049006462946484606F0BEF911
:1052D000A76882464146384606F0B8F9014650466E
:1052E00006F0AAF821688246584606F0AFF9414612
:1052F0000446484606F0AAF9314606F0A7F90146E9
:10530000204606F09BF831460446384606F09EF9E2
:10531000294606F09BF90146204606F08FF8014623
:10532000504608F0D5FE174906F090F905F0CAFD81
:1053300011A3D3E9002305F043FF134B044618687B
:105340000D4605F0BFFD02460B462046294605F0F6
:105350005BFC00220D4B05F033FF06F019F808F056
:10536000C5FD83B21A0444BF00F5B4739BB218B2F2
:10537000BDE8F88FAFF30080182D4454FB2109409D
:10538000900400200000E144C405002000002440F7
:1053900080EAE073A3EBE0738B4206DB002801DDBB
:1053A000401A704702D0084470470020704770B51B
:1053B0000546441E14F8011F61B1074E304608F03F
:1053C00009FB0028F6D0861B0448631B304480F894
:1053D0000F31EFE770BD00BF37200108A41800208F
:1053E000024B9A6810439860704700BFA4180020D1
:1053F0000E4B1A78462A16D15A88B2F56D7F12D113
:105400001A79BE2A0FD193F8B2230020EF2A0CD1CB
:1054100013F8012B5040064A9342F9D1D0F1010014
:1054200038BF0020704700207047704700F801081F
:10543000B4FB010808B5FFF7DBFF10B90A20FFF73E
:105440007CFD0C4B0C4918464FF46D7208F0A4FA21
:1054500090F8B023022A84BF002280F8B02390F88D
:10546000B013D02202FB0101044801F5A07108F03D
:1054700093FA08BDA418002000F80108741C00204D
:105480002DE9F04102780346202A00F10100F9D00D
:10549000092AF7D02D2A02D10346414D04E02B2AD8
:1054A00008BF03464FF07E551E460024334616F8CB
:1054B000012BA2F13007F9B209290DD8394920464C
:1054C00006F0C4F80446384606F06CF8014620465B
:1054D00005F0B4FF0446E9E72E2A17D1314F3346D1
:1054E00016F8010B3038C2B2092A0FD806F05AF864
:1054F000394606F05FF90146204605F09FFF29492D
:105500000446384606F0A2F80746E8E71A7802F0A3
:10551000DF02452A38D15A782D2A02D102330126DA
:1055200004E02B2A14BF013302330026013B00277D
:1055300013F8012F303AD1B2092903D80A2101FB0F
:105540000727F5E7B7F59A7F28BF4FF49A77B84653
:105550004FF07E51B8F1070F07D90846124906F0FF
:1055600075F8A8F108080146F4E707F0070737B116
:1055700008460C4906F06AF8013F0146F7E72EB1EC
:10558000204606F017F904E04FF07E51204606F061
:105590005DF80146284606F059F8BDE8F08100BFE5
:1055A000000080BF0000204120BCBE4C70B5064604
:1055B000B6FBF2F40846154614B12046FFF7F6FF95
:1055C00005FB1464024B1B5D00F8013B70BD00BF7E
:1055D000C61701080E4B93F83B21B2B993F83A2154
:1055E000022A06D10B4B1878D0F1010038BF0020F9
:1055F000704793F83C3113B9074B587801E0074BDB
:10560000187D003018BF012070470120704700BF8F
:10561000A4180020280E0020B4060020B0010020AD
:1056200090F83B3210B57BB990F83A3290F83922B5
:10563000934209D201219940B0F8404201332143FD
:10564000A0F84012DBB2F3E710BD90F842321BB174
:10565000D1F1010138BF0021D0F834315A689B687C
:1056600009B11361704753617047F8B5101A0C46C1
:105670001F4605F097FF0546381B05F093FF184BB2
:10568000079E196805F0E2FF29460446284605F002
:10569000DDFF21460746204605F0D8FF0146384683
:1056A00005F0CCFE08F09EFE0E4905F0CFFF06F097
:1056B00093F9069B2146186005F1004008F008FDAB
:1056C000094905F0C3FF094905F0B8FE06F084F961
:1056D0000028BCBF00F50C40A0303060F8BD00BF12
:1056E0004C0000202C7D8E3FA00CB34500A00C4642
:1056F00010B505F057FF0021044606F063F908B124
:10570000204601E004F10040054906F053F8054940
:1057100005F09CFF08F0B4FB034B186010BD00BF00
:105720008096184B35FA8E3C4C00002010B50B4C7F
:10573000E37A8BB10A4B1B78042B0DD9094A0A4B2B
:105740001068526818605A60FFF7D2FF074B1A883A
:10575000074B1A800123237310BD00BFB40600203D
:10576000000200201802002004020020CC010020CA
:105770002C11002044F25063984203DDA0F50C4048
:10578000A0387047034B9842BCBF00F50C40A030D6
:10579000704700BFB0B9FFFF70B5204C204D607955
:1057A00005F0FCFE1F4906F005F82860E07B05F0D7
:1057B000F5FE1C4905F0FEFF1B4E6860EE60A07907
:1057C00005F0ECFE194905F0F5FF194D2860207C25
:1057D00005F0E4FE134905F0EDFF6860A07E05F0DA
:1057E000DDFE144905F0E6FFEE60A860E07905F003
:1057F000D5FE0E4905F0DEFF0F4D2860607C05F0F8
:10580000CDFE084905F0D6FF6860E07E05F0C6FED3
:10581000084905F0CFFFEE60A86070BD741C002041
:10582000E81000200000C8420000FA4400002041B7
:10583000F810002000007A441C1100202DE9F047E8
:10584000304A002392F82050D47F03FB03F019382C
:10585000684300F6C4105843604340F6C41190FBFF
:10586000F1F0294921F813000133072BEDD192F80B
:10587000213092F82260254AC3F1640CB2F8D0506E
:10588000B2F8D29003EB830758425FFA8CFC7F009A
:10589000C6F16408C5EB090980B2002284B221B2C6
:1058A000002904DC002C14BF1C46012400E06446DF
:1058B00001FB01FA64430AFB06FA9AFBF4F4444440
:1058C0004C434FF00A0A94FBFAF43C4424B204FB24
:1058D00009F44FF47A7194FBF1F40D492C445452BD
:1058E00002325044182A80B2D8D1064BBDE8F047A6
:1058F0001B78012B18BF074A074B08BF074A1A60DD
:105900004AE700BF741C0020480C0020A4180020A7
:10591000600C00208971000810000020ED73000861
:10592000084B9A8998811A89D007FCD5054B98892C
:10593000C0B2044B1A899107FBD51A891206FCD410
:10594000704700BF00380040044B1B78834204D9E5
:10595000034B53F820301B6819807047F80600206D
:10596000FC0600200328104B0BD8104A12888A42EC
:1059700007D2012202FA00F093F84D20104383F879
:105980004D0093F84D300F2B0CD1074B002283F8BC
:105990004D20074B198808B2142802DD14391980EC
:1059A00070471A80704700BF380E00202E0000207C
:1059B00024010020144B10B5B3F84E20A3F84E106C
:1059C000891AA3F8502089B240F68C2291421C46D5
:1059D00003D9002283F8522010BDA1F2EF2292B227
:1059E00040F2DA539A4208D894F85200072804D8B3
:1059F000064B23F81010FFF7B5FF94F8523001332F
:105A000084F8523010BD00BF380E0020B8120020BC
:105A10001FB50123ADF80830ADF80410002301A92B
:105A2000ADF80A30ADF80C30ADF8062001F0DCFF1F
:105A300005B05DF804FB2B4B10B54FF4127404FB5A
:105A400000342379DB074CD594F838320BB3236B41
:105A500000221868828494F83C2222B1B4F84422CF
:105A60000132A4F8442294F84222197B002A14BF80
:105A700002220022FFF7CCFF012384F83B320023EF
:105A800084F8393284F83A3284F83832A4F8403253
:105A900010BD94F83B322046012B04BF94F83932F4
:105AA00084F83A32FFF7BCFD94F83B12236B94F86C
:105AB000422249B9012184F83B12002A1868197B57
:105AC00014BF0222002208E0002184F83B128A421F
:105AD0001868197B0CBF02220022BDE81040FFF7B6
