:020000040800F2
:100000000050002009D90008B5D900081DAA000831
:10001000B5D90008B5D90008B5D90008000000001E
:10002000000000000000000000000000B5D900083A
:10003000B5D9000800000000B5D90008F9A90008EA
:10004000B5D90008B5D90008B5D90008B5D9000858
:10005000B5D90008B5D90008B5D900087DAA0008AF
:10006000B5D90008B5D90008B5D90008B5D9000838
:1000700089A90008B5D90008C1A90008B5D90008A8
:10008000B5D90008B5D90008B5D90008B5D9000818
:10009000B5D90008B5D90008B5D9000879AA000873
:1000A000B5D90008B5D90008B5D900086BAA000871
:1000B00061AA000855AA000849AA000819AA000860
:1000C00011AA000815AA00080DAA0008B5D9000851
:1000D000B5D900084DA90008E1A80008B5D9000865
:1000E00081AA0008B5D90008B5D9000800000000B1
:1000F0000000000000000000000000000000000000
:0C01000000000000000000005FF808F1A3
:100110002DE9F04F854D95B0AB68854C13F0080183
:1001200000F0868095F81721042A00F28380DFE82A
:1001300002F003030550750023787CE060787C4A68
:10014000002877D000209E05507002D5137E180736
:1001500070D4E0780023A27800F00706A383754BE3
:1001600042EA06221A60227902F03F06760146EA48
:10017000D00058606079800040EA9210A27902F0C5
:10018000010640EA86209860E07900F00F06F6014B
:1001900046EA5202DA60227A02F07F06360146EA27
:1001A00010101861607A400040EAD212A07A00F084
:1001B000030642EA46225A61E27A02F01F06B601BD
:1001C00046EA90009861207BC00040EA5212DA6152
:1001D0002CE0A27F564B6AB393F82000002201283E
:1001E0009A7727D19A8393F83420082A84BF08226B
:1001F00083F8342094F834004F4A0023DEB286425C
:1002000002F1020212D212F8016C12F8027C46EAE4
:1002100007274A4E46F823700133EFE794F8583029
:10022000434A00203BB1908382F85800012302E04A
:100230000B4600E00023E26D206E101A002802DA5F
:10024000002B00F09B8302F59C4220322266DFF8EF
:1002500004A13B4E00293CD13A4F89468846DAF842
:1002600000305FFA88F09847A0F2EE2292B240F296
:10027000DC539A42D4F8A420334B88BFB5F81A0156
:100280001340002B03DA013B63F0030301332849D9
:1002900003EB880301EB4303A3F8640039887B88F0
:1002A00008F101080B44B988B8F1080F0B44F9882C
:1002B00007F108070B441BB24FF0040193FBF1F365
:1002C00026F8093009F10209C9D10132C4F8A42085
:1002D00009E00027F8B2DAF80030984726F817004E
:1002E0000137082FF6D1AB68590404D594F8A8302B
:1002F0000BB908F03AF995F824210C4B62B303329C
:1003000036F91200A0F57A70B0F57A7FA8BF4FF4E5
:100310007A7020EAE0700BF099F80C490BF09EF926
:100320000B490BF0E7F80BF0D1FA2AE09418002003
:1003300008010020400700202A0100204001002081
:10034000140700206C0100200300008000007A44A4
:1003500000C07F443807002093F8250190B1A84AD7
:10036000D179A84A32F81100B3F8282180B2801A56
:10037000B3F82631C0EB802090FBF3F000B280F39D
:100380000A0080B2AB68A4F8BE009A053FD59E4B28
:100390009E4AB3F81C9092F8B8300FFA89F703EB35
:1003A00083018F4290461EDDDFF868A29AF8012093
:1003B000CAB1974AB2F81A2132807280B280B8F876
:1003C000BA20F28098F8B920134403EB83039F42CC
:1003D00004DD08F0CAF800238AF80030B4F8C03011
:1003E0000133A4F8C03098F8B83003EB83039F4280
:1003F00009DD884F97F80180B8F1000F03D108F0AC
:10040000B4F887F8008009F10109A4F81C900022D3
:10041000B5F81C11B5F81E711346B05E9B088842F2
:10042000C4BF63F07F03DBB20232B842B8BF43F00F
:100430004003082AF1D194F8C200734A984205D1CA
:1004400092F8C300F92804D8013000E0002082F8B7
:10045000C30084F8C230AB686D4A13F480436B4F1D
:100460000CD0B2F81A11B2F8DC20B6F90630881AAE
:10047000834208DD0A44934207DB04E0B6F9062014
:100480008A4202DB16E0002314E00023C4F8D433D0
:10049000C4F8D833C4F8DC33C4F8D030C4F8D4304E
:1004A000B7F846302BB1584B93F8A830002B42F0E8
:1004B000A7800123B7F846206AB194F8A82052B962
:1004C000544A52783AB195F8212112B108F04DF80A
:1004D00001E0002BFAD194F8C3204B4B142A40F0D2
:1004E000B1804C4A50789046D0B1B7F846202AB92E
:1004F00093F8C2305F2B01D108F037F895F820311E
:10050000002B00F09F80B7F84630002B40F09A8017
:1005100094F8C2307D2B40F0958008F026F891E0E9
:1005200093F8C220572A15D13B4B4FF47A721A80A8
:10053000AB68DB0501D508F049FB384B1B68580751
:1005400002D5374A0A21118013F0080326D1A4F8F6
:10055000C43023E0A968490717D55A2A15D193F862
:10056000C6202AB1012283F8C60083F8C72015E00F
:1005700093F8C82082F0010283F8C820294B0AB101
:10058000022200E003221A7008E05D2A02F0418096
:100590005B2A02F057805E2A02F05680B7F8463098
:1005A00033B994F8C2206F2A02D107F069FF15E031
:1005B00095F8202122B11BB994F8C2307E2BF4D0DB
:1005C00094F8C230972B04D1174B4FF4C8721A809D
:1005D00004E0A72B04BF012388F80E3094F8C23042
:1005E000BB2B02D1BB8D023303E0B72B03D1BB8DF4
:1005F000023BBB851FE0BE2B18D17B8D023319E077
:10060000F4040020FC04002008010020681C0020E5
:1006100094180020A8060020300C00202C05002093
:10062000320C0020391D0020441D0020BD2B09D1B3
:100630007B8D023B7B850120014605F0F5FD002303
:1006400084F8C330D5F808E01EF0040F31D094F8D8
:10065000C820A14B8AB1A14A527872B1A04AB6F91A
:100660000610B2F81C21914207DD93F8A82022B9A8
:100670003221A3F8CA1083F8C82094F8B920964B09
:1006800062B193F8CC202AB993F8C62012B932226D
:10069000A3F8CA20012384F8CC300AE093F8C620DE
:1006A0003AB18E4A527822B983F8C620012283F8E3
:1006B000C7208C480123002130F8022F03F1FF3CB2
:1006C000A2F21556B6B2B6F5C77F8CBF002601263A
:1006D0009E4012B2314340F21356B242CCBF0026C4
:1006E000012606FA0CF6314340F2A466B242D4BFAA
:1006F000002201225E1CB240033311430D2B89B24C
:10070000DAD1002307EB4306B6F84660724A31425D
:100710000CBF0026012602F1A8001E540133152B40
:10072000F0D192F8A9306D4E6F4943B96F4BB2F9D1
:100730001C2093F8B83003EB83039A420CDD0B685E
:100740009A0709D5F3784BB9C4F8D030C4F8D4303F
:10075000624B0122DA7001E00023F37094F8AA30B2
:100760005D4A5BB10023F370337943B9C2F8D030EE
:10077000C2F8D430594B01221A7100E0337194F859
:10078000A8300BB901233370F278594B12B9534A90
:10079000127912B110225A6101E010221A610A681E
:1007A000530725D594F8AB104B4B99B1B17991B95A
:1007B0004A484FF0010C80F806C0D3F8DC00C3F8BB
:1007C000EC10C3F8D800B3F8E800C3F8F010A3F8B1
:1007D000E00000E0B1711EF4005F09D094F8AC3085
:1007E0002BB1F37B23B93D4B0121D97300E0F373A7
:1007F00012F00A0F20D094F8AD3037494BB173791D
:1008000043B9364B01205871B1F8C430A1F8F43027
:1008100000E0737194F8AE302BB1737A23B92F4B8B
:100820000121597200E0737294F8AF102A4B19B18C
:10083000B3F8C410A3F8F610900640F19080F27A55
:10084000264B002A00F0868094F8F820DFF8888094
:10085000042A7FD998F8B2208AB1DA79002A7ED1A9
:100860000121D9711A72234B08F1FC0008F580713F
:100870001A7008F0E1FD022388F804316FE0DA71A4
:1008800098F8B320002A37D0B8F9E210B7F8CC2096
:100890000029B8BF494291422EDAB8F9E410002984
:1008A000B8BF4942914227DA1A7A002A57D1012764
:1008B0001F72104B08F584701A70D8F8103108F5C3
:1008C0008671C8F80831D8F81431C8F80C3108F02E
:1008D000B3FD88F8047142E008010020A80600205A
:1008E000941800201A0700202C050020681C002006
:1008F000000C014000000020934A0023337213785B
:100900006BBB012111701A46904F0020391D5052C7
:1009100007F1080107F10C0E5052002143F80E10A8
:100920009E44D053CEF80400CEF80810023207F1EE
:10093000340E5C3743F80E10D9519E441F44042AEC
:10094000CEF80400CEF808107860B96003F1140303
:10095000DAD104E00023F371337284F8043194F89F
:10096000B43003B10123B3726B79082B02D00E2B84
:1009700040F066840023737200F062BC744BD3F8BD
:100980009C31042B00F25C84DFE813F005008B003F
:10099000F8004C033E040123C4F89C316D4B6C4EAF
:1009A0001B6819077DD5D6F8A031D31A002B78DB48
:1009B000694B02F5C332A0325B6806F5D270C6F807
:1009C000A0219847654B06F5D2779A7B184692B1DD
:1009D000D6F8A0210023C6F8AC21E9180022A1F81E
:1009E000002116465E49FA5A5A5206315A520233CB
:1009F000062BF2D186735B4B1B78A3B1B4F8A4210C
:100A0000B5F80031D31AA4F8A431B4F8A621B5F88A
:100A10000231D31AA4F8A631B4F8A821B5F80431EC
:100A2000D31AA4F8A831D4F8AC31494A002B00F00D
:100A30000784D2F8A0114C48CB1A834202F5DB712F
:100A400002F5D87019D8494BDA6882F00802DA60EA
:100A50000023FA5A30F903E016B2B645C4BFDFF8F6
:100A600000E123F80E2031F903E0B645BCBF404E4B
:100A70009A530233062BECD1E2E30023C2F8AC31E7
:100A8000C75ECE5EEA183E4402273B4496FBF7F66B
:100A9000062BA2F80061F3D10120014605F0C4FB4A
:100AA000CEE3D4F89C312A4E0133C4F89C31294B53
:100AB0001B685B0762D5D6F8BC31D31A002B5DDB0F
:100AC000D6F8C031C6F8BC212A4F9BB13B69984784
:100AD0007B689847D6F8BC313A8806F5E270134433
:100AE000C6F8BC3106F5E4717B6998470023C6F867
:100AF000C031A5E3BB689847FB6898471E4AD6F803
:100B0000CC1192F831204B1C934208BF0023D4F83B
:100B1000C42104EB8101C1F8D021D4F89012C4F8AB
:100B2000CC310A4404EB8301D1F8D0010123121A1D
:100B3000C4F89022C4F8C0317A88D4F8BC31134488
:100B4000C4F8BC317CE300BF00000020200200207C
:100B5000080100202C050020A4050020A806002084
:100B6000B8020020CC0500207FC3C901000C014061
:100B7000BE0200207C050020681C0020D4F89C31B7
:100B8000B14E0133C4F89C31B04B1B685F0740F194
:100B9000498207F0FDFBD6F8987246F2A713C71BEF
:100BA0009F42B6F896A2B6F894B240F23B82DFF8C4
:100BB000C892C6F89802B9F80030DFF8B8827BB363
:100BC00098F83100D6F89032D6F89C220138B3FB61
:100BD000F0F0082392FBF3F1521A1044C6F89C027D
:100BE00090FBF3F00AF032FC99490AF037FD99497D
:100BF0000DF0A6F901464FF07E500AF071FB9649C0
:100C00000AF078FC0AF03CFE0023C6F8A432C6F8CD
:100C1000A832B9F80030C6F8A002013BA9F80030AC
:100C200098F831000FFA8BFB0FFA8AFAD4F8903259
:100C3000BBF1000FB8BFCBF1000BBAF1000FB8BF8A
:100C4000CAF1000AD345A8BFDA460138B3FBF0F079
:100C50001FFA8AFACDF818A00AF0F4FB7C490AF0D2
:100C6000FDFC7C490DF06CF901464FF07E500AF016
:100C700037FB79490AF03EFC0DF06EF8D8F8346085
:100C80008146D4F8AC020AF0E1FB31460AF032FCAE
:100C90008046D4F8A002C0EB09000AF0D7FB314629
:100CA00081464FF07E500AF01BFB014648460AF091
:100CB00021FC014640460AF015FB0DF04DF8DDF829
:100CC00018A083460FFA8AF8B8F1FA0F634E03DDD5
:100CD0004FF0FF33336014E030680AF0B7FB814611
:100CE00040460AF0B3FB01465D480AF0F9FA0146B6
:100CF00048460AF0FFFB5A490AF0B0FC0AF0C0FD72
:100D00003060366806F1FF39B9F1C60F06D8C6EB78
:100D10000B03C4F8B032C4F8AC622FE0D4F8B032A0
:100D2000002EC3EB0B0BDFF820A1C4F8ACB225DD1D
:100D3000C6F596700AF08AFB4A490AF08FFC804695
:100D4000CAF8B40230460AF081FB41460AF0D2FBF1
:100D5000064658460AF07AFB414683464FF07E50DD
:100D60000AF0BEFA014658460AF0C4FB0146304676
:100D70000AF0B8FA0AF084FDCAF8AC023A4B1868D7
:100D800002930AF05FFB394906460AF0B3FB83463B
:100D9000D4F8C0020AF05AFB8046D4F8C4020AF024
:100DA00055FB014640460AF059FC314A059011684E
:100DB0000AF0A0FB31460AF09DFB2E4A4FF07C5111
:100DC000D2F83CA0D4F8A482D4F8AC620790039285
:100DD0000AF090FB59460AF08DFB5946844640467E
:100DE000CDF810C00AF086FBDDF810C00146604661
:100DF0000AF078FAD4F8A8120AF074FA51460AF008
:100E000079FB834630460AF021FB514684464FF079
:100E10007E50CDF810C00AF063FADDF810C001462C
:100E200060460AF067FB014658460AF05BFA039AEF
:100E3000029BB9F1C60FC4F8A80291469A461DD884
:100E4000014AC2F8DC601EE0080100202C050020E9
:100E500080E6C547B1DC423ED048874A40000020CA
:100E6000000061440000C8423C1D0020BD378635AB
:100E7000C0050020681C0020320C00200AF000FD94
:100E8000B04BC3F8DC00079940460AF02BFA034642
:100E9000D4F8C8024FF00008CAF80080C4F8B8823D
:100EA000C4F8BC82C4F8C082C4F8C482301A029369
:100EB0000AF0CCFAA4490AF01DFB824638460AF033
:100EC000C1FA014650460AF0C9FB0AF0D9FC40F2CB
:100ED000DC529E499042A8BF10468842B8BF0846DF
:100EE0000A21C4F8C86207F0ABFC029BD9F838604D
:100EF0008246314618460AF0FDFA074650460AF087
:100F0000A5FA314682464FF07E500AF0E9F90146D3
:100F100050460AF0EFFA014638460AF0E3F9C4F801
:100F2000A4020CF019FF0521064607F089FC069F74
:100F3000DFF810B23BB2B3F5487FC4F8CC026BDAED
:100F40009BF8D0320BBBDBF8D820DBF8DC308048D4
:100F5000D31AB3F5FA7FA8BF4FF4FA738342A8BF40
:100F600018460A2107F06CFC7A4B80221B79584303
:100F700090FBF2F3B3F5967FA8BF4FF49673A2F5FA
:100F8000D6729342B8BF134601E0DBF8D43299F829
:100F90000A209B1B5A43202192FBF1F299F814007E
:100FA000D4F8EC1042F2040603FB00106A4BB2F5D1
:100FB000967FA8BF4FF496729842A8BF1846674B19
:100FC0009842B8BF1846C4F8EC0090FBF6F0644EA7
:100FD000B242ACBF8618861999F81E000AF036FA9C
:100FE000D4F8D812074605980AF07CF9014638462D
:100FF0000AF080FA4FF06C510AF07CFA0AF040FCDB
:101000006FF095039628A8BF96209842B8BF18465F
:10101000301AC4F8F00001E0CBF8F080059AC4F86B
:10102000D8220DE1D4F89C310133C4F89C31AB686F
:10103000DE0540F1E9804B4EB36863B94A4F3B7817
:10104000013B042B00F2FC80DFE813F011001100DB
:101050001100CD00B600B06806F0C7FE0028EDD044
:10106000404B986806F0BCFE03F0A2F9F3E795F850
:101070002A91B9F1000F03D0B9F1010F09D098E01E
:101080007A783A4BB06803EB0213596806F0A3FE76
:101090008CE0B068DFF8CC8003681B6998470028B3
:1010A00000F087803B78304E022B2CD0032B35D0BC
:1010B000012B7ED12E4BD3F80090736AC3EB09034A
:1010C000632B76D9F369042B1BDCDFF8A0A0D8F8DA
:1010D00008000AEB0313596806F07DFE7378D8F810
:1010E00008800AEB03139E6816F8011B19B14046ED
:1010F00007F01BF9F8E7FB69C7F824900133FB619F
:1011000057E0022053E07278184BD8F8080003EB40
:101110000213596806F05FFE032048E03369012B93
:101120002AD0022B42D0002B43D1326A114BC6F891
:10113000109053F8321003EBC2035B687161B36126
:1011400037E000BF080100200024744924FAFFFFA3
:101150000CFEFFFF681C002020031900E0FCE6FFE6
:10116000D4FEFFFFD00500206007002030000108FA
:10117000901800201C010108F369B269934209DA52
:101180007269D8F80800D15C07F0CFF8F369013331
:10119000F3610EE0326A7B490132326251F832204B
:1011A0000023F36102B90223336102E0042007F057
:1011B000E1F800237B6043E07B68052201337B601C
:1011C0007B7801200133DBB2B3FBF2F202EB820247
:1011D0009B1A7B706C4B6D4A1B68BB60002384F8C4
:1011E000F830D3720DE0684B1A68BB68D21A40F62B
:1011F000C4139A4224D9664B05201A6822F02002B3
:101200001A6007F0B7F81BE00023C4F89C31604B6C
:101210001B68D80614D55C4B1A685E4B19683C31C4
:101220008A420DD31A605C4F5C4A5D4B5D4EC3F839
:10123000DC223B880B20336107F0C4F83B887361E4
:1012400007F0A6F8AB89E06533B1554AD2F8E02241
:10125000821A002AC1F20A82534E1844C4F8E002EE
:10126000736852489847524B1A889946002A00F0F2
:10127000C0804E494FF0000801F108064746B9F812
:1012800000B04C4BBBF57A7F08D1A3F13C010A209A
:1012900000FB0711002243F808200A61434AD05F8F
:1012A00053F80820024443F808200AF0CFF83369C5
:1012B0000133012B336104D1002370603060B360CF
:1012C0002AE0D6F800C002936146CDF810C0039022
:1012D0000AF006F8029B824618460AF0B7F8014663
:1012E00050460AF0BBF9DDF810C00146604609F02F
:1012F000F9FF039A0346194670601046029309F0FD
:10130000EFFF014650460AF0F5F8B16809F0EAFF30
:10131000029BF0603360B0602448002300F1500A63
:10132000BBF1010FC35327F80A3055D130690128AA
:1013300007DD01380AF08AF80146F0680AF08EF9F4
:1013400000E000200CF084FF834695F8F60098B387
:101350000AF07CF8014658460AF088FA60B34FF468
:101360007A73A9F800300023C4F8FC32C4F81033B3
:10137000C4F82433C4F83033C4F82C33C4F8283309
:101380002AE000BF1C01010890180020A8060020D8
:101390002C050020240C0020180C00204000002008
:1013A00008010020000C014030050020EC03002063
:1013B000300C002030040020B54B4FF47A7258F8FE
:1013C00003300A2003F5FA7393FBF2F32AF807308F
:1013D0000F21012207F02EF80237062F08F104082A
:1013E00006F114067FF44BAFB9F80030013BA9F8C1
:1013F00000300023A74E06F5397706F54D72F95AED
:101400009A5A8A1AFA520233062BF3D1A24B1B685E
:1014100013F0020300F09883A04BA14F06F23A307C
:101420005B689847388806F23A36002844D0002393
:101430001A46DFF888C2B0F5C87F04BF00214CF817
:10144000021036F903805CF80210DFF848E24144EC
:101450004CF80210002105EB0308F1520233062B71
:10146000DFF848C2A8F8FA1002F10402E1D101281D
:101470001FD1DEF840334FF4C872C83393FBF2F348
:10148000ACF8FA30DEF84433C83393FBF2F3ACF82F
:10149000FC30DEF84833C83393FBF2F2814B1B88F3
:1014A000D21A814BACF8FE2059859985014604F08B
:1014B000BBFE3B88013B3B80AB687C4A59077CD52F
:1014C000B4F8CA10734B322913D1B2F8FA00A3F85A
:1014D0004C03B2F8FC00B2F8FE20A3F84E03A3F8C8
:1014E0005023714A508D928DA3F85203A3F85423D0
:1014F00001E000293DD000221746DFF8C4E132297F
:1015000004BF00234EF807305EF8070036F902C02A
:1015100005EB020860444EF807004FF0000E26F875
:1015200002E00232062A5B4B6048A8F8FAE007F1B5
:101530000407E2D1012919D15D4A02261670B3F8D9
:101540004C2383F8CCE0A0F8FA20B3F84E2383F8BC
:10155000C610A0F8FC20B3F85023A0F8FE20524A91
:10156000B3F85203B3F85433508593850139A4F886
:10157000CA1094F8C720474BFAB1D3F85803322168
:10158000002290FBF1F083F8C720A5F8FA00D3F809
:101590005C03D3F8603390FBF1F093FBF1F1414B26
:1015A000A5F8FC001B880120C91A3F4BA5F8FE10C6
:1015B00001465A859A8504F037FEB4F83A23B5F807
:1015C000FA30D31AA4F83A33B4F83C23B5F8FC3017
:1015D000D31AA4F83C33B4F83E23B5F8FE30D31A3E
:1015E000A4F83E3306F0D4FED4F864330646C31A9A
:1015F0001846069309F026FF2E4A0790D16809F095
:1016000079FF294BC4F8646393F82E70089005970E
:1016100000273E46BB46984627490DF12C0A885FB5
:1016200009F014FF089909F065FF059A4AF80700C8
:10163000002A49D0104609F009FF01464FF07E50BC
:101640000AF00CF8DFF87C90034619464FF07E5004
:10165000029309F045FE57F8091009F04BFFA9F174
:101660002E010246885F039209F0F0FE029B1946A4
:1016700009F040FF039A0146104609F033FE49F88D
:1016800007000AF0FDF809F10C0929F8060020E02E
:1016900030040020080100202C0500204405002013
:1016A000441D00202C000020681C002094180020FD
:1016B000391D002030050020EC03002048040020E4
:1016C0006004002070040020BF4BA3F13A02B25A1C
:1016D000F252BD4B0437F25E0236062E02FB02BB0D
:1016E000994699D1642303FB0BFBB84B09F1080021
:1016F0001B880BA95B439BFBF3FBABF1490B1FFA68
:101700008BFB06F06BFFBBF13B0F6BD9B04BD4F8F2
:101710008463B3F9000009F099FE014630464FF0AA
:1017200001070AF0A3F800B90746AA4B3146D4F8DE
:1017300080035F730CF002FC0746C4F88803D4F8FA
:101740007C03D4F884B300F10046D4F8800301464A
:1017500009F0D0FE59468146584609F0CBFE0146B5
:10176000484609F0BFFD0CF073FD014630460CF011
:10177000E5FB0646C4F88C03384609F0F7FA8EA359
:10178000D3E9002309F046FB09F056FD0CF0E4FA1A
:10179000A4F89402304609F0E9FA87A3D3E90023BC
:1017A00009F038FB09F048FD0CF0D6FA8A4BA4F892
:1017B00096021B681B076ED50BA9884806F00EFF22
:1017C000B5F8F40009F03EFE4FF07E51834609F073
:1017D00089FD01464FF07E5009F040FF4FF0000AAE
:1017E00005902EE0B5F8F20009F02CFE4FF07E5186
:1017F000074609F077FD01464FF07E5009F02EFFB5
:101800004FF0000B0646764B384653F81B100293F8
:1018100009F070FE024639F90B00039209F016FE3A
:10182000039A0146104609F05DFD314609F062FE5B
:10183000029B43F81B000BF1020BBBF1060FE2D138
:1018400064E7DFF8AC91584609F5647252F81A1053
:10185000039209F04FFE09F5D271844631F90A006E
:10186000CDF810C009F0F2FDDDF810C00146604669
:1018700009F038FD059909F03DFE039A42F81A0077
:101880000AF1020ABAF1060FDBD1104606F05EFF3C
:10189000A9F8C40044E0DFF85CB151460BF1040044
:1018A00006F09CFEDBF80400DBF808300146DBF8AC
:1018B0000CA0029309F01EFE029B814619461846B1
:1018C00009F018FE0146484609F00CFD51468146D4
:1018D000504609F00FFE0146484609F003FD0CF0A2
:1018E000B7FC0021814609F099FFA0B9DBF804009C
:1018F000494609F0B3FE4946CBF80400DBF808007E
:1019000009F0ACFE4946CBF80800DBF80C0009F002
:10191000A5FECBF80C00334806F018FFA4F8C4006D
:101920003149079809F0E6FD06F10046814607F1C6
:101930000047B4F9C4000F960E9709F087FD00F137
:10194000004009F013FA1EA3D3E9002309F062FA5C
:1019500009F072FC1090B4F9740309F077FD11904E
:10196000B4F9760309F072FD1290B4F9780309F026
:101970006DFD0EA9139011A806F030FE1B4B1C4EF6
:1019800093F84430012B37D1124B5B7873B9D6F8FA
:101990009C33402093FBF0F0181A09F057FD13997F
:1019A00009F0A0FC09F06CFFC6F89C03D4F89C3346
:1019B000402093FBF0F021E03B597E90A9E7814065
:1019C000399D52A246DF913F7C0400202C0000206C
:1019D000BC050020A80600202C050020980400204B
:1019E0008404002004000020BD378635681C0020D8
:1019F0000801002000000020B94B188809F026FDDE
:101A00000146139809F06CFCB64B139019684846D0
:101A100009F068FC0146484609F020FED4F8A0739E
:101A200081463946139809F05BFC0146484609F0A7
:101A300061FD0146384609F055FC0746C4F8A0038D
:101A40001198D4F8B8920CF087F998F8301006F095
:101A5000F7FE4844C4F8B8021298D4F8BC920CF0CF
:101A60007BF998F8301006F0EBFE4844C4F8BC024D
:101A70003846D4F8C0920CF06FF998F82F1006F0A1
:101A8000DFFE994B069F1A6848443A441A60D4F81E
:101A9000C432964E0133C4F8C43298F87630C4F894
:101AA000C002002B56D0D6F87C03D6F880930146AE
:101AB00009F020FD49468046484609F01BFD0146D5
:101AC000404609F00FFCD6F8847380463946384604
:101AD00009F010FD0146404609F004FC0CF0B8FB8B
:101AE0000146384609F0BAFD8149074609F0AAFEC9
:101AF00018B10023A6F8A4332CE038460CF0CEF938
:101B00007C4B196809F0F6FC0CF026F9B0F5617F02
:101B1000A8BF4FF4617009F017F96FA3D3E9002350
:101B200009F0A2FA09F088FB0CF07AF9724B07462B
:101B300093F8760009F08AFC394609F0DBFC0CF0DA
:101B40000BF9A6F8A40305E0A6F83A33A6F83C334F
:101B5000A6F83E336B79012B0ED1B4F9A623B4F964
:101B6000E83203EB4203032293FBF2F39BB2A4F8A7
:101B7000AC33A4F8A63303E0B4F8E832A4F8AC33ED
:101B8000B4F8E432594FA4F8A833B4F8E6325A4E08
:101B9000A4F8AA3306F0FCFB584BE0651A681860FD
:101BA000821AA4F8AE2300F067FD554B196811F0B6
:101BB000080F34D0B7F8E62002F145039BB28A2B18
:101BC00029D8504B58799E4628B3B7F8F430B7F867
:101BD000C400C01A80B283B21FB2B337BCBF00F5D5
:101BE000B4739BB218B2B3289EF80D70C4BFA3F5AE
:101BF000B4739BB295F8EC008FB140B240424343BE
:101C0000707A1BB243436FF01D0093FBF0F31A444C
:101C1000A4F8E62003E0B4F8C430A4F8F4304F0789
:101C200040F19780374B9A79002A00F092801F7C10
:101C3000002F40F0848096F8730096F872202B4BAA
:101C400080B3B4F8E8C0B4F9E0000FFA8CFEC0EB42
:101C50000E08B8F1000FB8BFC8F1000890450FDDBD
:101C60008645C8BF52421FFA8CFCC8BF92B2C3F867
:101C7000EC706244012783F8B073A4F8E82068E0B0
:101C800093F8B0232AB1D3F8DC2083F8B073C3F8FB
:101C9000D820D4F8F030B5F8D2201844B5F8D030B8
:101CA000984244E0B4F9E070B4F9E8E0C7EB0E0EF6
:101CB0008EEAEE7CACEBEE7C944525DD02229EFBA9
:101CC000F2F2C3F8D422012283F8D02283F8B023A1
:101CD00025E000BFAFF30080A2EB0FE5DD169640D4
:101CE0002C000020C80500203C1D00200801002019
:101CF0008FC2753CC4050020681C00202C0C0020FD
:101D00002C050020A806002093F8B0233AB1D3F8A0
:101D1000DC2083F8D002C3F8D82083F8B003D4F8CD
:101D2000F020B5F8D0303A44B5F8D2009A4203DB3F
:101D30008242B4BF13460346A4F8E83009E0B4F881
:101D4000E42095F92301D4F8F03000FB0323A4F834
:101D5000E43096F876305BB1A94BDA780AB91B7992
:101D600033B1B4F8E830B4F8A4231344A4F8E8304D
:101D7000880640F1B180A24BDA791AB91A7A002AA2
:101D800000F0AA801B7B002B00F0A680B4F9C400F1
:101D900009F05CFB9B4909F0ADFB80460CF040F874
:101DA000814640460BF0A2FF96F8C5A08046964FAC
:101DB000B4F92201BAF1000F5CD0B7F81E31CAF1B4
:101DC00000071FFA83FB1BB2C01A06F023FFB842BC
:101DD00003DB5045A8BF504600E03846B4F81C313C
:101DE0008344B4F920019AB21BB21FFA8BFBC01ACC
:101DF000A4F81EB1039206F00DFFB842039A03DB6C
:101E00005045B4BF074657461744BFB2A4F81C71EB
:101E10000FFA8BF009F01AFB824638B209F016FB74
:101E200041460746504609F065FB49468346384619
:101E300009F060FB0146584609F052FA734909F06F
:101E40000DFC09F01DFD4946A4F81801504609F0A3
:101E500051FB41468146384609F04CFB0146484655
:101E600009F040FA694909F0F9FB09F009FDA4F805
:101E70001A0131E009F0EAFA8346B7F9200109F0C6
:101E8000E5FA41468246584609F034FB4946034686
:101E90005046029309F02EFB029B0146184609F0BA
:101EA0001FFA5A4909F0DAFB09F0EAFC4946A7F89B
:101EB0001801584609F01EFB41468146504609F07C
:101EC00019FB0146484609F00DFA504909F0C6FBD6
:101ED00009F0D6FCA7F81A014D4B1B6998474D4BEA
:101EE0001A78032A13D9B4F9E600B4F9B613002816
:101EF000B8BF40426FF063031B1A994204DB00F144
:101F000064038B42A8BF0B46A4F8B6331DE0012A38
:101F10001BD86B79013B142B00F23D82DFE813F0F4
:101F2000C2003B023B028000D5003B023B026B013A
:101F30003B023B023B023B023B02F1003B023B0205
:101F40003B023B023B02D101080296F9BEB0B4F954
:101F5000B613CBF1000B01FB0BFBB4F8E830B4F87F
:101F6000B493B4F8B2A32C4F4FF00008904507F19A
:101F70001007CED218B20392029309F067FA57F80D
:101F8000101C09F0B7FA84460FFA89F0CDF810C09A
:101F900009F05CFA57F8081C09F0ACFADDF810C03B
:101FA0000146604609F09EF984460FFA8AF0CDF8A2
:101FB00010C009F04BFA57F80C1C09F09BFADDF839
:101FC00010C00146604609F08DF984465846CDF8A8
:101FD00010C009F03BFA57F8041C09F08BFADDF841
:101FE00010C00146604609F07DF909F049FC0B4933
:101FF000029B21F81800039A08F10108B6E700BF18
:10200000A806002035FA8E3C08010020000020417F
:10201000000000204C1C0020E80500204E1C002081
:1020200096F89E30042013F0020F0CBF4FF0010B06
:102030004FF0FF3B13F0010F0CBF4FF0010A4FF0C0
:10204000FF3A06F0B7FAB4F8B693B4F8B4830BFBD2
:1020500009FB0AFB08FA96F8A6301FFA8BFB13F06F
:10206000020F0CBF01224FF0FF32AD4F584413F066
:10207000010F1FFA8AFA82440CBF01234FF0FF338D
:10208000052002FB09F903FB08F8A7F808A006F0F1
:1020900091FA1FFA89F91FFA88F848448044A7F892
:1020A0000A8078E196F8A630052013F0010FB4F805
:1020B000B6330CBF01274FF0FF375F4306F07AFAC3
:1020C000BFB2974B3844588165E1002006F072FAA0
:1020D000B4F9962296F97E304FF032085343904F70
:1020E00093FBF8F318443880012006F063FA96F960
:1020F0008630B4F99422534393FBF8F84044788037
:1021000049E1884B864F5A78994612B9B5F8D430D0
:102110000BE0B4F9E820B5F8D030B5F8D2109A4207
:1021200003DB9142B4BF0B461346FB81FA897E4B19
:1021300095F822811A80B8F1000F28D0022006F00D
:1021400039FAB6F98830B6F88A20984203DB13B220
:102150009842B8BF0346B5F81A217449D01AB4F8AA
:10216000B83300B20FFA83FE864501DA984402E0E4
:1021700003DDC8EB0308A1F8B883B4F9B81396F9E6
:102180008E304B43642193FBF1F31A44BA8099F8E3
:102190000A306BB1B4F8E230FB803B81B4F8E63032
:1021A0007B81B4F8E430BB81DFF87481032709E058
:1021B000B4F8B233FB803B81B4F8B6337B81B4F81A
:1021C000B433F0E706EBC703B8F9069093F97E3015
:1021D000384609FB03F9642399FBF3F9A8F8069044
:1021E00006F0E8F901374844072FA8F8060008F17F
:1021F0000208E7D1CFE04B4B494F5A78194612B944
:10220000B5F8D4300BE0B4F9E820B5F8D030B5F823
:10221000D2009A4203DB9042B4BF03461346FB81CF
:10222000FA89414B1A808B7AA3B196F89630B4F8AC
:10223000E41013F0010F0CBF01224FF0FF324A43AC
:1022400013F0020F92B20CBF01204FF0FF30B4F830
:10225000E23013E096F89630B4F8B41313F0010F9F
:102260000CBF01224FF0FF324A4313F0020FB4F8C3
:10227000B23392B20CBF01204FF0FF3000FB0322BB
:10228000FA8096F89E2012F0010F0CBF01204FF04B
:10229000FF30414312F0020F89B20CBF01224FF010
:1022A000FF3202FB031303203B8106F083F9FB8816
:1022B0001844F880042006F07DF93B8918443881E1
:1022C00069E096F89E20B4F8B43312F0010F0CBF09
:1022D0004FF001084FF0FF3808FB03F8104F1FFACA
:1022E00088F80420A7F8088006F064F996F8A6207C
:1022F000B4F8B23312F0010F40440CBF4FF00108A4
:102300004FF0FF3808FB03F838811FFA88F80520E2
:10231000A7F80A8006F04EF9404478813BE000BF00
:1023200086000020A80600204E1C00200801002086
:10233000B4F8B6A3032706EBC70393F87E30C7F1C2
:10234000060113F0020F0CBF01224FF0FF3202FB17
:102350000AF221F00101214413F0010FB1F8B21388
:102360000CBF4FF001094FF0FF3992B209FB012970
:10237000DFF8A8821FFA89F928F81790384606F086
:1023800019F9484428F817000137072FD3D1B4F8BA
:10239000E820A14B1A80AB68990631D5002006F0E1
:1023A00009F99E4F80463880012006F003F994F821
:1023B000B0307880DFF888E213B396F8C030BEF909
:1023C000941213F0020F96F986204FF0320396F91B
:1023D0007E40BEF996E218D04A4364420EFB04FEEA
:1023E00092FBF3F26FF0310192B29EFBF1F11144D6
:1023F0009EFBF3FE88447244A7F800801044788066
:10240000874B884A03F1100411E00EFB04F44A43A1
:1024100094FBF3F4A04492FBF3F3A7F80080184474
:10242000EDE723F8021FA34202F108020CD0B3F932
:102430000200B2F97810B2F87A708842F1DB39B252
:102440008142A8BF0146ECE796F8C0305A0706D48F
:10245000754B714A93F800C0118801230FE0734B4C
:102460000024DE7D043E724BA01903EB4403C0B28E
:102470001989013406F0B8FC042CF4D1E8E763456F
:1024800008D232F9130009B28842A8BF014689B2C6
:102490000133F4E7B5F8D200B5F8D060431A1FFA5B
:1024A00083F9AB68B5F8D44003F480420992604ADE
:1024B00003F0100B5F4BB2F90620B5F8D6705B78CD
:1024C000B5F81AA1B5F8D8E0B5F81C510192B2B22E
:1024D00008930697059507921FFA84F84FEA4C0C6B
:1024E0000023634539D00AB282424B4D02DDEA5ADD
:1024F0004A44EA52099F484AA7B1019D5545D55E15
:1025000007DD754503DB8542A8BF05461CE075461F
:102510001AE0A54204DB069FBD42A8BF3D4613E07A
:10252000254611E0ED5EB54203DB8542A8BF0546B6
:1025300000E03546D552059F019DBD4205DA079D55
:10254000BBF1000F18BF4546D552089A1AB93A4A4E
:102550009D5A314A9D520233C3E7344B9B7D002B79
:102560004BD0364A5379013B142B3AD8DFE803F0BD
:102570000B3939213C39391939393939392939393E
:10258000393939212900274B93F8BF301BB1234B30
:10259000002059892FE0274B58780028F7D10146B1
:1025A00029E01E4C0020E18806F01EFC0120218954
:1025B00021E01A4C0020218906F016FC01206189D7
:1025C00019E0164C0020E18806F00EFC012021895C
:1025D00006F00AFC0220618906F006FC0320A189AE
:1025E00009E093689B0608D50C4C0020218806F072
:1025F000FBFB6188012006F0F7FB05F0BFFF35E02B
:102600000C4B1B78002B3DF454AF05F039FFFDF760
:1026100050BF012219E000BF4E1C002086000020A0
:1026200084000020681C00204C1C0020D0050020E5
:1026300014070020A8060020C204002094180020DF
:1026400008010020022200E003225FFA82F9002044
:1026500009F1FF33014685F8B43303F0E5FD0220AC
:1026600028214A4605F0E6FEFDF798BF15B0BDE803
:10267000F08F00BFAFF30080634B2DE9F04FB3F94B
:102680000600624B8DB0DA8C90420FDBB0F5FA6F2A
:1026900093F8254007DA811A4C43A2F5FA6294FBBD
:1026A000F2F4643403E0C4F1640400E06424584AA2
:1026B00093F82370B2F81A1192F9EC2093F8705045
:1026C00093F87160524293F8243092B20491002141
:1026D0000692059707930A464B4BDDF810C031F977
:1026E000038040F2E637CCEB080303F2F31EBE454D
:1026F00003D8002BB8BF5B4201E04FF4FA73022A03
:10270000DFF814C12CD025B1AB42CCBFC5EB03031D
:1027100000236427DFF804A193FBF7FE6FF0630B3F
:102720003AF81E900BFB0E3B0EF1010E3AF91EA07B
:102730000FFA89FECEEB0A0E0EFB0BFE9EFBF7FE98
:10274000CE442CF801E0DDF814C003FB0CFE314B45
:102750009EFBF3F33B449BB2634393FBF7F314E01C
:1027600026B1B342CCBFC6EB03030023DDF818E06B
:1027700003FB0EF7ACF80470079F002BB8BF5B4259
:102780007B43244F93FBF7F36433DFF88090DFF84B
:1027900090C002EB090797F801A097F80BB07F7D76
:1027A00003FB0AFA03FB0BFB7B434FF0640E9AFB1F
:1027B000FEFA02F80CA093FBFEF30CF1030A0CF1F5
:1027C000060C02F80C30DDF810C09BFBFEFBE04568
:1027D00002F80AB0104B05DA33F801E0CEF1000E32
:1027E00023F801E00132032A01F102017FF474AF02
:1027F000074EB6F81C21904214DBB0F5FA6FA8BF63
:102800004FF4FA600FE000BF14070020681C00209E
:10281000941800200CFEFFFFEA010020380C002075
:10282000460C00201046801A4FF47A714843C2F5D6
:10283000FA62B0FBF2F24FF0640CB54C92FBFCF183
:1028400004EB4100B0F818E06FF0630000FB0122D8
:1028500004EB4101B1F91A000FFA8EF1411A4A4313
:1028600092FBFCFCE644A3F806E0AA4BAA4D5B7A77
:10287000002B44D0A94BB3F90000A94BB3F90030A9
:10288000C01A08F061FAA0A3D3E9002308F0C2FA45
:102890000022A44B08F0E8FB08F0CEFC80460BF0C9
:1028A00025FA814640460BF0BBFA8046B5F9020096
:1028B00008F0CCFD8246B5F9000008F0C7FD494696
:1028C000834608F017FE41460746504608F012FEC0
:1028D0000146384608F004FD08F0D2FF494628803A
:1028E000504608F007FE41468146584608F002FE71
:1028F0000146484608F0F6FC08F0C2FF6880D6F8AA
:102900000880DFF850A218F0020F00F08380864B99
:1029100006211A88236B7E4D1A4494F834302263C2
:102920000133DBB2B3FBF1F901FB193919F0FF07F1
:1029300084F8343004975CD17C4F7D4B7878A96B58
:1029400033F810E04FF0080B91FBFBF01FFA8EFEFE
:10295000081A7044A86390FBFBF080B203920193C5
:1029600008F074FD734908F0C5FD734908F076FE60
:1029700081469AF80B0108F069FD0146484608F0C7
:10298000B9FD08F0A3FF9AF80E11A887039A019BDE
:1029900079B37879296C33F8100091FBFBF380B29E
:1029A000CB1A03442B6493FBFBF39BB240F6E44148
:1029B000594340F6FF70B1FBF0F1BAF808014FF44B
:1029C0007A73091A5943BAF8060191FBF0F14A43A8
:1029D00092FBF3F36964D5E91201C01841EBE3718E
:1029E000C5E91201554A002308F090FF049F2865AD
:1029F0002F63534AA38F12889A4203D396F80D216E
:102A00009A4203D9002384F8543003E0404B042257
:102A100083F854204B483E4B417B94F85420864623
:102A200001B1012118F4007F83F8551022D0464DE2
:102A3000464B95F8B8101B8801EB810518B2A842E7
:102A400015DD344D6D787DB1012584F856503E4D2D
:102A500095F8B950294401EB8101884207DD2C49E2
:102A6000022081F8560002E0022184F856100BB9CA
:102A700084F85630364D2B6899060DD59EF80A30ED
:102A800013B9304BDB7A23B1224BDB7A0BB901232C
:102A900000E0002384F8573094F856101C4B0229AC
:102AA00002D14C204E211DE0012904D14D2153209B
:102AB0004C220B4607E093F85710012906D153200A
:102AC00001464E224D2302F083FF50E093F855104B
:102AD000012903D1532001460246F3E7042A03D11A
:102AE00053204D210A460AE0022A03D15320014611
:102AF0004D2204E0012A2FD153204D214E224423A0
:102B0000E1E700BFAFF30080182D4454FB210940DA
:102B1000380C0020A8060020EA010020CC0100208B
:102B2000FE01002000806640B6040020F40400206E
:102B3000FC0400203333534000F07F45407E050005
:102B400004050020B0010020681C002024010020A2
:102B50002C05002094180020B14A107818B13220BA
:102B600003F0F4F903E083F8580005F0FBFBAD4BEC
:102B70001A8812B12B689A0702D4AB4B1B882BB171
:102B8000AA4BDA6882F00802DA600FE0A84B9A7864
:102B900012B1A64A082111615B7813B1A34B082238
:102BA0005A61A44B1B780BB107F026F9B3681B06DA
:102BB00062D5A14FE26D3B68A04F9A1A002A5BDBF9
:102BC00003F543435033FB6597F860309BB97A2394
:102BD0008DF824309A4B0222B3F900306D20C3F1F6
:102BE000B40393FBF2F38DF82530FF2109AB02F01B
:102BF0003BFC012325E0012B26D192497923B1F931
:102C000000208DF824300A2392FBF3F25A32B42AC2
:102C1000A8BFB42222EAE2728DF82520B1F9022081
:102C20006D2092FBF3F35A33B42BA8BFB42323EAED
:102C3000E3738DF82630FF2109AB032202F014FC68
:102C4000022387F8603017E0022B15D164238DF83A
:102C5000243001238DF82530754B6D205B78FF21E2
:102C6000002B18BF01238DF82630032209AB02F098
:102C7000FBFB002384F860306F49636E0A68D31A47
:102C8000002B11DB6A4B597B61B99970674BD9688E
:102C900081F00801D96002F5F423684A03F59073C6
:102CA000536601E001229A700027D4F87021634B2B
:102CB0009742DFF8A8A180F23F8703F168014C201A
:102CC00000FB0711604A11609AF80010914619B193
:102CD00002F06CF900F030BF93F8003113B15B4A99
:102CE0005B4BDA60D9F80030DFF85CA1186805F0BA
:102CF0007CF8002800F01987DAF80030186805F031
:102D00006FF8DAF8003093F84920D2B9B0F1240C0A
:102D1000DCF1000252EB0C0283F84920002AE1D1D9
:102D2000434B5B78002BDDD1232802D102F03EF922
:102D3000D8E796F8B5338342D4D1464A464B1A6059
:102D4000CDE7012A05D14D2814BF0022022200F050
:102D5000E8BE022A05D13C2814BF0022032200F05D
:102D6000E0BE032A0DD140284FF0000200F2D986C0
:102D700083F847205A7183F848001871042200F044
:102D8000D0BE042A07D11A7983F846005040187142
:102D9000052200F0C6BE052AA4D193F8481093F886
:102DA00047209142197907D941401971511C83F884
:102DB00047101344987195E7814240F0AF8693F82D
:102DC0004630752B00F02D8400F21181692B00F044
:102DD000728300F2C280452B00F0818640D8422BDE
:102DE00000F03A860CD8402B00F05C86412B40F076
:102DF0008C86002005F02CF84FF0000A00F063BE2E
:102E0000432B00F0FD85442B40F07F86002005F029
:102E10001FF80A4B012283F8002100F07ABE00BFA0
:102E2000391D0020441D0020300C0020000C014002
:102E3000A8060020290C002064010020380C002086
:102E4000CC0100209C030020440000200400FA056F
:102E500000ED00E0EFBEADDEF04F00204C1D002085
:102E6000662B00F095826CD8642B00F06282652B93
:102E700040F04B860B2004F0EBFFD84BDFF878A333
:102E8000B3F9000004F0E7FFBAF81E0100B204F045
:102E9000E2FF2B68C3F3C000C3F38002800040EA66
:102EA0004200C3F340021043C3F3401240EAC200A1
:102EB00003F01003184304F0CEFFC94A002092F833
:102EC00004E0D3784FEA8E0E4EEA430E53784EEA72
:102ED000030E93794EEAC30E53794EEA431E537A9A
:102EE0004EEA831EBF4BD9794EEAC11E197A4EEACB
:102EF000012E597A4EEA412ED1794EEA812E117A6D
:102F0000927A4EEAC12E4EEA023E5A7B9AF81C1182
:102F10004EEA423E9A7B4EEA823E1A7C4EEA024ECE
:102F20001A794EEA021E5A7C4EEA424E9A7C4EEACA
:102F3000824EDA7C1B7D4EEAC24E4EEA035E0346A9
:102F40000FE2672B00F06482682B40F0DE851020D2
:102F500004F07EFF4FF0000AA2E26F2B00F02983FD
:102F600024D86C2B00F0D98218D86A2B00F0B382D9
:102F70006B2B40F0CA85DFF880A2052004F068FFC3
:102F8000BAF9220104F067FFBAF9240104F063FFE3
:102F90009AF8060100F0010000F062BC6D2B00F011
:102FA000CB826E2B00F0D38200F0AFBD722B00F00D
:102FB000D88311D8702B00F01C83712B40F0A585AD
:102FC000DFF834B24FF0000A9BF81C01400000F01B
:102FD000FE0004F03DFF61E3732B00F00884742BC6
:102FE00040F093854FF0000A4FF0010B7AE3CE2BAF
:102FF00000F0888444D8C82B00F094802BD8782B1C
:1030000000F016820FD8762B00F00084772B40F06A
:103010007C85DFF8E4A14FF0000B9AF81C0104F066
:1030200017FF534695E3A02B00F09884A42B40F0A3
:103030006C85DFF8C4A14FF0000B9AF82E018000D8
:103040000130C0B204F004FF9AF82E0104F0D2FE61
:10305000534600F091BCCB2B61D009D8C92B75D059
:10306000CA2B40F05285DFF8A4A10AF10A0B90E0C8
:10307000CC2B00F0CF80CD2B00F03A8400F045BD82
:10308000D42B00F0F18116D8D12B00F0EC8307D8B7
:10309000CF2B00F0E280D02B00F0218400F035BD72
:1030A000D22B00F03181D32B40F02F8505F04AFA66
:1030B0004D4B1880CCE0F02B00F0448410D8D62B78
:1030C00000F01581EF2B40F0208505F03BFADFF88A
:1030D00038A1AAF82C0005F035FAAAF82A00B7E0C2
:1030E000FA2B00F01784FE2B40F00F85082004F027
:1030F000AFFE3E4B3E4A1B684FF0000AB3FBF2F3B3
:10310000C3EB431103EB81033A490968B1FBF2F2C7
:10311000394902EBC303A1F82C3100F008BC4FF091
:10312000000A47E04FF0000A05F00CFA334B23F891
:103130000A000AF1020ABAF1100FF5D1002004F0DA
:1031400087FE2F4B01221A7000F0E3BC05F0EFF967
:10315000234BDFF8BCA0D87205F0E9F9294B1870B1
:1031600005F0FAF9CAF8000005F0F6F9CAF804000B
:1031700005F0E8F9DFF880A0AAF8020105F0E2F90D
:103180009AF80631AAF8040143F002038AF80631DE
:103190005EE005F0CCF90AF1010A8AF8010005F0B9
:1031A000C6F98AF80B0005F0C2F9DA458AF815006D
:1031B000EFD14DE0104B93F81C21924548D203F219
:1031C00007131AF803B005F0BDF90F4B0AF1010A15
:1031D00003EB4B03A3F84600ECE700BFB604002066
:1031E000A8060020B0010020FC01002014000020EF
:1031F00040420F0098000020380C002014070020E7
:103200006001002000020020681C0020671C0020D4
:103210001802002005F08BF9DFF85CA48AF81F0083
:1032200005F085F98AF8200005F081F98AF8230075
:1032300005F07DF98AF8240005F079F98AF825006F
:1032400005F075F98AF8210005F071F98AF8220075
:10325000002004F0FDFD00F05CBC05F073F96FF494
:10326000AF6E00EB0E03DFF8DCA3C62B98BFAAF805
:103270001A0105F067F9AAF8D00005F063F9AAF879
:10328000D20005F05FF9AAF8D40005F05BF9DFF889
:10329000E8B3ABF8BA0005F04AF98AF82A0105F05C
:1032A00046F98AF82C0105F042F98AF82D0105F05B
:1032B0003EF98AF80A0105F03AF98AF8240105F086
:1032C00036F905F03FF900EB80004000ABF828002C
:1032D00005F02DF98AF80B0105F029F98AF80D019E
:1032E00005F025F98AF80C0105F021F9B0E74FF057
:1032F000000A05F027F9D14B23F80A000AF1020A67
:10330000BAF1100FF5D1A3E7CD4B5B78002B9FD11D
:1033100005F00DF9CB4B022883F8B4034FF0000001
:1033200088BF0022014688BF83F8B42302F07CFFE7
:103330008EE70720DFF80CA304F08AFDE72004F0F5
:1033400059FD9AF8050004F055FD002004F052FDE7
:103350009AF82201BC4BBD4A00280CBF1046184603
:10336000D0E38B420ED2BA4A13F802C0012202FA0D
:103370000CFC1CEA0E0F18BF9A4003F1010318BFA2
:103380001043EEE704F071FDAE4B93F8B40367E22F
:10339000122004F05DFDAF4BDFF8E0A21B88B3F50F
:1033A000806F28D94FF0000B3AF90B00082390FBEF
:1033B000F3F00BF1020B04F04EFDBBF1060FF3D15D
:1033C000DFF8BCA2BAF9000004F045FDBAF902002A
:1033D00004F041FDBAF90400DFF8A8A204F03BFDB7
:1033E000BAF9000004F037FDBAF9020004F033FD29
:1033F000BAF9040053E3BAF9000004F02CFDBAF95D
:10340000020004F028FDBAF9040004F024FDD7E717
:10341000102004F01DFD4FF0000A8F4B13F80A0036
:103420000AF1010A04F0E6FCBAF1100FF5D170E3DD
:10343000382004F00DFDDFF840A20AF1400BBAF984
:10344000780004F008FDBAF97A0004F004FDBAF936
:103450007C0004F000FD0AF1080A9AF8760004F0F6
:10346000C9FCDA45EBD154E3002004F0F1FCDFF8AD
:1034700008A20AF1400B05F065F8AAF8780005F0FB
:1034800061F8AAF87A0005F05DF8AAF87C0005F06A
:103490004EF80AF1080A8AF87600DA45EBD138E3EB
:1034A0006E4B13F80A000AF1010A04F0A3FCBAF10A
:1034B000100FF5D12DE3102004F0CAFC4FF0000AE4
:1034C000674B33F90A000AF1020A04F0C4FCBAF1AE
:1034D000100FF5D11DE3102004F0BAFC584BDFF8B3
:1034E000A8A1D87A04F086FC5E4B187804F082FC20
:1034F000DAF8000004F0B9FCDAF80400DFF88CA177
:1035000004F0B3FCBAF9020104F0A5FCBAF9040115
:1035100004F0A1FCBAF92001C1E2DFF874A1062091
:1035200004F096FCBAF9000004F095FCBAF9020028
:1035300004F091FC4C4B07E0062004F089FC4B4B57
:10354000186804F092FC4A4BB3F90000A7E2DFF8D8
:103550003CA1072004F07CFCBAF83C004FF6FF7B4E
:10356000FF28A8BFFF20C0B204F044FCDAF85000E6
:103570005845A8BF584620EAE07000B204F06BFC42
:103580003C4BB3F9000004F066FC2E4BDAF8440023
:1035900093F80A310028B8BF40422BB10A235843A0
:1035A0005845A8BF584602E05845A8BF584600B243
:1035B00075E2DFF8C4A0072004F04AFC9AF81F0067
:1035C00004F018FC9AF8200004F014FC9AF8230088
:1035D00004F010FC9AF8240004F00CFC9AF8250082
:1035E00004F008FC9AF8210004F004FC9AF8220088
:1035F00036E11E2004F02CFCDFF898A00AF10A0B3B
:103600000AF1010A9AF8010004F0F4FB9AF80B00A1
:1036100004F0F0FB9AF8150004F0ECFBDA45EFD16A
:1036200077E22F2004F014FCDFF86CA01AF8010FE9
:10363000002800F06E8204F0DDFBF7E7C2040020F2
:10364000A8060020941800200C0000C0040000C050
:103650003F0D00202C000020860000204E1C002082
:103660001407002000020020CC010020E40100200B
:10367000D4030020C6010020681C00207C04002028
:10368000B0040020AC02002018020020380C0020FA
:103690009C030020671C0020DB0501089BF81C31FF
:1036A0009A4580F03682C54B1AF80320C44B0AF1C4
:1036B000010A03EB4203B3F9460004F0CCFBEDE74B
:1036C000824408F10108BF4991F81C0180450CDBD8
:1036D000BBF1000F00F01D825FFA8AF004F0B8FB26
:1036E0004FF0000B4FF00008EDE701F20711B6486C
:1036F00018F801104FF00C0E0EFB0101496B084643
:1037000004910AF0ACF88446BBF1000FD8D15946B9
:103710006145D6DA049A505C0291CDF80CC004F0F1
:1037200069FB0299DDF80CC00131F1E7A74AA34912
:103730005244127A1BF80100904203D1019304F025
:1037400059FB019B0AF10C0ABAF1FC0FEED10BF107
:10375000010B93F81C21934580F0DB814FF0000AA8
:10376000E4E7DFF894A2162004F072FBBAF91A011C
:1037700004F071FBBAF9D00004F06DFBDFF840B241
:10378000BAF9D20004F067FBBAF9D40004F063FB85
:10379000BBF9BA0004F05FFB9AF82A0104F02AFB97
:1037A0009AF82C0104F026FB9AF82D0104F022FB74
:1037B0009AF80A0104F01EFB9AF8240104F01AFB9F
:1037C000002004F017FBBBF928000A2390FBF3F05C
:1037D00004F041FB9AF80B0104F00CFB9AF80D0180
:1037E00004F008FB9AF80C0104F004FB37E0082011
:1037F00004F02EFB4FF0010A5FFA8AF00AF1010A89
:1038000004F0F8FABAF1090FF6D182E104F08FFE64
:1038100003461220019304F01BFB019B0BB96C4A79
:1038200002E0102B05D16B4AD2F800B0D2F804A008
:1038300002E04FF0000AD346184604F0DBFA58467F
:1038400004F013FB504604F010FB634B186804F0BF
:103850000CFB002004F0FFFA002004F0FCFA00202A
:1038600004F0C8FA55E104F062FE834604F074FEE9
:10387000039004F071FE019004F06EFE824604F0A5
:1038800061FE04F05FFE04F052FE039A019BBBF15F
:10389000000F0FD14E4981E80C00504B012283F8F4
:1038A00007B01A73BAF1000F3FF4D2AC4A4BC3F819
:1038B00000A0CDE4BBF1100F7FF4CAAC454981E80C
:1038C0000C00BAF1000F02D0434BC3F800A04148EE
:1038D000434B0222011D1A7005F0AEFDB8E43F4BC8
:1038E0005B78002B7FF4B4AC012006F063FEAFE4FC
:1038F0003A4B5B78002B7FF4ABAC3A494FF4C8737A
:103900000B80A5E4354B5A78002A7FF4A1AC012244
:103910009A739DE4314B93F801A0BAF1000F40F087
:10392000F4805046012102F07FFC504691E42E4B7A
:1039300033F90A000AF1020A04F08DFABAF1080F0D
:10394000F5D1E6E0DFF878A0042004F081FABAF9B6
:103950002C0004F080FABAF92A00A0E00C2004F050
:1039600077FA224B186804F080FA214B186804F0AB
:103970007CFA204B1868C5E093F82E21934580F01F
:10398000C880DFF878A01AF80B00019304F032FA2F
:103990000AF1100212F80B0004F02CFA0AF12002CE
:1039A00012F80B000AF1300A04F024FA1AF80B009E
:1039B00004F020FA0BF1010B019BDDE73F0D002025
:1039C000681C0020380C0020DC0501080C060108EA
:1039D0000402002010020020E0010020A8060020C0
:1039E0000C020020441D00205E0D0020E8F7FF1FA0
:1039F000ECF7FF1FF0F7FF1F94180020670D002061
:103A0000002004F025FA04F092FDDFF824A1002341
:103A1000CAF808308AF8050004F09EFDDAF808308C
:103A20001843CAF8080004F082FD8AF8170104F070
:103A300089FDAAF8E60004F085FDAAF8E80004F084
:103A400081FDAAF8EA0004F07DFDAAF8060104F061
:103A500079FDAAF808015CE0DFF8D4A0102004F09A
:103A6000F7F99AF8050004F0C5F9DAF8080004F04F
:103A7000FCF99AF8170104F0BDF9BAF9E60004F070
:103A8000EAF9BAF9E80004F0E6F9BAF9EA0004F054
:103A9000E2F9BAF9060104F0DEF9BAF9080104F016
:103AA000DAF936E0082004F0D3F94FF0000A204B91
:103AB000534493F80F010AF1010A04F09BF9BAF19B
:103AC000080FF4D125E004F032FD194B53440AF1FC
:103AD000010ABAF1080F83F80F01F4D119E013209D
:103AE00004F0B6F94FF0000A124B13F80A000AF17D
:103AF000010A04F07FF9BAF10B0FF5D1002004F0B0
:103B0000B4F9002004F0B1F903E00120002104F031
:103B100081F9D9F80030187904F06CF9D9F800303F
:103B2000002283F84920FFF7DDB80137FFF7BDB861
:103B3000941800200A1501089AF80030002B40F074
:103B40000284B368180540F1FE83CE4B1B78002B2E
:103B500000F0F98304F08EFF002800F0F483CA4BD4
:103B600093F84131002B40F08281C84BD86804F0B3
:103B70003CF9002840F07B81C54FD4F874113A68B5
:103B8000C44B511A7C29B84640F27181C3F87421A4
:103B900093F878210746013283F8782107F1240051
:103BA000C0B204F0D3F9BC4B33F9170007F04EFC58
:103BB000BA4B8246188807F049FC0146504607F088
:103BC0004DFDB74907F096FC07F05AFE013700B2E9
:103BD00004F0D4F9032FE1D1302004F0B7F9B14B50
:103BE000B3F9000004F0CAF904F0C0F994F87801C0
:103BF00010F0030B2CD1DFF8BCA2102004F0A6F9C2
:103C0000DAF80030642793FBF7F000B204F0B6F95D
:103C1000212004F09BF9DAF8003093FBF7F007FB62
:103C2000103787EAE770A0EBE77000B204F0A6F95E
:103C3000142004F08BF99C4BB3F9000004F09EF9BA
:103C40001C2004F083F9584604F098F904F08EF92A
:103C500094F878318F4F590740F0E380022004F048
:103C600075F9B7F97A014FF00A0A90FBFAF004F0FF
:103C700085F9B3689A0760D5BB8F4FF06E0B0BFBCD
:103C800003FB15239BFBF3FB3A2004F05FF91FFABB
:103C90008BFB6422BBFBF2F90FFA89F0039204F06C
:103CA0006DF93B2004F052F9039A02FB19B080B27F
:103CB0000530DFF804B290FBFAF000B204F05EF9D0
:103CC0009BF80030BA8F40F6340192FBF3F24A437E
:103CD0002A21B2FBF1F2B7F87C1191FBF3F003FB60
:103CE00010131B019BB243EA02239BB2C2F30322CF
:103CF00043EA0209062004F029F90FFA89F004F0DA
:103D00003DF9B7F87C219BF80030013292B292FB6A
:103D1000F3F103FB11232820A7F87C3104F016F9F6
:103D2000786C90FBFAF000B204F028F9042004F05B
:103D30000DF9B7F9500004F021F92B689B066ED5F8
:103D4000DFF878A1594FDAF800303C2183EAE37CB0
:103D5000ACEBE37C564B13209CFBF3F207FB02CC4D
:103D600001FB0CF9029199FBF3FB0193039204F020
:103D7000EDF8039A02EB820202EB82020BEB820067
:103D800007FB0B9B00B204F0F9F84FF47A791B2083
:103D900004F0DCF89BFBF9F000B204F0EFF823200C
:103DA00004F0D4F8DAF80020002AACBF4E205320EB
:103DB00004F0E4F8DAF80420019B82EAE27BABEB42
:103DC000E27B9BFBF3F207FB02BB0299122001FB93
:103DD0000BF1039291FBF3FB029104F0B7F8039A05
:103DE00002EB820202EB82020BEB820000B204F0D3
:103DF000C5F81A2004F0AAF8029907FB0B1191FBF1
:103E0000F9F000B204F0BAF8222004F09FF8DAF8D2
:103E10000430002BACBF4520572004F0AFF804F06D
:103E2000A5F894F87831282B21D11A4B0022D8F824
:103E3000007083F878214FF47A73B7FBF3FA1720F8
:103E40003C2704F083F8BAFBF7F9B9FBF7F007FB5E
:103E50001090000200B204F091F8182004F076F8F7
:103E600007FB19A000B204F089F804F07FF896F877
:103E70004131012B31D096F84131022B40F0638261
:103E8000F4E000BF290C002094180020D005002089
:103E900090180020380C00207C0400202C0000200A
:103EA00000007A44D4030020CC010020806967FF21
:103EB00080969800B40300202800002018020020FB
:103EC000F86803F08DFF8146052004F086FAB9F109
:103ED0008A0F09D12B689F0636D4C74FF86803F0C4
:103EE00084FF0028ECD1C6E7B9F18E0FF5D100218F
:103EF0002E22C24809F091FC7C2384F8AA31E023E9
:103F000084F8AD317D2384F8D631A38F84F8AB914A
:103F1000DAB21B0A84F8C93184F8BF31142384F85B
:103F2000C23184F8C3314FF4FA73A4F8C431482382
:103F3000A4F8CC31782384F8C82184F8BE2184F811
:103F4000CE31AE482E218EE0AD4F002107F5BF7077
:103F50002C2209F062FC7C2384F87E31A02384F8B3
:103F600081317D2384F8A931A64B84F87F911B7899
:103F700084F89831A44BDB7A002B6FD0A3496623D9
:103F800087F8A7310B68DFF8A8C2DA0F87F8872116
:103F90009F4A4FF0060E93FBF2F0C0B20CFB0039C3
:103FA0000EFB09F942F21073B9FBF3FA00EB800043
:103FB00003FB1A9949685FFA8AFA00EB80000AEB62
:103FC000800080B291FBF2F2D2B287F88801000A39
:103FD00087F88901C80F0CFB02110EFB01F187F86D
:103FE0008C0102EB8202B1FBF3F003FB101302EB36
:103FF0008202C0B200EB820292B287F88D21120ACF
:1040000087F88E2187F88F31B7F804211B0A87F8CB
:1040100090316423B2FBF3F303EBC3039B009BB229
:1040200087F885311B0A87F88631B7F8223187F87F
:104030008A9187F891311B0A87F89231B7F80231DB
:104040004FEA192987F893311B0A87F89431B7F89A
:10405000243187F88B9187F89A3102E0202387F882
:10406000A7316C482C2105F075FB36E794F8D83160
:10407000002B00F06881684B93F8423113F0FB0F7E
:104080000DD0664BD4F8DC111A6841F28830511A11
:1040900081425B4B0FD9012283F8E02153E1564E58
:1040A000F06803F0A2FE0028EBD0F06803F098FE61
:1040B00001F0DEFCF3E7D3F8E411521A042A40F2CF
:1040C000428193F8E821002A00F03D8193F8E9113C
:1040D000534A32F811601EB983F8E9614FF4036660
:1040E00094F8E931B6F5C06F03F10103DBB2444F38
:1040F00084F8E93160D01DD8B6F5007F56D009D8D4
:10410000B6F5807F55D0B6F5887F40F01C813046EB
:10411000444B9DE0B6F5806F00F0AE80B6F5826F3F
:1041200000F0E680B6F5047F40F00D81BB8F30468D
:10413000532102E1B6F5006F41D00FD8B6F5E26F1A
:1041400000F08E80B6F5E46F00F08E80B6F5E06F7B
:1041500040F0F980344BB3F9001088E0B6F5036FF6
:1041600007D0B6F5046F75D0B6F5026F40F0EB805E
:10417000D8E02B68980640F1E680234BDB7A002BD1
:1041800000F0E180B7F8040107F05CF906F0EEFDFD
:1041900017A3D3E9002306F03DFE07F04DF809F020
:1041A00019FE07F093FB01463046C7E03046796CB4
:1041B000C4E030461D4B4BE03046396DBEE02A6806
:1041C000910640F1C080104AD27A002A00F0BB80EC
:1041D00013F0010F0D4B2DD059680029BCBF494287
:1041E00041F0804141F000412AE000BFAFF3008080
:1041F0000AD7A3703D0AD73FD0050020E20D00206A
:10420000380C002000020020A80600201802002020
:10421000A0860100B60D0020941800209018002000
:10422000EA140108D40300207C040020B403002019
:104230006079FEFF19680029BCBF494241F0804106
:104240004FF4006001F0B2FE002384F8E8317AE018
:10425000196873E04D4B3046B3F900100A2308E0AB
:104260004B4BB3F9021002E0494BB3F9041030464E
:104270002C2391FBF3F161E097F8EA3142F21071DF
:104280000133DBB2032B87F8EA3184BF012387F8BF
:10429000EA3194F8EA3159433E4B1A7802B10131C0
:1042A0005A7802B10231DA7802B10A311A7902B1D0
:1042B00014315A7902B164319A7902B1C831DA7B8A
:1042C0000AB101F5C8711A7A0AB101F57A71DA7981
:1042D0000AB101F5FA615B7A0BB101F57A614FF42D
:1042E000806001F063FE2C4B002283F8E8212AE075
:1042F000296811F020090ED0264B4FF4FA61DA7AC2
:104300001B7B30464B434FF47A7101FB0231234B48
:104310001B78194412E03046494601F047FE87F801
:10432000E89110E02B689A060DD51A4BDB7A53B151
:10433000B7F8023130464FF47A71594301F036FE36
:10434000002387F8E8312B689B0616D5144A1368BA
:10435000D4F8EC219A1A002A0FDB104A1278042AAA
:104360000BD90D4A03F5123303F5F873C2F8EC319B
:104370000C4BDA6882F01002DA600B4B9B680BB1D1
:104380000A4898470DB0BDE8F08F00BFCC0100206F
:104390007C040020A8060020380C00200002002029
:1043A00064010020000C014030050020B20D002007
:1043B0002DE9F04F9B4B95B093F82A31C4B2012BF5
:1043C00000F0E78002D3022B40F0CC85242C964DE0
:1043D0000CD006D80A2C00F08C800D2C00F08980BF
:1043E000C3E02A2C07D02C2C05D0BEE000232B7074
:1043F0006B70AB70CAE06A782E782A4400218A4B31
:10440000D170EEB9DA789E74472A19D11A79502AF8
:1044100016D15A79472A07D19A79472A04D1DA79ED
:10442000412A01D101229A746A797F4B522A07D11D
:104430009A794D2A04D1DA79432A04BF02229A7468
:10444000AB7C794F012B02D0022B33D046E0B31E58
:10445000072B43D8DFE803F0040810141C2442297A
:1044600001F08CFE686139E0EA786F4B532A35D150
:104470005A6952425A6131E001F080FEA8612DE094
:10448000EA78694B572A29D19A6952429A6125E004
:10449000EA78664B302A94BF00220122DA721DE0CE
:1044A000002001F049FE287718E0002001F044FECA
:1044B000E88313E0072E06D0082E0FD1012001F06B
:1044C0003BFE78840AE0012001F036FE41F21843F9
:1044D00058434FF47A72B0FBF2F33B840136002369
:1044E0002A2C514A2E706B704BD1012182F8241076
:1044F0004CE095F82430002B33D04B4BDB78402B2D
:1045000004D9A3F137021201D2B202E01B0103F079
:10451000F0022B79A978402B8CBF373B303BDBB2C4
:104520001344DBB29942404A1AD1937C012B08D044
:10453000022B15D1118C3E4B528C19803D4B1A80A9
:104540000EE03A49C97A61B13B4950690860906907
:104550004860107F39490870D18B394A118000E0DA
:104560000023002285F8242010E06B782E4A0E2BC1
:1045700003D8591C13445170DC7095F824302A4A32
:104580001BB991784C40947000E0002303F00103C4
:104590002FE1254B002193F82520082A00F22881DD
:1045A000DFE802F00B05141E2F506E8A9700622C74
:1045B00001D1022207E083F82510B52C40F01881C4
:1045C00093F82520013283F8252011E1032283F896
:1045D000252083F8264083F8274083F8284007E108
:1045E000042283F8252093F8272093F828102244EA
:1045F000D2B283F827200A4483F8282083F8294080
:10460000F6E0052283F8252093F8272093F8281058
:104610002244D2B283F827200A4483F828205C85FC
:10462000E6E000BF94180020280E0020A806002015
:104630003C0D0020580D0020180200200002002030
:104640003A0D0020062183F8251093F8271093F8DF
:1046500028002144C9B283F82710014483F82810A8
:10466000598DB14A01EB0424A4B2B4F5007F89BF8F
:1046700000215485518582F8251000229A85B7E0E3
:1046800093F8272093F828102244D2B283F82720E9
:104690000A4483F828209A8DC72A03D8A2491144D6
:1046A00081F83040013292B29A855B8D934240F09E
:1046B0009F8007229C4B86E7082283F8252093F8E9
:1046C0002730A34200F09480974A002382F82530D7
:1046D0008FE083F8251093F82810934AA14240F008
:1046E000878092F8291006293BD004D8022911D0DE
:1046F000032923D07CE0122949D0302978D192F8BF
:1047000034108A4A102988BF102111701078884906
:1047100000224AE08749506B4860906B0860116C3A
:104720004FF47A7091FBF0F183480180834992F84D
:10473000F800C872012182F8F9104BE092F83510A8
:1047400011F0010105D092F83420D01E42424241BE
:1047500000E00A4683F8F820002A3BD17749CA7264
:1047600038E092F83B1011F0010105D092F83A20A0
:10477000D11E4A424A4100E00A4683F8F8200AB9AD
:104780006E49CA7293F85F106D4A117022E0516C45
:104790006C480180916C42F2107091FBF0F16A4814
:1047A0000180012182F8FA1014E0824201F10C012B
:1047B00010DA11F8045C654C155511F8035C644C73
:1047C000155511F8015C634C15550D78624C155563
:1047D0000132EAE793F8F930534A4BB192F8FA30D4
:1047E00033B1002382F8F93082F8FA30012300E077
:1047F0000023002B00F0B683584B9A68DA60584AC1
:10480000116890469960574B196841F02001196072
:10481000554B197801290CBF002201221A70474B11
:10482000DA7A002A00F09E83454A1278042A40F280
:1048300099835A7802B91A731B7B13B90AB104F031
:10484000C5F9394C4FF0050E94F8FB3004F1FA0627
:10485000013393FBFEFE0EEB8E0ECEEB030E434BAD
:1048600084F8FBE01B780396049304F5807303EB54
:104870008E0E00232F493E4A5D583E4E9D5095FBBB
:10488000F6F002F1080698513B4E5F1806FB005502
:1048900042F2107C95FBFCFC0597039F1FFA8CFCF1
:1048A00002F1100A27F802CF03EB830B53F80A60DA
:1048B00003975EF80B704EF80B50C7EB060909EB37
:1048C0000506052543F80A6096FBF5F6294D1832D2
:1048D00005FB0060049E9850012E0F4608D1ACF1F4
:1048E000020C1FFA8CFCBCF5797F9CBF059A106006
:1048F0000433082BBED10C4DD8F80000D5F8483150
:10490000C01A06F09FFD1D4906F0A8FED8F8003039
:104910004FF07E51C5F84831064606F089FF78BB56
:104920004FF07E502DE000BF280E0020660D0020C5
:10493000580E0020180200203A0D0020A806002082
:10494000000200203C0D0020580D0020670D0020C3
:10495000770D0020870D0020970D002060070020B4
:10496000901800202C0500203E0D00200C02002095
:10497000500F002080969800806967FF00007A44FD
:10498000304610AAC5F84C01B54B009211AA01920D
:1049900097E803000CCB04F0B8F8109A6423119840
:1049A000B04992FBF3F20A8090FBF3F3AE4AAF48B2
:1049B0001380037B81460BB90B80138095F850312F
:1049C000AB4E002B3AD0D6F84C114FF07E5006F08B
:1049D00045FED6F8543180463868C01A06F036FDD8
:1049E000414606F087FD06F04BFFD6F858211FFA26
:1049F00080FA78680FFA8AFA801A06F027FD9D4B34
:104A0000196806F077FD414606F074FD06F038FFA0
:104A1000B6F95E3100B2C218B6F95C3102215344D6
:104A200092FBF1F293FBF1F392B29BB2A6F86221F2
:104A3000A6F86031A6F85E21A6F85C31012385F85E
:104A400050317968386899F80830C5F85811C5F8B8
:104A5000540123B9854BDB79002B00F08382844E0F
:104A600006F5B673009306F5B8730193D4F8642184
:104A7000D4F8683104F049F87B68D4F86801C01AAA
:104A800006F0E4FC7B4B196806F034FD06F0F8FEF6
:104A9000D4F864313A68C4F878019B1AC4F87431C8
:104AA000754B93F90030012B03D0022B00F0F680F8
:104AB00058E2D6F87C51D6F898410395D6F88C7117
:104AC000D6F8905104F100400695049706F0D8FE00
:104AD0008146204606F0D4FED6F84C81D6F8946183
:104AE00007904046059606F041F9644B044693F85A
:104AF000C4000D4606F0A6FC06F038F956A3D3E92B
:104B0000002306F087F902460B4600205C4906F0B8
:104B1000ABFA2B46224605F0CBFF02460B46204659
:104B2000294606F0A1FACDE90801564E0025564C5B
:104B300054F81570A4F11403384635F803A006F0B4
:104B400085FC039906F0D6FC06F09AFECAEB00003D
:104B500080B22834285304B2204606F077FC04992A
:104B600006F0C8FC06F08CFE1FFA80FBE01906F088
:104B70006DFC069906F0BEFC414606F0BBFC3168B0
:104B800006F0B0FB06F07CFE484504DB079A904235
:104B9000A8BF104600E0484606F058FC306006F01A
:104BA0006FFEB46858441FFA80FB204606F0DEF81A
:104BB000CDE90A0170680AF1310A381A06F046FC9C
:104BC000414606F04BFD214606F08AFB06F0CEF882
:104BD00002460B46DDE9080106F01CF902460B46C9
:104BE000DDE90A0105F064FF06F026FB1FFA8AFAE8
:104BF000BAF1620F014630617760B0600ED9059856
:104C000006F078FC06F03CFE204BB0F5FA6FA8BF2A
:104C10004FF4FA609842B8BF184600E00020834481
:104C200040F6B8330FFA8BFB9B45A8BF9B46184B49
:104C30000A229B45B8BF9B466A43164B56F8141B85
:104C400025F803B0144B0235042DD15000F08A81B1
:104C50006DE700BFAFF30080182D4454FB211940CD
:104C6000040200205A0D00205C0D0020A806002040
:104C7000280E0020480000200C020020681C0020A4
:104C80000000F03F540200209C0F002030F8FFFF8E
:104C900048F4FFFF280200207C020020B64AD6F824
:104CA0006CA1B2F9CA909AFBF3F39945A8BF994653
:104CB000B6F8A0411FFA89F90FFA89F223B29A4295
:104CC0000BDDAE49D6F84C0106F014FC06F0D8FD19
:104CD00020441FFA80F9A6F8A091D5F87041D5F8C4
:104CE000A461A61B304603F095FF0028D8BF4042C0
:104CF00041F293139842CCBF0020012078B3304694
:104D000006F0A4FB9E4906F0F5FB09F089F806467B
:104D1000504606F09BFB0146304606F0EBFB06F0E2
:104D2000AFFD80B240F6B83203B29342A8BF13463B
:104D3000944AA5F8A8019342ACBFE318A31848F61B
:104D4000A042934203DDA3F50C43A03B04E0002BFB
:104D5000BCBF03F50C43A033C5F8AC3101E0C5F886
:104D6000AC41D5F8AC61C6F50C502830039606F07E
:104D70006DFB834906F0BEFB044608F0B7FF1390B5
:104D8000204609F04DF8D5F8BC41D5F8B071D5F8FA
:104D9000B461129004F100400597089606F070FD8A
:104DA0000490204606F06CFDD5F84CB1D5F8B8510A
:104DB0000A905846079505F0D9FF6F4B044693F8C3
:104DC000C4000D4606F03EFB05F0D0FF68A3D3E912
:104DD000002306F01FF802460B4600206A4906F041
:104DE00043F922462B4605F063FE02460B46204659
:104DF000294606F039F9CDE90C01644E00270FFA77
:104E000089F006F023FB12AB53F8171006F072FB83
:104E10005F4C0546E05F06F019FB0146284606F0A8
:104E20005FFA06F02DFD5B4B0FFA80F8B8F57A7F3C
:104E3000A8BF4FF47A789845B8BF98461FFA88F013
:104E40003C34385300B206F001FB0599044606F0E5
:104E500051FB06F015FD80B206900899204606F039
:104E600049FB594606F046FB316806F03BFA06F06E
:104E700007FD049DA84204DB0A9DA842A8BF28465E
:104E800000E0049806F0E2FAB46805463060204677
:104E900005F06CFFCDE90E0170681436C0EB080018
:104EA00006F0D4FA594606F0D9FB214606F018FA66
:104EB00005F05CFF02460B46DDE90C0105F0AAFF98
:104EC00002460B46DDE90E0105F0F2FD06F0B4F9ED
:104ED00046F8108C014646F8040C46F80C0C07986E
:104EE00006F008FB06F0CCFC069C0444284606F0BD
:104EF000C7FC204440F6B83300B29842A8BF184619
:104F0000204B0A229842B8BF18467A43224BF852E7
:104F1000224B0237042FD5507FF471AF164B93F814
:104F2000C6202AB1039E64211D4A96FBF1F111802F
:104F3000B3F8C2301B4C9A450DDDD4F8A431D4F837
:104F40007001C01A03F066FE42F210730028B8BF69
:104F50004042984206DD144B01221A70B4F8C02179
:104F60000F4B1A8015B0BDE8F08F00BFAFF3008083
:104F7000182D4454FB211940681C00200000C84231
:104F8000D302373948F4FFFF0000F03F7C020020D5
:104F9000880F002018FCFFFF280200205402002088
:104FA000FC010020280E00200C0200202DE9F04713
:104FB000714B86B01A78994642B901236F4889F837
:104FC000003002F063FF6E4802F060FF6D4D28680C
:104FD00002F00BFFAA46002800F0CB80286802F000
:104FE000FFFE09280146684C01D03F2859D14FF0F7
:104FF0000008D4F8C461654F45462EB1644839684D
:10500000324608F035FC10B9B84605B93D46614B4B
:105010000C379F42F1D305B3D5F800E0D8F800C0B3
:10502000D4F8C43158481EF803701CF80310B94274
:1050300013D15A1C59B92D2B09D8C0F8C4210344E7
:105040002027024483F8C87182F8C81105E0234480
:1050500083F8C871C4F8C421E2E7D4F8C4310BB1B5
:10506000454512D04C4802F011FF454509D855F886
:105070000C0B02F00BFFDAF80000092103F055F9E0
:10508000F3E73F4802F002FF0026D4F8C4319E4205
:105090009CD23F4BDAF80000995D03F046F90136E7
:1050A000F3E7D4F8C43133B904283BD104F5E470F4
:1050B00001F064FD5DE00C2801D1384881E70A2940
:1050C00001D00D294AD1364802F0E0FED4F8C431AF
:1050D0002F4EE218002382F8C8310493314B03A805
:1050E00000932A4910220C23039608F069FC054618
:1050F00038B1006808F0B3FB0130AB683044984722
:1051000002E0294802F0C2FE21480021302208F0C6
:1051100084FB0023C4F8C43199F80030002B7FF4DD
:1051200052AF26E00C28C8D07F2903D14EE72F2BA1
:105130003FF64CAFA1F12002D2B25E2A3FF646AF55
:1051400013B920293FF442AF5A1CC4F8C42128687F
:105150001C4484F8C81103F0E8F837E77F29E6D14A
:10516000013BC4F8C4310022234483F8C8210F480E
:105170002AE706B0BDE8F0874C1D0020C5150108E0
:10518000FD150108D0050020280E0020E4070108C5
:10519000F00F0020A40801080216010807160108F4
:1051A000291D010811830008121601083316010891
:1051B00073B51D4D4FF4805604466E61F52003F023
:1051C000FFFD0DF107000021012200F001FA2E6120
:1051D0009DF80730702B24D1144B154ABB2C1A6054
:1051E000144A5A60144B154A1A60154A5A60154AF7
:1051F000DA60154B02D90120187113E0612C01D936
:1052000002220BE0292C01D9032207E0132C01D93B
:10521000042203E0092C8CBF052206221A7101200A
:1052200000E0002002B070BD000C014044050020E9
:105230009D800008B197000830050020C15E00087D
:10524000115600081844923148000020AFF3008046
:1052500008B5084802F01AFE0121002000F0E4FF22
:10526000054802F013FE0A2003F0B7F8034A044B86
:10527000DA6008BD37160108411601080400FA0576
:1052800000ED00E02DE9F04F1421012834BF07465E
:10529000012701FB07F0644ADFF8A4B11318105886
:1052A000624ECBF800006248F469077018691D89E6
:1052B000B3F80A9020435C6889B049EA0508F061B8
:1052C0000223C4F8108020468DF80E1003A9ADF813
:1052D0000C808DF80F30019203F0F0F84FF0080ABF
:1052E000A3681D4203D10A2003F06CF8F8E70A20F6
:1052F000656103F067F825610A2003F063F8BAF1ED
:10530000010AEDD10A20C4F8149003F05BF80A20DA
:10531000656103F057F80A20256103F053F8022372
:10532000C4F8109020468DF80F3003A91C238DF887
:105330000E30ADF80C8003F0C1F8DBF800303D4AC8
:105340009342336905D143F4001333614FF40010E5
:1053500004E043F4800333614FF4800001F0DBF993
:10536000DBF8004003A8A38823F440731B041B0C44
:10537000A38023889BB243F001032380A58801F01A
:1053800007F925F03F0505992B4A2D04B1FBF2F2F0
:105390002D0C1543ADB2A580238803A823F001038B
:1053A0001B041B0C2380254BB1FBF3F34FF49671C8
:1053B0004A439BB24FF47A71002B92FBF1F208BF83
:1053C0000123013243F4004392B22284A383238851
:1053D000154A9BB243F001032380238823F48163A1
:1053E00023F002031B041B0C23804FF48043238112
:1053F000142303FB07277B7B00248DF80C3001234B
:105400008DF80F308DF80D408DF80E4002F060FBE6
:105410003B7B03A88DF80C308DF80D4002F058FB53
:1054200009B0BDE8F08F00BF14070108001002406A
:10543000201000200054004040420F00804F120016
:105440008811002008B5064B1A8892B2013292B238
:105450001A80044B1878FFF715FF002008BD00BF25
:10546000560D00202010002010B54000204CC0B286
:1054700020702048204C0170204901200870002134
:1054800021701F4C23601F4C23601F4B1A701F4B51
:105490001F4A107019701F490868194630B3838875
:1054A0009C0515D40388DB050DD447F230530488DE
:1054B000A40502D5013BFAD112E08BB103889BB25F
:1054C00043F48073038083889BB243F440738380EA
:1054D00047F23053107810B1013BFBD100E013B913
:1054E000BDE81040AEE7087880F0010010BD00BFB5
:1054F00078110020791100207B1100207A11002002
:10550000801100207C1100208411002086110020D1
:10551000851100208811002007B502AB03F8012D8A
:105520000122FFF7A1FF03B05DF804FB244A13B585
:1055300013681446998A89B20191019911F4706F28
:1055400002D0204A01211170019A12F4E06F2AD092
:105550001A8B9A8822F480621204120C9A80019AA3
:10556000910520D41A8892051DD41A88D0050FD52C
:105570001A88D105FCD41A8892B242F400721A80BB
:105580001A889205FCD4104B1878FFF77BFE0AE0CE
:105590001A8892B242F400721A809A8822F44072F9
:1055A0001204120C9A802268938A23F470631B04FD
:1055B0001B0C9382054B00221A7002B010BD00BF75
:1055C0008811002086110020201000208511002065
:1055D00030B50E4B9B8912F1FF3214D311B10C7808
:1055E000013100E0FF24094B1D89AD07FBD59C81EB
:1055F0001C89E407FCD5054B9B899BB20028EAD0A7
:1056000003700130E7E7012030BD00BF00380040E3
:105610007FB51C4C4FF4805506466561C32003F0EE
:10562000CFFB684600210622FFF7D2FF25619DF8D7
:1056300001309DF800209DF8021043EA022212B2C8
:10564000042392FBF3F2ADF808209DF8032002A892
:1056500042EA012212B292FBF3F29DF80410ADF877
:105660000A209DF8052042EA012212B292FBF3F3D0
:10567000ADF80C30044B31461A7802F097FA04B0BA
:1056800070BD00BF000C014050000020F0B5884CF8
:10569000884A23689D8AADB2E9B211F0010F32D079
:1056A000198821F400610904090C1980198889B24C
:1056B00041F480611980002151707F4908787F4949
:1056C000A8B1907818B97E480078FF280FD1012042
:1056D00090707C480078022804D1188880B240F489
:1056E00000601880097841F00101198202E109780F
:1056F00001F0FE011982724B1B78FF2B00F0FA803B
:10570000FF235370F6E08F073CD5BFF35F8F6D49E1
:105710000878012815D16848007890B1907880B158
:10572000198821F480610904090C1980BFF35F8F87
:10573000198B198889B241F4007119800121D17047
:105740001BE0188BBFF35F8F087802280BD15A48F3
:10575000007840B1907830B1198821F48061090453
:10576000090C1980C0E00978032906D1524909784B
:1057700019B19178002940F0B780998889B241F435
:105780008061B6E04E075BD50121D1704A490978A6
:1057900000293AD09178002937D04A4950780978C1
:1057A000494D022919881ED921F480610904090C88
:1057B00019801F8A2E68C1B2FFB240B237541888D0
:1057C00080B240F4007018808B1C537023682868E6
:1057D0001D8A013149B2EDB24554998889B241F42C
:1057E0008061998027E089B241F4007119801E8A96
:1057F0002D68C1B2F6B240B22E541B8A481C40B28A
:10580000DBB203312B54517015E0917811B92F4957
:10581000097841B1198889B241F40071198053782F
:105820000133537007E0198889B241F480711980FF
:10583000204B0121997021680B88D805FCD459E0D0
:1058400001F0400101F0FF061E48F1B11E49B3F816
:1058500010C00F6851785FFA8CFCCDB26E1C49B253
:10586000F6B207F801C05670077876B2F11C8F4285
:1058700005D1998821F480610904090C9980037885
:10588000B34237D10235557034E0290632D551780C
:105890004DB26F1C1ED00E4E01313668C9B2755D17
:1058A0005170EDB21D82007849B2884222D11BE0CE
:1058B00088110020201000207B110020781100208A
:1058C00079110020841100207C1100207A11002021
:1058D00080110020134956700978C9B21982124903
:1058E000097809B9017829B9998821F480610904F6
:1058F000090C99800D4B92F9011018780C4B421C41
:1059000091420DD100229A70DB7833B122689388DE
:1059100023F440731B041B0C9380064B00221A7067
:10592000F0BD00BF791100207B1100208411002000
:10593000201000208511002013B50446006802F0F5
:1059400073F8236801A81A8892B242F001021A8003
:10595000637B8DF8043001238DF805308DF8063017
:105960008DF8073002F0B4F802B010BD2DE9F7430E
:10597000DFF85880050105EB0804A368124EADF866
:1059800004302E44282307468946B27160688DF89A
:10599000063001A902238DF8073002F08FFD55F87B
:1059A0000800217B002201F0F3FF20464FF6FF7133
:1059B0000122FFF7C1FF204639464A4600F060FB4E
:1059C000304603B0BDE8F083081200203013010810
:1059D00037B5224D8DF807302B798DF8062002AAB5
:1059E0008DF804008DF805101A4412F8042C443A7E
:1059F000D2B20A2A2AD81A49022B01EB4202148D8C
:105A000003D814B1204600F0A1FA2B79134A022BD7
:105A100009D9144B19689368091B8B4203D20023E0
:105A20001371114A13702B7B012B00D09CB92B7979
:105A3000022B02D8094A013313710C4B0020287342
:105A4000187003B0BDE8304002F08CBC022B4FF060
:105A50003204D7D9D9E703B030BD00BF20100020F1
:105A60001407010890180020391D0020900C002018
:105A70000A4B19680A4B1A787E2A0CD1094A1B284E
:105A8000116005D00D2803D0342801D0672802D139
:105A9000054A012111701870704700BF901800204E
:105AA00030100020140E0020200E00208B4B2DE91A
:105AB000F04FB3F90220B3F90030002AB8BF5242C8
:105AC000002BB8BF5B429A42B8BF1A46844B8BB0DA
:105AD000D8781B7902920193824B6FF00401B3F8DE
